{"abi":[{"inputs":[{"internalType":"string","name":"alloted","type":"string"},{"internalType":"address","name":"creator","type":"address"}],"stateMutability":"nonpayable","type":"constructor"},{"inputs":[],"name":"allotedCredit","outputs":[{"internalType":"string","name":"","type":"string"}],"stateMutability":"view","type":"function"},{"inputs":[{"internalType":"uint256","name":"index","type":"uint256"},{"internalType":"string","name":"creditUseddd","type":"string"}],"name":"approveTransaction","outputs":[],"stateMutability":"payable","type":"function"},{"inputs":[{"internalType":"uint256","name":"","type":"uint256"}],"name":"approvedTransactions","outputs":[{"internalType":"string","name":"date","type":"string"},{"internalType":"string","name":"co2","type":"string"},{"internalType":"string","name":"ch4","type":"string"},{"internalType":"string","name":"n2o","type":"string"},{"internalType":"string","name":"hfc","type":"string"},{"internalType":"string","name":"pfc","type":"string"},{"internalType":"string","name":"sf6","type":"string"},{"internalType":"string","name":"creditUsedd","type":"string"},{"internalType":"string","name":"availableCredit","type":"string"},{"internalType":"address","name":"org","type":"address"},{"internalType":"bool","name":"complete","type":"bool"}],"stateMutability":"view","type":"function"},{"inputs":[{"internalType":"string","name":"date","type":"string"},{"internalType":"string","name":"co2","type":"string"},{"internalType":"string","name":"ch4","type":"string"},{"internalType":"string","name":"n2o","type":"string"},{"internalType":"string","name":"hfc","type":"string"},{"internalType":"string","name":"pfc","type":"string"},{"internalType":"string","name":"sf6","type":"string"},{"internalType":"string","name":"creditUsedd","type":"string"},{"internalType":"address","name":"org","type":"address"},{"internalType":"string","name":"availableCredit","type":"string"}],"name":"createTransaction","outputs":[],"stateMutability":"nonpayable","type":"function"},{"inputs":[],"name":"creditUsed","outputs":[{"internalType":"string","name":"","type":"string"}],"stateMutability":"view","type":"function"},{"inputs":[],"name":"getApprovedTransactionCount","outputs":[{"internalType":"uint256","name":"","type":"uint256"}],"stateMutability":"view","type":"function"},{"inputs":[],"name":"getBalance","outputs":[{"internalType":"string","name":"","type":"string"},{"internalType":"string","name":"","type":"string"},{"internalType":"address","name":"","type":"address"},{"internalType":"uint256","name":"","type":"uint256"}],"stateMutability":"view","type":"function"},{"inputs":[],"name":"getTransactionsCount","outputs":[{"internalType":"uint256","name":"","type":"uint256"}],"stateMutability":"view","type":"function"},{"inputs":[],"name":"manager","outputs":[{"internalType":"address","name":"","type":"address"}],"stateMutability":"view","type":"function"},{"inputs":[{"internalType":"uint256","name":"","type":"uint256"}],"name":"transactions","outputs":[{"internalType":"string","name":"date","type":"string"},{"internalType":"string","name":"co2","type":"string"},{"internalType":"string","name":"ch4","type":"string"},{"internalType":"string","name":"n2o","type":"string"},{"internalType":"string","name":"hfc","type":"string"},{"internalType":"string","name":"pfc","type":"string"},{"internalType":"string","name":"sf6","type":"string"},{"internalType":"string","name":"creditUsedd","type":"string"},{"internalType":"string","name":"availableCredit","type":"string"},{"internalType":"address","name":"org","type":"address"},{"internalType":"bool","name":"complete","type":"bool"}],"stateMutability":"view","type":"function"}],"devdoc":{"kind":"dev","methods":{},"version":1},"evm":{"assembly":"    /* \"Organization.sol\":553:2987  contract Organization {... */\n  mstore(0x40, 0x80)\n    /* \"Organization.sol\":1215:1338  constructor (string memory alloted, address creator) {... */\n  callvalue\n  dup1\n  iszero\n  tag_1\n  jumpi\n  0x00\n  dup1\n  revert\ntag_1:\n  pop\n  mload(0x40)\n  sub(codesize, bytecodeSize)\n  dup1\n  bytecodeSize\n  dup4\n  codecopy\n  dup2\n  dup2\n  add\n  0x40\n  mstore\n  dup2\n  add\n  swap1\n  tag_2\n  swap2\n  swap1\n  tag_3\n  jump\t// in\ntag_2:\n    /* \"Organization.sol\":1289:1296  creator */\n  dup1\n    /* \"Organization.sol\":1279:1286  manager */\n  0x02\n  0x00\n    /* \"Organization.sol\":1279:1296  manager = creator */\n  0x0100\n  exp\n  dup2\n  sload\n  dup2\n  0xffffffffffffffffffffffffffffffffffffffff\n  mul\n  not\n  and\n  swap1\n  dup4\n  0xffffffffffffffffffffffffffffffffffffffff\n  and\n  mul\n  or\n  swap1\n  sstore\n  pop\n    /* \"Organization.sol\":1323:1330  alloted */\n  dup2\n    /* \"Organization.sol\":1307:1320  allotedCredit */\n  0x03\n    /* \"Organization.sol\":1307:1330  allotedCredit = alloted */\n  swap1\n  dup1\n  mload\n  swap1\n  0x20\n  add\n  swap1\n  tag_6\n  swap3\n  swap2\n  swap1\n  tag_7\n  jump\t// in\ntag_6:\n  pop\n    /* \"Organization.sol\":1215:1338  constructor (string memory alloted, address creator) {... */\n  pop\n  pop\n    /* \"Organization.sol\":553:2987  contract Organization {... */\n  jump(tag_8)\ntag_7:\n  dup3\n  dup1\n  sload\n  tag_9\n  swap1\n  tag_10\n  jump\t// in\ntag_9:\n  swap1\n  0x00\n  mstore\n  keccak256(0x00, 0x20)\n  swap1\n  0x1f\n  add\n  0x20\n  swap1\n  div\n  dup2\n  add\n  swap3\n  dup3\n  tag_12\n  jumpi\n  0x00\n  dup6\n  sstore\n  jump(tag_11)\ntag_12:\n  dup3\n  0x1f\n  lt\n  tag_13\n  jumpi\n  dup1\n  mload\n  not(0xff)\n  and\n  dup4\n  dup1\n  add\n  or\n  dup6\n  sstore\n  jump(tag_11)\ntag_13:\n  dup3\n  dup1\n  add\n  0x01\n  add\n  dup6\n  sstore\n  dup3\n  iszero\n  tag_11\n  jumpi\n  swap2\n  dup3\n  add\ntag_14:\n  dup3\n  dup2\n  gt\n  iszero\n  tag_15\n  jumpi\n  dup3\n  mload\n  dup3\n  sstore\n  swap2\n  0x20\n  add\n  swap2\n  swap1\n  0x01\n  add\n  swap1\n  jump(tag_14)\ntag_15:\ntag_11:\n  pop\n  swap1\n  pop\n  tag_16\n  swap2\n  swap1\n  tag_17\n  jump\t// in\ntag_16:\n  pop\n  swap1\n  jump\t// out\ntag_17:\ntag_18:\n  dup1\n  dup3\n  gt\n  iszero\n  tag_19\n  jumpi\n  0x00\n  dup2\n  0x00\n  swap1\n  sstore\n  pop\n  0x01\n  add\n  jump(tag_18)\ntag_19:\n  pop\n  swap1\n  jump\t// out\n    /* \"#utility.yul\":7:82   */\ntag_20:\n    /* \"#utility.yul\":40:46   */\n  0x00\n    /* \"#utility.yul\":73:75   */\n  0x40\n    /* \"#utility.yul\":67:76   */\n  mload\n    /* \"#utility.yul\":57:76   */\n  swap1\n  pop\n    /* \"#utility.yul\":7:82   */\n  swap1\n  jump\t// out\n    /* \"#utility.yul\":88:205   */\ntag_21:\n    /* \"#utility.yul\":197:198   */\n  0x00\n    /* \"#utility.yul\":194:195   */\n  dup1\n    /* \"#utility.yul\":187:199   */\n  revert\n    /* \"#utility.yul\":211:328   */\ntag_22:\n    /* \"#utility.yul\":320:321   */\n  0x00\n    /* \"#utility.yul\":317:318   */\n  dup1\n    /* \"#utility.yul\":310:322   */\n  revert\n    /* \"#utility.yul\":334:451   */\ntag_23:\n    /* \"#utility.yul\":443:444   */\n  0x00\n    /* \"#utility.yul\":440:441   */\n  dup1\n    /* \"#utility.yul\":433:445   */\n  revert\n    /* \"#utility.yul\":457:574   */\ntag_24:\n    /* \"#utility.yul\":566:567   */\n  0x00\n    /* \"#utility.yul\":563:564   */\n  dup1\n    /* \"#utility.yul\":556:568   */\n  revert\n    /* \"#utility.yul\":580:682   */\ntag_25:\n    /* \"#utility.yul\":621:627   */\n  0x00\n    /* \"#utility.yul\":672:674   */\n  0x1f\n    /* \"#utility.yul\":668:675   */\n  not\n    /* \"#utility.yul\":663:665   */\n  0x1f\n    /* \"#utility.yul\":656:661   */\n  dup4\n    /* \"#utility.yul\":652:666   */\n  add\n    /* \"#utility.yul\":648:676   */\n  and\n    /* \"#utility.yul\":638:676   */\n  swap1\n  pop\n    /* \"#utility.yul\":580:682   */\n  swap2\n  swap1\n  pop\n  jump\t// out\n    /* \"#utility.yul\":688:868   */\ntag_26:\n    /* \"#utility.yul\":736:813   */\n  0x4e487b7100000000000000000000000000000000000000000000000000000000\n    /* \"#utility.yul\":733:734   */\n  0x00\n    /* \"#utility.yul\":726:814   */\n  mstore\n    /* \"#utility.yul\":833:837   */\n  0x41\n    /* \"#utility.yul\":830:831   */\n  0x04\n    /* \"#utility.yul\":823:838   */\n  mstore\n    /* \"#utility.yul\":857:861   */\n  0x24\n    /* \"#utility.yul\":854:855   */\n  0x00\n    /* \"#utility.yul\":847:862   */\n  revert\n    /* \"#utility.yul\":874:1155   */\ntag_27:\n    /* \"#utility.yul\":957:984   */\n  tag_47\n    /* \"#utility.yul\":979:983   */\n  dup3\n    /* \"#utility.yul\":957:984   */\n  tag_25\n  jump\t// in\ntag_47:\n    /* \"#utility.yul\":949:955   */\n  dup2\n    /* \"#utility.yul\":945:985   */\n  add\n    /* \"#utility.yul\":1087:1093   */\n  dup2\n    /* \"#utility.yul\":1075:1085   */\n  dup2\n    /* \"#utility.yul\":1072:1094   */\n  lt\n    /* \"#utility.yul\":1051:1069   */\n  0xffffffffffffffff\n    /* \"#utility.yul\":1039:1049   */\n  dup3\n    /* \"#utility.yul\":1036:1070   */\n  gt\n    /* \"#utility.yul\":1033:1095   */\n  or\n    /* \"#utility.yul\":1030:1118   */\n  iszero\n  tag_48\n  jumpi\n    /* \"#utility.yul\":1098:1116   */\n  tag_49\n  tag_26\n  jump\t// in\ntag_49:\n    /* \"#utility.yul\":1030:1118   */\ntag_48:\n    /* \"#utility.yul\":1138:1148   */\n  dup1\n    /* \"#utility.yul\":1134:1136   */\n  0x40\n    /* \"#utility.yul\":1127:1149   */\n  mstore\n    /* \"#utility.yul\":917:1155   */\n  pop\n    /* \"#utility.yul\":874:1155   */\n  pop\n  pop\n  jump\t// out\n    /* \"#utility.yul\":1161:1290   */\ntag_28:\n    /* \"#utility.yul\":1195:1201   */\n  0x00\n    /* \"#utility.yul\":1222:1242   */\n  tag_51\n  tag_20\n  jump\t// in\ntag_51:\n    /* \"#utility.yul\":1212:1242   */\n  swap1\n  pop\n    /* \"#utility.yul\":1251:1284   */\n  tag_52\n    /* \"#utility.yul\":1279:1283   */\n  dup3\n    /* \"#utility.yul\":1271:1277   */\n  dup3\n    /* \"#utility.yul\":1251:1284   */\n  tag_27\n  jump\t// in\ntag_52:\n    /* \"#utility.yul\":1161:1290   */\n  swap2\n  swap1\n  pop\n  jump\t// out\n    /* \"#utility.yul\":1296:1604   */\ntag_29:\n    /* \"#utility.yul\":1358:1362   */\n  0x00\n    /* \"#utility.yul\":1448:1466   */\n  0xffffffffffffffff\n    /* \"#utility.yul\":1440:1446   */\n  dup3\n    /* \"#utility.yul\":1437:1467   */\n  gt\n    /* \"#utility.yul\":1434:1490   */\n  iszero\n  tag_54\n  jumpi\n    /* \"#utility.yul\":1470:1488   */\n  tag_55\n  tag_26\n  jump\t// in\ntag_55:\n    /* \"#utility.yul\":1434:1490   */\ntag_54:\n    /* \"#utility.yul\":1508:1537   */\n  tag_56\n    /* \"#utility.yul\":1530:1536   */\n  dup3\n    /* \"#utility.yul\":1508:1537   */\n  tag_25\n  jump\t// in\ntag_56:\n    /* \"#utility.yul\":1500:1537   */\n  swap1\n  pop\n    /* \"#utility.yul\":1592:1596   */\n  0x20\n    /* \"#utility.yul\":1586:1590   */\n  dup2\n    /* \"#utility.yul\":1582:1597   */\n  add\n    /* \"#utility.yul\":1574:1597   */\n  swap1\n  pop\n    /* \"#utility.yul\":1296:1604   */\n  swap2\n  swap1\n  pop\n  jump\t// out\n    /* \"#utility.yul\":1610:1917   */\ntag_30:\n    /* \"#utility.yul\":1678:1679   */\n  0x00\n    /* \"#utility.yul\":1688:1801   */\ntag_58:\n    /* \"#utility.yul\":1702:1708   */\n  dup4\n    /* \"#utility.yul\":1699:1700   */\n  dup2\n    /* \"#utility.yul\":1696:1709   */\n  lt\n    /* \"#utility.yul\":1688:1801   */\n  iszero\n  tag_60\n  jumpi\n    /* \"#utility.yul\":1787:1788   */\n  dup1\n    /* \"#utility.yul\":1782:1785   */\n  dup3\n    /* \"#utility.yul\":1778:1789   */\n  add\n    /* \"#utility.yul\":1772:1790   */\n  mload\n    /* \"#utility.yul\":1768:1769   */\n  dup2\n    /* \"#utility.yul\":1763:1766   */\n  dup5\n    /* \"#utility.yul\":1759:1770   */\n  add\n    /* \"#utility.yul\":1752:1791   */\n  mstore\n    /* \"#utility.yul\":1724:1726   */\n  0x20\n    /* \"#utility.yul\":1721:1722   */\n  dup2\n    /* \"#utility.yul\":1717:1727   */\n  add\n    /* \"#utility.yul\":1712:1727   */\n  swap1\n  pop\n    /* \"#utility.yul\":1688:1801   */\n  jump(tag_58)\ntag_60:\n    /* \"#utility.yul\":1819:1825   */\n  dup4\n    /* \"#utility.yul\":1816:1817   */\n  dup2\n    /* \"#utility.yul\":1813:1826   */\n  gt\n    /* \"#utility.yul\":1810:1911   */\n  iszero\n  tag_61\n  jumpi\n    /* \"#utility.yul\":1899:1900   */\n  0x00\n    /* \"#utility.yul\":1890:1896   */\n  dup5\n    /* \"#utility.yul\":1885:1888   */\n  dup5\n    /* \"#utility.yul\":1881:1897   */\n  add\n    /* \"#utility.yul\":1874:1901   */\n  mstore\n    /* \"#utility.yul\":1810:1911   */\ntag_61:\n    /* \"#utility.yul\":1659:1917   */\n  pop\n    /* \"#utility.yul\":1610:1917   */\n  pop\n  pop\n  pop\n  jump\t// out\n    /* \"#utility.yul\":1923:2344   */\ntag_31:\n    /* \"#utility.yul\":2012:2017   */\n  0x00\n    /* \"#utility.yul\":2037:2103   */\n  tag_63\n    /* \"#utility.yul\":2053:2102   */\n  tag_64\n    /* \"#utility.yul\":2095:2101   */\n  dup5\n    /* \"#utility.yul\":2053:2102   */\n  tag_29\n  jump\t// in\ntag_64:\n    /* \"#utility.yul\":2037:2103   */\n  tag_28\n  jump\t// in\ntag_63:\n    /* \"#utility.yul\":2028:2103   */\n  swap1\n  pop\n    /* \"#utility.yul\":2126:2132   */\n  dup3\n    /* \"#utility.yul\":2119:2124   */\n  dup2\n    /* \"#utility.yul\":2112:2133   */\n  mstore\n    /* \"#utility.yul\":2164:2168   */\n  0x20\n    /* \"#utility.yul\":2157:2162   */\n  dup2\n    /* \"#utility.yul\":2153:2169   */\n  add\n    /* \"#utility.yul\":2202:2205   */\n  dup5\n    /* \"#utility.yul\":2193:2199   */\n  dup5\n    /* \"#utility.yul\":2188:2191   */\n  dup5\n    /* \"#utility.yul\":2184:2200   */\n  add\n    /* \"#utility.yul\":2181:2206   */\n  gt\n    /* \"#utility.yul\":2178:2290   */\n  iszero\n  tag_65\n  jumpi\n    /* \"#utility.yul\":2209:2288   */\n  tag_66\n  tag_24\n  jump\t// in\ntag_66:\n    /* \"#utility.yul\":2178:2290   */\ntag_65:\n    /* \"#utility.yul\":2299:2338   */\n  tag_67\n    /* \"#utility.yul\":2331:2337   */\n  dup5\n    /* \"#utility.yul\":2326:2329   */\n  dup3\n    /* \"#utility.yul\":2321:2324   */\n  dup6\n    /* \"#utility.yul\":2299:2338   */\n  tag_30\n  jump\t// in\ntag_67:\n    /* \"#utility.yul\":2018:2344   */\n  pop\n    /* \"#utility.yul\":1923:2344   */\n  swap4\n  swap3\n  pop\n  pop\n  pop\n  jump\t// out\n    /* \"#utility.yul\":2364:2719   */\ntag_32:\n    /* \"#utility.yul\":2431:2436   */\n  0x00\n    /* \"#utility.yul\":2480:2483   */\n  dup3\n    /* \"#utility.yul\":2473:2477   */\n  0x1f\n    /* \"#utility.yul\":2465:2471   */\n  dup4\n    /* \"#utility.yul\":2461:2478   */\n  add\n    /* \"#utility.yul\":2457:2484   */\n  slt\n    /* \"#utility.yul\":2447:2569   */\n  tag_69\n  jumpi\n    /* \"#utility.yul\":2488:2567   */\n  tag_70\n  tag_23\n  jump\t// in\ntag_70:\n    /* \"#utility.yul\":2447:2569   */\ntag_69:\n    /* \"#utility.yul\":2598:2604   */\n  dup2\n    /* \"#utility.yul\":2592:2605   */\n  mload\n    /* \"#utility.yul\":2623:2713   */\n  tag_71\n    /* \"#utility.yul\":2709:2712   */\n  dup5\n    /* \"#utility.yul\":2701:2707   */\n  dup3\n    /* \"#utility.yul\":2694:2698   */\n  0x20\n    /* \"#utility.yul\":2686:2692   */\n  dup7\n    /* \"#utility.yul\":2682:2699   */\n  add\n    /* \"#utility.yul\":2623:2713   */\n  tag_31\n  jump\t// in\ntag_71:\n    /* \"#utility.yul\":2614:2713   */\n  swap2\n  pop\n    /* \"#utility.yul\":2437:2719   */\n  pop\n    /* \"#utility.yul\":2364:2719   */\n  swap3\n  swap2\n  pop\n  pop\n  jump\t// out\n    /* \"#utility.yul\":2725:2851   */\ntag_33:\n    /* \"#utility.yul\":2762:2769   */\n  0x00\n    /* \"#utility.yul\":2802:2844   */\n  0xffffffffffffffffffffffffffffffffffffffff\n    /* \"#utility.yul\":2795:2800   */\n  dup3\n    /* \"#utility.yul\":2791:2845   */\n  and\n    /* \"#utility.yul\":2780:2845   */\n  swap1\n  pop\n    /* \"#utility.yul\":2725:2851   */\n  swap2\n  swap1\n  pop\n  jump\t// out\n    /* \"#utility.yul\":2857:2953   */\ntag_34:\n    /* \"#utility.yul\":2894:2901   */\n  0x00\n    /* \"#utility.yul\":2923:2947   */\n  tag_74\n    /* \"#utility.yul\":2941:2946   */\n  dup3\n    /* \"#utility.yul\":2923:2947   */\n  tag_33\n  jump\t// in\ntag_74:\n    /* \"#utility.yul\":2912:2947   */\n  swap1\n  pop\n    /* \"#utility.yul\":2857:2953   */\n  swap2\n  swap1\n  pop\n  jump\t// out\n    /* \"#utility.yul\":2959:3081   */\ntag_35:\n    /* \"#utility.yul\":3032:3056   */\n  tag_76\n    /* \"#utility.yul\":3050:3055   */\n  dup2\n    /* \"#utility.yul\":3032:3056   */\n  tag_34\n  jump\t// in\ntag_76:\n    /* \"#utility.yul\":3025:3030   */\n  dup2\n    /* \"#utility.yul\":3022:3057   */\n  eq\n    /* \"#utility.yul\":3012:3075   */\n  tag_77\n  jumpi\n    /* \"#utility.yul\":3071:3072   */\n  0x00\n    /* \"#utility.yul\":3068:3069   */\n  dup1\n    /* \"#utility.yul\":3061:3073   */\n  revert\n    /* \"#utility.yul\":3012:3075   */\ntag_77:\n    /* \"#utility.yul\":2959:3081   */\n  pop\n  jump\t// out\n    /* \"#utility.yul\":3087:3230   */\ntag_36:\n    /* \"#utility.yul\":3144:3149   */\n  0x00\n    /* \"#utility.yul\":3175:3181   */\n  dup2\n    /* \"#utility.yul\":3169:3182   */\n  mload\n    /* \"#utility.yul\":3160:3182   */\n  swap1\n  pop\n    /* \"#utility.yul\":3191:3224   */\n  tag_79\n    /* \"#utility.yul\":3218:3223   */\n  dup2\n    /* \"#utility.yul\":3191:3224   */\n  tag_35\n  jump\t// in\ntag_79:\n    /* \"#utility.yul\":3087:3230   */\n  swap3\n  swap2\n  pop\n  pop\n  jump\t// out\n    /* \"#utility.yul\":3236:3916   */\ntag_3:\n    /* \"#utility.yul\":3325:3331   */\n  0x00\n    /* \"#utility.yul\":3333:3339   */\n  dup1\n    /* \"#utility.yul\":3382:3384   */\n  0x40\n    /* \"#utility.yul\":3370:3379   */\n  dup4\n    /* \"#utility.yul\":3361:3368   */\n  dup6\n    /* \"#utility.yul\":3357:3380   */\n  sub\n    /* \"#utility.yul\":3353:3385   */\n  slt\n    /* \"#utility.yul\":3350:3469   */\n  iszero\n  tag_81\n  jumpi\n    /* \"#utility.yul\":3388:3467   */\n  tag_82\n  tag_21\n  jump\t// in\ntag_82:\n    /* \"#utility.yul\":3350:3469   */\ntag_81:\n    /* \"#utility.yul\":3529:3530   */\n  0x00\n    /* \"#utility.yul\":3518:3527   */\n  dup4\n    /* \"#utility.yul\":3514:3531   */\n  add\n    /* \"#utility.yul\":3508:3532   */\n  mload\n    /* \"#utility.yul\":3559:3577   */\n  0xffffffffffffffff\n    /* \"#utility.yul\":3551:3557   */\n  dup2\n    /* \"#utility.yul\":3548:3578   */\n  gt\n    /* \"#utility.yul\":3545:3662   */\n  iszero\n  tag_83\n  jumpi\n    /* \"#utility.yul\":3581:3660   */\n  tag_84\n  tag_22\n  jump\t// in\ntag_84:\n    /* \"#utility.yul\":3545:3662   */\ntag_83:\n    /* \"#utility.yul\":3686:3760   */\n  tag_85\n    /* \"#utility.yul\":3752:3759   */\n  dup6\n    /* \"#utility.yul\":3743:3749   */\n  dup3\n    /* \"#utility.yul\":3732:3741   */\n  dup7\n    /* \"#utility.yul\":3728:3750   */\n  add\n    /* \"#utility.yul\":3686:3760   */\n  tag_32\n  jump\t// in\ntag_85:\n    /* \"#utility.yul\":3676:3760   */\n  swap3\n  pop\n    /* \"#utility.yul\":3479:3770   */\n  pop\n    /* \"#utility.yul\":3809:3811   */\n  0x20\n    /* \"#utility.yul\":3835:3899   */\n  tag_86\n    /* \"#utility.yul\":3891:3898   */\n  dup6\n    /* \"#utility.yul\":3882:3888   */\n  dup3\n    /* \"#utility.yul\":3871:3880   */\n  dup7\n    /* \"#utility.yul\":3867:3889   */\n  add\n    /* \"#utility.yul\":3835:3899   */\n  tag_36\n  jump\t// in\ntag_86:\n    /* \"#utility.yul\":3825:3899   */\n  swap2\n  pop\n    /* \"#utility.yul\":3780:3909   */\n  pop\n    /* \"#utility.yul\":3236:3916   */\n  swap3\n  pop\n  swap3\n  swap1\n  pop\n  jump\t// out\n    /* \"#utility.yul\":3922:4102   */\ntag_37:\n    /* \"#utility.yul\":3970:4047   */\n  0x4e487b7100000000000000000000000000000000000000000000000000000000\n    /* \"#utility.yul\":3967:3968   */\n  0x00\n    /* \"#utility.yul\":3960:4048   */\n  mstore\n    /* \"#utility.yul\":4067:4071   */\n  0x22\n    /* \"#utility.yul\":4064:4065   */\n  0x04\n    /* \"#utility.yul\":4057:4072   */\n  mstore\n    /* \"#utility.yul\":4091:4095   */\n  0x24\n    /* \"#utility.yul\":4088:4089   */\n  0x00\n    /* \"#utility.yul\":4081:4096   */\n  revert\n    /* \"#utility.yul\":4108:4428   */\ntag_10:\n    /* \"#utility.yul\":4152:4158   */\n  0x00\n    /* \"#utility.yul\":4189:4190   */\n  0x02\n    /* \"#utility.yul\":4183:4187   */\n  dup3\n    /* \"#utility.yul\":4179:4191   */\n  div\n    /* \"#utility.yul\":4169:4191   */\n  swap1\n  pop\n    /* \"#utility.yul\":4236:4237   */\n  0x01\n    /* \"#utility.yul\":4230:4234   */\n  dup3\n    /* \"#utility.yul\":4226:4238   */\n  and\n    /* \"#utility.yul\":4257:4275   */\n  dup1\n    /* \"#utility.yul\":4247:4328   */\n  tag_89\n  jumpi\n    /* \"#utility.yul\":4313:4317   */\n  0x7f\n    /* \"#utility.yul\":4305:4311   */\n  dup3\n    /* \"#utility.yul\":4301:4318   */\n  and\n    /* \"#utility.yul\":4291:4318   */\n  swap2\n  pop\n    /* \"#utility.yul\":4247:4328   */\ntag_89:\n    /* \"#utility.yul\":4375:4377   */\n  0x20\n    /* \"#utility.yul\":4367:4373   */\n  dup3\n    /* \"#utility.yul\":4364:4378   */\n  lt\n    /* \"#utility.yul\":4344:4362   */\n  dup2\n    /* \"#utility.yul\":4341:4379   */\n  eq\n    /* \"#utility.yul\":4338:4422   */\n  iszero\n  tag_90\n  jumpi\n    /* \"#utility.yul\":4394:4412   */\n  tag_91\n  tag_37\n  jump\t// in\ntag_91:\n    /* \"#utility.yul\":4338:4422   */\ntag_90:\n    /* \"#utility.yul\":4159:4428   */\n  pop\n    /* \"#utility.yul\":4108:4428   */\n  swap2\n  swap1\n  pop\n  jump\t// out\n    /* \"Organization.sol\":553:2987  contract Organization {... */\ntag_8:\n  dataSize(sub_0)\n  dup1\n  dataOffset(sub_0)\n  0x00\n  codecopy\n  0x00\n  return\nstop\n\nsub_0: assembly {\n        /* \"Organization.sol\":553:2987  contract Organization {... */\n      mstore(0x40, 0x80)\n      jumpi(tag_1, lt(calldatasize, 0x04))\n      shr(0xe0, calldataload(0x00))\n      dup1\n      0x84bd5104\n      gt\n      tag_12\n      jumpi\n      dup1\n      0x84bd5104\n      eq\n      tag_7\n      jumpi\n      dup1\n      0x97c85a61\n      eq\n      tag_8\n      jumpi\n      dup1\n      0x9ace38c2\n      eq\n      tag_9\n      jumpi\n      dup1\n      0xe5fe34af\n      eq\n      tag_10\n      jumpi\n      dup1\n      0xfbe96385\n      eq\n      tag_11\n      jumpi\n      jump(tag_1)\n    tag_12:\n      dup1\n      0x077c34a4\n      eq\n      tag_2\n      jumpi\n      dup1\n      0x12065fe0\n      eq\n      tag_3\n      jumpi\n      dup1\n      0x27b77d46\n      eq\n      tag_4\n      jumpi\n      dup1\n      0x481c6a75\n      eq\n      tag_5\n      jumpi\n      dup1\n      0x578cb8f9\n      eq\n      tag_6\n      jumpi\n    tag_1:\n      0x00\n      dup1\n      revert\n        /* \"Organization.sol\":1346:2137  function createTransaction(string memory date, string memory co2, string memory ch4, string memory n2o, string memory hfc, string memory pfc, string memory sf6, string memory creditUsedd, address org, string memory availableCredit) public restricted {... */\n    tag_2:\n      callvalue\n      dup1\n      iszero\n      tag_13\n      jumpi\n      0x00\n      dup1\n      revert\n    tag_13:\n      pop\n      tag_14\n      0x04\n      dup1\n      calldatasize\n      sub\n      dup2\n      add\n      swap1\n      tag_15\n      swap2\n      swap1\n      tag_16\n      jump\t// in\n    tag_15:\n      tag_17\n      jump\t// in\n    tag_14:\n      stop\n        /* \"Organization.sol\":2504:2748  function getBalance() public view returns(string memory, string memory, address, uint) {... */\n    tag_3:\n      callvalue\n      dup1\n      iszero\n      tag_18\n      jumpi\n      0x00\n      dup1\n      revert\n    tag_18:\n      pop\n      tag_19\n      tag_20\n      jump\t// in\n    tag_19:\n      mload(0x40)\n      tag_21\n      swap5\n      swap4\n      swap3\n      swap2\n      swap1\n      tag_22\n      jump\t// in\n    tag_21:\n      mload(0x40)\n      dup1\n      swap2\n      sub\n      swap1\n      return\n        /* \"Organization.sol\":990:1017  string public allotedCredit */\n    tag_4:\n      callvalue\n      dup1\n      iszero\n      tag_23\n      jumpi\n      0x00\n      dup1\n      revert\n    tag_23:\n      pop\n      tag_24\n      tag_25\n      jump\t// in\n    tag_24:\n      mload(0x40)\n      tag_26\n      swap2\n      swap1\n      tag_27\n      jump\t// in\n    tag_26:\n      mload(0x40)\n      dup1\n      swap2\n      sub\n      swap1\n      return\n        /* \"Organization.sol\":961:983  address public manager */\n    tag_5:\n      callvalue\n      dup1\n      iszero\n      tag_28\n      jumpi\n      0x00\n      dup1\n      revert\n    tag_28:\n      pop\n      tag_29\n      tag_30\n      jump\t// in\n    tag_29:\n      mload(0x40)\n      tag_31\n      swap2\n      swap1\n      tag_32\n      jump\t// in\n    tag_31:\n      mload(0x40)\n      dup1\n      swap2\n      sub\n      swap1\n      return\n        /* \"Organization.sol\":2756:2860  function getTransactionsCount() public view returns (uint) {... */\n    tag_6:\n      callvalue\n      dup1\n      iszero\n      tag_33\n      jumpi\n      0x00\n      dup1\n      revert\n    tag_33:\n      pop\n      tag_34\n      tag_35\n      jump\t// in\n    tag_34:\n      mload(0x40)\n      tag_36\n      swap2\n      swap1\n      tag_37\n      jump\t// in\n    tag_36:\n      mload(0x40)\n      dup1\n      swap2\n      sub\n      swap1\n      return\n        /* \"Organization.sol\":1024:1048  string public creditUsed */\n    tag_7:\n      callvalue\n      dup1\n      iszero\n      tag_38\n      jumpi\n      0x00\n      dup1\n      revert\n    tag_38:\n      pop\n      tag_39\n      tag_40\n      jump\t// in\n    tag_39:\n      mload(0x40)\n      tag_41\n      swap2\n      swap1\n      tag_27\n      jump\t// in\n    tag_41:\n      mload(0x40)\n      dup1\n      swap2\n      sub\n      swap1\n      return\n        /* \"Organization.sol\":2145:2496  function approveTransaction(uint index, string memory creditUseddd) public payable {... */\n    tag_8:\n      tag_42\n      0x04\n      dup1\n      calldatasize\n      sub\n      dup2\n      add\n      swap1\n      tag_43\n      swap2\n      swap1\n      tag_44\n      jump\t// in\n    tag_43:\n      tag_45\n      jump\t// in\n    tag_42:\n      stop\n        /* \"Organization.sol\":873:906  Transaction[] public transactions */\n    tag_9:\n      callvalue\n      dup1\n      iszero\n      tag_46\n      jumpi\n      0x00\n      dup1\n      revert\n    tag_46:\n      pop\n      tag_47\n      0x04\n      dup1\n      calldatasize\n      sub\n      dup2\n      add\n      swap1\n      tag_48\n      swap2\n      swap1\n      tag_49\n      jump\t// in\n    tag_48:\n      tag_50\n      jump\t// in\n    tag_47:\n      mload(0x40)\n      tag_51\n      swap12\n      swap11\n      swap10\n      swap9\n      swap8\n      swap7\n      swap6\n      swap5\n      swap4\n      swap3\n      swap2\n      swap1\n      tag_52\n      jump\t// in\n    tag_51:\n      mload(0x40)\n      dup1\n      swap2\n      sub\n      swap1\n      return\n        /* \"Organization.sol\":913:954  Transaction[] public approvedTransactions */\n    tag_10:\n      callvalue\n      dup1\n      iszero\n      tag_53\n      jumpi\n      0x00\n      dup1\n      revert\n    tag_53:\n      pop\n      tag_54\n      0x04\n      dup1\n      calldatasize\n      sub\n      dup2\n      add\n      swap1\n      tag_55\n      swap2\n      swap1\n      tag_49\n      jump\t// in\n    tag_55:\n      tag_56\n      jump\t// in\n    tag_54:\n      mload(0x40)\n      tag_57\n      swap12\n      swap11\n      swap10\n      swap9\n      swap8\n      swap7\n      swap6\n      swap5\n      swap4\n      swap3\n      swap2\n      swap1\n      tag_52\n      jump\t// in\n    tag_57:\n      mload(0x40)\n      dup1\n      swap2\n      sub\n      swap1\n      return\n        /* \"Organization.sol\":2866:2984  function getApprovedTransactionCount() public view returns (uint){... */\n    tag_11:\n      callvalue\n      dup1\n      iszero\n      tag_58\n      jumpi\n      0x00\n      dup1\n      revert\n    tag_58:\n      pop\n      tag_59\n      tag_60\n      jump\t// in\n    tag_59:\n      mload(0x40)\n      tag_61\n      swap2\n      swap1\n      tag_37\n      jump\t// in\n    tag_61:\n      mload(0x40)\n      dup1\n      swap2\n      sub\n      swap1\n      return\n        /* \"Organization.sol\":1346:2137  function createTransaction(string memory date, string memory co2, string memory ch4, string memory n2o, string memory hfc, string memory pfc, string memory sf6, string memory creditUsedd, address org, string memory availableCredit) public restricted {... */\n    tag_17:\n        /* \"Organization.sol\":1180:1187  manager */\n      0x02\n      0x00\n      swap1\n      sload\n      swap1\n      0x0100\n      exp\n      swap1\n      div\n      0xffffffffffffffffffffffffffffffffffffffff\n      and\n        /* \"Organization.sol\":1166:1187  msg.sender == manager */\n      0xffffffffffffffffffffffffffffffffffffffff\n      and\n        /* \"Organization.sol\":1166:1176  msg.sender */\n      caller\n        /* \"Organization.sol\":1166:1187  msg.sender == manager */\n      0xffffffffffffffffffffffffffffffffffffffff\n      and\n      eq\n        /* \"Organization.sol\":1158:1188  require(msg.sender == manager) */\n      tag_63\n      jumpi\n      0x00\n      dup1\n      revert\n    tag_63:\n        /* \"Organization.sol\":1607:1641  Transaction storage newTransaction */\n      0x00\n        /* \"Organization.sol\":1644:1656  transactions */\n      dup1\n        /* \"Organization.sol\":1644:1663  transactions.push() */\n      0x01\n      dup2\n      0x01\n      dup2\n      sload\n      add\n      dup1\n      dup3\n      sstore\n      dup1\n      swap2\n      pop\n      pop\n      sub\n      swap1\n      0x00\n      mstore\n      keccak256(0x00, 0x20)\n      swap1\n      0x0a\n      mul\n      add\n        /* \"Organization.sol\":1607:1663  Transaction storage newTransaction = transactions.push() */\n      swap1\n      pop\n        /* \"Organization.sol\":1696:1700  date */\n      dup11\n        /* \"Organization.sol\":1674:1688  newTransaction */\n      dup2\n        /* \"Organization.sol\":1674:1693  newTransaction.date */\n      0x00\n      add\n        /* \"Organization.sol\":1674:1700  newTransaction.date = date */\n      swap1\n      dup1\n      mload\n      swap1\n      0x20\n      add\n      swap1\n      tag_66\n      swap3\n      swap2\n      swap1\n      tag_67\n      jump\t// in\n    tag_66:\n      pop\n        /* \"Organization.sol\":1732:1735  co2 */\n      dup10\n        /* \"Organization.sol\":1711:1725  newTransaction */\n      dup2\n        /* \"Organization.sol\":1711:1729  newTransaction.co2 */\n      0x01\n      add\n        /* \"Organization.sol\":1711:1735  newTransaction.co2 = co2 */\n      swap1\n      dup1\n      mload\n      swap1\n      0x20\n      add\n      swap1\n      tag_68\n      swap3\n      swap2\n      swap1\n      tag_67\n      jump\t// in\n    tag_68:\n      pop\n        /* \"Organization.sol\":1767:1770  ch4 */\n      dup9\n        /* \"Organization.sol\":1746:1760  newTransaction */\n      dup2\n        /* \"Organization.sol\":1746:1764  newTransaction.ch4 */\n      0x02\n      add\n        /* \"Organization.sol\":1746:1770  newTransaction.ch4 = ch4 */\n      swap1\n      dup1\n      mload\n      swap1\n      0x20\n      add\n      swap1\n      tag_69\n      swap3\n      swap2\n      swap1\n      tag_67\n      jump\t// in\n    tag_69:\n      pop\n        /* \"Organization.sol\":1802:1805  n2o */\n      dup8\n        /* \"Organization.sol\":1781:1795  newTransaction */\n      dup2\n        /* \"Organization.sol\":1781:1799  newTransaction.n2o */\n      0x03\n      add\n        /* \"Organization.sol\":1781:1805  newTransaction.n2o = n2o */\n      swap1\n      dup1\n      mload\n      swap1\n      0x20\n      add\n      swap1\n      tag_70\n      swap3\n      swap2\n      swap1\n      tag_67\n      jump\t// in\n    tag_70:\n      pop\n        /* \"Organization.sol\":1837:1840  hfc */\n      dup7\n        /* \"Organization.sol\":1816:1830  newTransaction */\n      dup2\n        /* \"Organization.sol\":1816:1834  newTransaction.hfc */\n      0x04\n      add\n        /* \"Organization.sol\":1816:1840  newTransaction.hfc = hfc */\n      swap1\n      dup1\n      mload\n      swap1\n      0x20\n      add\n      swap1\n      tag_71\n      swap3\n      swap2\n      swap1\n      tag_67\n      jump\t// in\n    tag_71:\n      pop\n        /* \"Organization.sol\":1872:1875  pfc */\n      dup6\n        /* \"Organization.sol\":1851:1865  newTransaction */\n      dup2\n        /* \"Organization.sol\":1851:1869  newTransaction.pfc */\n      0x05\n      add\n        /* \"Organization.sol\":1851:1875  newTransaction.pfc = pfc */\n      swap1\n      dup1\n      mload\n      swap1\n      0x20\n      add\n      swap1\n      tag_72\n      swap3\n      swap2\n      swap1\n      tag_67\n      jump\t// in\n    tag_72:\n      pop\n        /* \"Organization.sol\":1907:1910  sf6 */\n      dup5\n        /* \"Organization.sol\":1886:1900  newTransaction */\n      dup2\n        /* \"Organization.sol\":1886:1904  newTransaction.sf6 */\n      0x06\n      add\n        /* \"Organization.sol\":1886:1910  newTransaction.sf6 = sf6 */\n      swap1\n      dup1\n      mload\n      swap1\n      0x20\n      add\n      swap1\n      tag_73\n      swap3\n      swap2\n      swap1\n      tag_67\n      jump\t// in\n    tag_73:\n      pop\n        /* \"Organization.sol\":1950:1961  creditUsedd */\n      dup4\n        /* \"Organization.sol\":1921:1935  newTransaction */\n      dup2\n        /* \"Organization.sol\":1921:1947  newTransaction.creditUsedd */\n      0x07\n      add\n        /* \"Organization.sol\":1921:1961  newTransaction.creditUsedd = creditUsedd */\n      swap1\n      dup1\n      mload\n      swap1\n      0x20\n      add\n      swap1\n      tag_74\n      swap3\n      swap2\n      swap1\n      tag_67\n      jump\t// in\n    tag_74:\n      pop\n        /* \"Organization.sol\":1998:2003  false */\n      0x00\n        /* \"Organization.sol\":1972:1986  newTransaction */\n      dup2\n        /* \"Organization.sol\":1972:1995  newTransaction.complete */\n      0x09\n      add\n      0x14\n        /* \"Organization.sol\":1972:2003  newTransaction.complete = false */\n      0x0100\n      exp\n      dup2\n      sload\n      dup2\n      0xff\n      mul\n      not\n      and\n      swap1\n      dup4\n      iszero\n      iszero\n      mul\n      or\n      swap1\n      sstore\n      pop\n        /* \"Organization.sol\":2035:2038  org */\n      dup3\n        /* \"Organization.sol\":2014:2028  newTransaction */\n      dup2\n        /* \"Organization.sol\":2014:2032  newTransaction.org */\n      0x09\n      add\n      0x00\n        /* \"Organization.sol\":2014:2038  newTransaction.org = org */\n      0x0100\n      exp\n      dup2\n      sload\n      dup2\n      0xffffffffffffffffffffffffffffffffffffffff\n      mul\n      not\n      and\n      swap1\n      dup4\n      0xffffffffffffffffffffffffffffffffffffffff\n      and\n      mul\n      or\n      swap1\n      sstore\n      pop\n        /* \"Organization.sol\":2082:2097  availableCredit */\n      dup2\n        /* \"Organization.sol\":2049:2063  newTransaction */\n      dup2\n        /* \"Organization.sol\":2049:2079  newTransaction.availableCredit */\n      0x08\n      add\n        /* \"Organization.sol\":2049:2097  newTransaction.availableCredit = availableCredit */\n      swap1\n      dup1\n      mload\n      swap1\n      0x20\n      add\n      swap1\n      tag_75\n      swap3\n      swap2\n      swap1\n      tag_67\n      jump\t// in\n    tag_75:\n      pop\n        /* \"Organization.sol\":2128:2129  1 */\n      0x01\n        /* \"Organization.sol\":2108:2124  pendingApprovals */\n      0x05\n      0x00\n        /* \"Organization.sol\":2108:2129  pendingApprovals += 1 */\n      dup3\n      dup3\n      sload\n      tag_76\n      swap2\n      swap1\n      tag_77\n      jump\t// in\n    tag_76:\n      swap3\n      pop\n      pop\n      dup2\n      swap1\n      sstore\n      pop\n        /* \"Organization.sol\":1596:2137  {... */\n      pop\n        /* \"Organization.sol\":1346:2137  function createTransaction(string memory date, string memory co2, string memory ch4, string memory n2o, string memory hfc, string memory pfc, string memory sf6, string memory creditUsedd, address org, string memory availableCredit) public restricted {... */\n      pop\n      pop\n      pop\n      pop\n      pop\n      pop\n      pop\n      pop\n      pop\n      pop\n      jump\t// out\n        /* \"Organization.sol\":2504:2748  function getBalance() public view returns(string memory, string memory, address, uint) {... */\n    tag_20:\n        /* \"Organization.sol\":2546:2559  string memory */\n      0x60\n        /* \"Organization.sol\":2561:2574  string memory */\n      dup1\n        /* \"Organization.sol\":2576:2583  address */\n      0x00\n        /* \"Organization.sol\":2585:2589  uint */\n      dup1\n        /* \"Organization.sol\":2624:2637  allotedCredit */\n      0x03\n        /* \"Organization.sol\":2652:2662  creditUsed */\n      0x04\n        /* \"Organization.sol\":2677:2684  manager */\n      0x02\n      0x00\n      swap1\n      sload\n      swap1\n      0x0100\n      exp\n      swap1\n      div\n      0xffffffffffffffffffffffffffffffffffffffff\n      and\n        /* \"Organization.sol\":2699:2715  pendingApprovals */\n      sload(0x05)\n        /* \"Organization.sol\":2602:2740  return (... */\n      dup4\n      dup1\n      sload\n      tag_79\n      swap1\n      tag_80\n      jump\t// in\n    tag_79:\n      dup1\n      0x1f\n      add\n      0x20\n      dup1\n      swap2\n      div\n      mul\n      0x20\n      add\n      mload(0x40)\n      swap1\n      dup2\n      add\n      0x40\n      mstore\n      dup1\n      swap3\n      swap2\n      swap1\n      dup2\n      dup2\n      mstore\n      0x20\n      add\n      dup3\n      dup1\n      sload\n      tag_81\n      swap1\n      tag_80\n      jump\t// in\n    tag_81:\n      dup1\n      iszero\n      tag_82\n      jumpi\n      dup1\n      0x1f\n      lt\n      tag_83\n      jumpi\n      0x0100\n      dup1\n      dup4\n      sload\n      div\n      mul\n      dup4\n      mstore\n      swap2\n      0x20\n      add\n      swap2\n      jump(tag_82)\n    tag_83:\n      dup3\n      add\n      swap2\n      swap1\n      0x00\n      mstore\n      keccak256(0x00, 0x20)\n      swap1\n    tag_84:\n      dup2\n      sload\n      dup2\n      mstore\n      swap1\n      0x01\n      add\n      swap1\n      0x20\n      add\n      dup1\n      dup4\n      gt\n      tag_84\n      jumpi\n      dup3\n      swap1\n      sub\n      0x1f\n      and\n      dup3\n      add\n      swap2\n    tag_82:\n      pop\n      pop\n      pop\n      pop\n      pop\n      swap4\n      pop\n      dup3\n      dup1\n      sload\n      tag_85\n      swap1\n      tag_80\n      jump\t// in\n    tag_85:\n      dup1\n      0x1f\n      add\n      0x20\n      dup1\n      swap2\n      div\n      mul\n      0x20\n      add\n      mload(0x40)\n      swap1\n      dup2\n      add\n      0x40\n      mstore\n      dup1\n      swap3\n      swap2\n      swap1\n      dup2\n      dup2\n      mstore\n      0x20\n      add\n      dup3\n      dup1\n      sload\n      tag_86\n      swap1\n      tag_80\n      jump\t// in\n    tag_86:\n      dup1\n      iszero\n      tag_87\n      jumpi\n      dup1\n      0x1f\n      lt\n      tag_88\n      jumpi\n      0x0100\n      dup1\n      dup4\n      sload\n      div\n      mul\n      dup4\n      mstore\n      swap2\n      0x20\n      add\n      swap2\n      jump(tag_87)\n    tag_88:\n      dup3\n      add\n      swap2\n      swap1\n      0x00\n      mstore\n      keccak256(0x00, 0x20)\n      swap1\n    tag_89:\n      dup2\n      sload\n      dup2\n      mstore\n      swap1\n      0x01\n      add\n      swap1\n      0x20\n      add\n      dup1\n      dup4\n      gt\n      tag_89\n      jumpi\n      dup3\n      swap1\n      sub\n      0x1f\n      and\n      dup3\n      add\n      swap2\n    tag_87:\n      pop\n      pop\n      pop\n      pop\n      pop\n      swap3\n      pop\n      swap4\n      pop\n      swap4\n      pop\n      swap4\n      pop\n      swap4\n      pop\n        /* \"Organization.sol\":2504:2748  function getBalance() public view returns(string memory, string memory, address, uint) {... */\n      swap1\n      swap2\n      swap3\n      swap4\n      jump\t// out\n        /* \"Organization.sol\":990:1017  string public allotedCredit */\n    tag_25:\n      0x03\n      dup1\n      sload\n      tag_90\n      swap1\n      tag_80\n      jump\t// in\n    tag_90:\n      dup1\n      0x1f\n      add\n      0x20\n      dup1\n      swap2\n      div\n      mul\n      0x20\n      add\n      mload(0x40)\n      swap1\n      dup2\n      add\n      0x40\n      mstore\n      dup1\n      swap3\n      swap2\n      swap1\n      dup2\n      dup2\n      mstore\n      0x20\n      add\n      dup3\n      dup1\n      sload\n      tag_91\n      swap1\n      tag_80\n      jump\t// in\n    tag_91:\n      dup1\n      iszero\n      tag_92\n      jumpi\n      dup1\n      0x1f\n      lt\n      tag_93\n      jumpi\n      0x0100\n      dup1\n      dup4\n      sload\n      div\n      mul\n      dup4\n      mstore\n      swap2\n      0x20\n      add\n      swap2\n      jump(tag_92)\n    tag_93:\n      dup3\n      add\n      swap2\n      swap1\n      0x00\n      mstore\n      keccak256(0x00, 0x20)\n      swap1\n    tag_94:\n      dup2\n      sload\n      dup2\n      mstore\n      swap1\n      0x01\n      add\n      swap1\n      0x20\n      add\n      dup1\n      dup4\n      gt\n      tag_94\n      jumpi\n      dup3\n      swap1\n      sub\n      0x1f\n      and\n      dup3\n      add\n      swap2\n    tag_92:\n      pop\n      pop\n      pop\n      pop\n      pop\n      dup2\n      jump\t// out\n        /* \"Organization.sol\":961:983  address public manager */\n    tag_30:\n      0x02\n      0x00\n      swap1\n      sload\n      swap1\n      0x0100\n      exp\n      swap1\n      div\n      0xffffffffffffffffffffffffffffffffffffffff\n      and\n      dup2\n      jump\t// out\n        /* \"Organization.sol\":2756:2860  function getTransactionsCount() public view returns (uint) {... */\n    tag_35:\n        /* \"Organization.sol\":2809:2813  uint */\n      0x00\n        /* \"Organization.sol\":2833:2845  transactions */\n      dup1\n        /* \"Organization.sol\":2833:2852  transactions.length */\n      dup1\n      sload\n      swap1\n      pop\n        /* \"Organization.sol\":2826:2852  return transactions.length */\n      swap1\n      pop\n        /* \"Organization.sol\":2756:2860  function getTransactionsCount() public view returns (uint) {... */\n      swap1\n      jump\t// out\n        /* \"Organization.sol\":1024:1048  string public creditUsed */\n    tag_40:\n      0x04\n      dup1\n      sload\n      tag_96\n      swap1\n      tag_80\n      jump\t// in\n    tag_96:\n      dup1\n      0x1f\n      add\n      0x20\n      dup1\n      swap2\n      div\n      mul\n      0x20\n      add\n      mload(0x40)\n      swap1\n      dup2\n      add\n      0x40\n      mstore\n      dup1\n      swap3\n      swap2\n      swap1\n      dup2\n      dup2\n      mstore\n      0x20\n      add\n      dup3\n      dup1\n      sload\n      tag_97\n      swap1\n      tag_80\n      jump\t// in\n    tag_97:\n      dup1\n      iszero\n      tag_98\n      jumpi\n      dup1\n      0x1f\n      lt\n      tag_99\n      jumpi\n      0x0100\n      dup1\n      dup4\n      sload\n      div\n      mul\n      dup4\n      mstore\n      swap2\n      0x20\n      add\n      swap2\n      jump(tag_98)\n    tag_99:\n      dup3\n      add\n      swap2\n      swap1\n      0x00\n      mstore\n      keccak256(0x00, 0x20)\n      swap1\n    tag_100:\n      dup2\n      sload\n      dup2\n      mstore\n      swap1\n      0x01\n      add\n      swap1\n      0x20\n      add\n      dup1\n      dup4\n      gt\n      tag_100\n      jumpi\n      dup3\n      swap1\n      sub\n      0x1f\n      and\n      dup3\n      add\n      swap2\n    tag_98:\n      pop\n      pop\n      pop\n      pop\n      pop\n      dup2\n      jump\t// out\n        /* \"Organization.sol\":2145:2496  function approveTransaction(uint index, string memory creditUseddd) public payable {... */\n    tag_45:\n        /* \"Organization.sol\":2239:2270  Transaction storage transaction */\n      0x00\n        /* \"Organization.sol\":2273:2285  transactions */\n      dup1\n        /* \"Organization.sol\":2286:2291  index */\n      dup4\n        /* \"Organization.sol\":2273:2292  transactions[index] */\n      dup2\n      sload\n      dup2\n      lt\n      tag_102\n      jumpi\n      tag_103\n      tag_104\n      jump\t// in\n    tag_103:\n    tag_102:\n      swap1\n      0x00\n      mstore\n      keccak256(0x00, 0x20)\n      swap1\n      0x0a\n      mul\n      add\n        /* \"Organization.sol\":2239:2292  Transaction storage transaction = transactions[index] */\n      swap1\n      pop\n        /* \"Organization.sol\":2312:2323  transaction */\n      dup1\n        /* \"Organization.sol\":2312:2332  transaction.complete */\n      0x09\n      add\n      0x14\n      swap1\n      sload\n      swap1\n      0x0100\n      exp\n      swap1\n      div\n      0xff\n      and\n        /* \"Organization.sol\":2311:2332  !transaction.complete */\n      iszero\n        /* \"Organization.sol\":2303:2333  require(!transaction.complete) */\n      tag_106\n      jumpi\n      0x00\n      dup1\n      revert\n    tag_106:\n        /* \"Organization.sol\":2357:2369  creditUseddd */\n      dup2\n        /* \"Organization.sol\":2344:2354  creditUsed */\n      0x04\n        /* \"Organization.sol\":2344:2369  creditUsed = creditUseddd */\n      swap1\n      dup1\n      mload\n      swap1\n      0x20\n      add\n      swap1\n      tag_107\n      swap3\n      swap2\n      swap1\n      tag_67\n      jump\t// in\n    tag_107:\n      pop\n        /* \"Organization.sol\":2403:2407  true */\n      0x01\n        /* \"Organization.sol\":2380:2391  transaction */\n      dup2\n        /* \"Organization.sol\":2380:2400  transaction.complete */\n      0x09\n      add\n      0x14\n        /* \"Organization.sol\":2380:2407  transaction.complete = true */\n      0x0100\n      exp\n      dup2\n      sload\n      dup2\n      0xff\n      mul\n      not\n      and\n      swap1\n      dup4\n      iszero\n      iszero\n      mul\n      or\n      swap1\n      sstore\n      pop\n        /* \"Organization.sol\":2418:2438  approvedTransactions */\n      0x01\n        /* \"Organization.sol\":2444:2455  transaction */\n      dup2\n        /* \"Organization.sol\":2418:2456  approvedTransactions.push(transaction) */\n      swap1\n      dup1\n      0x01\n      dup2\n      sload\n      add\n      dup1\n      dup3\n      sstore\n      dup1\n      swap2\n      pop\n      pop\n      0x01\n      swap1\n      sub\n      swap1\n      0x00\n      mstore\n      keccak256(0x00, 0x20)\n      swap1\n      0x0a\n      mul\n      add\n      0x00\n      swap1\n      swap2\n      swap1\n      swap2\n      swap1\n      swap2\n      pop\n      0x00\n      dup3\n      add\n      dup2\n      0x00\n      add\n      swap1\n      dup1\n      sload\n      tag_109\n      swap1\n      tag_80\n      jump\t// in\n    tag_109:\n      tag_110\n      swap3\n      swap2\n      swap1\n      tag_111\n      jump\t// in\n    tag_110:\n      pop\n      0x01\n      dup3\n      add\n      dup2\n      0x01\n      add\n      swap1\n      dup1\n      sload\n      tag_112\n      swap1\n      tag_80\n      jump\t// in\n    tag_112:\n      tag_113\n      swap3\n      swap2\n      swap1\n      tag_111\n      jump\t// in\n    tag_113:\n      pop\n      0x02\n      dup3\n      add\n      dup2\n      0x02\n      add\n      swap1\n      dup1\n      sload\n      tag_114\n      swap1\n      tag_80\n      jump\t// in\n    tag_114:\n      tag_115\n      swap3\n      swap2\n      swap1\n      tag_111\n      jump\t// in\n    tag_115:\n      pop\n      0x03\n      dup3\n      add\n      dup2\n      0x03\n      add\n      swap1\n      dup1\n      sload\n      tag_116\n      swap1\n      tag_80\n      jump\t// in\n    tag_116:\n      tag_117\n      swap3\n      swap2\n      swap1\n      tag_111\n      jump\t// in\n    tag_117:\n      pop\n      0x04\n      dup3\n      add\n      dup2\n      0x04\n      add\n      swap1\n      dup1\n      sload\n      tag_118\n      swap1\n      tag_80\n      jump\t// in\n    tag_118:\n      tag_119\n      swap3\n      swap2\n      swap1\n      tag_111\n      jump\t// in\n    tag_119:\n      pop\n      0x05\n      dup3\n      add\n      dup2\n      0x05\n      add\n      swap1\n      dup1\n      sload\n      tag_120\n      swap1\n      tag_80\n      jump\t// in\n    tag_120:\n      tag_121\n      swap3\n      swap2\n      swap1\n      tag_111\n      jump\t// in\n    tag_121:\n      pop\n      0x06\n      dup3\n      add\n      dup2\n      0x06\n      add\n      swap1\n      dup1\n      sload\n      tag_122\n      swap1\n      tag_80\n      jump\t// in\n    tag_122:\n      tag_123\n      swap3\n      swap2\n      swap1\n      tag_111\n      jump\t// in\n    tag_123:\n      pop\n      0x07\n      dup3\n      add\n      dup2\n      0x07\n      add\n      swap1\n      dup1\n      sload\n      tag_124\n      swap1\n      tag_80\n      jump\t// in\n    tag_124:\n      tag_125\n      swap3\n      swap2\n      swap1\n      tag_111\n      jump\t// in\n    tag_125:\n      pop\n      0x08\n      dup3\n      add\n      dup2\n      0x08\n      add\n      swap1\n      dup1\n      sload\n      tag_126\n      swap1\n      tag_80\n      jump\t// in\n    tag_126:\n      tag_127\n      swap3\n      swap2\n      swap1\n      tag_111\n      jump\t// in\n    tag_127:\n      pop\n      0x09\n      dup3\n      add\n      0x00\n      swap1\n      sload\n      swap1\n      0x0100\n      exp\n      swap1\n      div\n      0xffffffffffffffffffffffffffffffffffffffff\n      and\n      dup2\n      0x09\n      add\n      exp(0x0100, 0x00)\n      dup2\n      sload\n      dup2\n      0xffffffffffffffffffffffffffffffffffffffff\n      mul\n      not\n      and\n      swap1\n      dup4\n      0xffffffffffffffffffffffffffffffffffffffff\n      and\n      mul\n      or\n      swap1\n      sstore\n      pop\n      0x09\n      dup3\n      add\n      0x14\n      swap1\n      sload\n      swap1\n      0x0100\n      exp\n      swap1\n      div\n      0xff\n      and\n      dup2\n      0x09\n      add\n      exp(0x0100, 0x14)\n      dup2\n      sload\n      dup2\n      0xff\n      mul\n      not\n      and\n      swap1\n      dup4\n      iszero\n      iszero\n      mul\n      or\n      swap1\n      sstore\n      pop\n      pop\n      pop\n        /* \"Organization.sol\":2487:2488  1 */\n      0x01\n        /* \"Organization.sol\":2467:2483  pendingApprovals */\n      0x05\n      0x00\n        /* \"Organization.sol\":2467:2488  pendingApprovals -= 1 */\n      dup3\n      dup3\n      sload\n      tag_128\n      swap2\n      swap1\n      tag_129\n      jump\t// in\n    tag_128:\n      swap3\n      pop\n      pop\n      dup2\n      swap1\n      sstore\n      pop\n        /* \"Organization.sol\":2228:2496  {... */\n      pop\n        /* \"Organization.sol\":2145:2496  function approveTransaction(uint index, string memory creditUseddd) public payable {... */\n      pop\n      pop\n      jump\t// out\n        /* \"Organization.sol\":873:906  Transaction[] public transactions */\n    tag_50:\n      0x00\n      dup2\n      dup2\n      sload\n      dup2\n      lt\n      tag_130\n      jumpi\n      0x00\n      dup1\n      revert\n    tag_130:\n      swap1\n      0x00\n      mstore\n      keccak256(0x00, 0x20)\n      swap1\n      0x0a\n      mul\n      add\n      0x00\n      swap2\n      pop\n      swap1\n      pop\n      dup1\n      0x00\n      add\n      dup1\n      sload\n      tag_132\n      swap1\n      tag_80\n      jump\t// in\n    tag_132:\n      dup1\n      0x1f\n      add\n      0x20\n      dup1\n      swap2\n      div\n      mul\n      0x20\n      add\n      mload(0x40)\n      swap1\n      dup2\n      add\n      0x40\n      mstore\n      dup1\n      swap3\n      swap2\n      swap1\n      dup2\n      dup2\n      mstore\n      0x20\n      add\n      dup3\n      dup1\n      sload\n      tag_133\n      swap1\n      tag_80\n      jump\t// in\n    tag_133:\n      dup1\n      iszero\n      tag_134\n      jumpi\n      dup1\n      0x1f\n      lt\n      tag_135\n      jumpi\n      0x0100\n      dup1\n      dup4\n      sload\n      div\n      mul\n      dup4\n      mstore\n      swap2\n      0x20\n      add\n      swap2\n      jump(tag_134)\n    tag_135:\n      dup3\n      add\n      swap2\n      swap1\n      0x00\n      mstore\n      keccak256(0x00, 0x20)\n      swap1\n    tag_136:\n      dup2\n      sload\n      dup2\n      mstore\n      swap1\n      0x01\n      add\n      swap1\n      0x20\n      add\n      dup1\n      dup4\n      gt\n      tag_136\n      jumpi\n      dup3\n      swap1\n      sub\n      0x1f\n      and\n      dup3\n      add\n      swap2\n    tag_134:\n      pop\n      pop\n      pop\n      pop\n      pop\n      swap1\n      dup1\n      0x01\n      add\n      dup1\n      sload\n      tag_137\n      swap1\n      tag_80\n      jump\t// in\n    tag_137:\n      dup1\n      0x1f\n      add\n      0x20\n      dup1\n      swap2\n      div\n      mul\n      0x20\n      add\n      mload(0x40)\n      swap1\n      dup2\n      add\n      0x40\n      mstore\n      dup1\n      swap3\n      swap2\n      swap1\n      dup2\n      dup2\n      mstore\n      0x20\n      add\n      dup3\n      dup1\n      sload\n      tag_138\n      swap1\n      tag_80\n      jump\t// in\n    tag_138:\n      dup1\n      iszero\n      tag_139\n      jumpi\n      dup1\n      0x1f\n      lt\n      tag_140\n      jumpi\n      0x0100\n      dup1\n      dup4\n      sload\n      div\n      mul\n      dup4\n      mstore\n      swap2\n      0x20\n      add\n      swap2\n      jump(tag_139)\n    tag_140:\n      dup3\n      add\n      swap2\n      swap1\n      0x00\n      mstore\n      keccak256(0x00, 0x20)\n      swap1\n    tag_141:\n      dup2\n      sload\n      dup2\n      mstore\n      swap1\n      0x01\n      add\n      swap1\n      0x20\n      add\n      dup1\n      dup4\n      gt\n      tag_141\n      jumpi\n      dup3\n      swap1\n      sub\n      0x1f\n      and\n      dup3\n      add\n      swap2\n    tag_139:\n      pop\n      pop\n      pop\n      pop\n      pop\n      swap1\n      dup1\n      0x02\n      add\n      dup1\n      sload\n      tag_142\n      swap1\n      tag_80\n      jump\t// in\n    tag_142:\n      dup1\n      0x1f\n      add\n      0x20\n      dup1\n      swap2\n      div\n      mul\n      0x20\n      add\n      mload(0x40)\n      swap1\n      dup2\n      add\n      0x40\n      mstore\n      dup1\n      swap3\n      swap2\n      swap1\n      dup2\n      dup2\n      mstore\n      0x20\n      add\n      dup3\n      dup1\n      sload\n      tag_143\n      swap1\n      tag_80\n      jump\t// in\n    tag_143:\n      dup1\n      iszero\n      tag_144\n      jumpi\n      dup1\n      0x1f\n      lt\n      tag_145\n      jumpi\n      0x0100\n      dup1\n      dup4\n      sload\n      div\n      mul\n      dup4\n      mstore\n      swap2\n      0x20\n      add\n      swap2\n      jump(tag_144)\n    tag_145:\n      dup3\n      add\n      swap2\n      swap1\n      0x00\n      mstore\n      keccak256(0x00, 0x20)\n      swap1\n    tag_146:\n      dup2\n      sload\n      dup2\n      mstore\n      swap1\n      0x01\n      add\n      swap1\n      0x20\n      add\n      dup1\n      dup4\n      gt\n      tag_146\n      jumpi\n      dup3\n      swap1\n      sub\n      0x1f\n      and\n      dup3\n      add\n      swap2\n    tag_144:\n      pop\n      pop\n      pop\n      pop\n      pop\n      swap1\n      dup1\n      0x03\n      add\n      dup1\n      sload\n      tag_147\n      swap1\n      tag_80\n      jump\t// in\n    tag_147:\n      dup1\n      0x1f\n      add\n      0x20\n      dup1\n      swap2\n      div\n      mul\n      0x20\n      add\n      mload(0x40)\n      swap1\n      dup2\n      add\n      0x40\n      mstore\n      dup1\n      swap3\n      swap2\n      swap1\n      dup2\n      dup2\n      mstore\n      0x20\n      add\n      dup3\n      dup1\n      sload\n      tag_148\n      swap1\n      tag_80\n      jump\t// in\n    tag_148:\n      dup1\n      iszero\n      tag_149\n      jumpi\n      dup1\n      0x1f\n      lt\n      tag_150\n      jumpi\n      0x0100\n      dup1\n      dup4\n      sload\n      div\n      mul\n      dup4\n      mstore\n      swap2\n      0x20\n      add\n      swap2\n      jump(tag_149)\n    tag_150:\n      dup3\n      add\n      swap2\n      swap1\n      0x00\n      mstore\n      keccak256(0x00, 0x20)\n      swap1\n    tag_151:\n      dup2\n      sload\n      dup2\n      mstore\n      swap1\n      0x01\n      add\n      swap1\n      0x20\n      add\n      dup1\n      dup4\n      gt\n      tag_151\n      jumpi\n      dup3\n      swap1\n      sub\n      0x1f\n      and\n      dup3\n      add\n      swap2\n    tag_149:\n      pop\n      pop\n      pop\n      pop\n      pop\n      swap1\n      dup1\n      0x04\n      add\n      dup1\n      sload\n      tag_152\n      swap1\n      tag_80\n      jump\t// in\n    tag_152:\n      dup1\n      0x1f\n      add\n      0x20\n      dup1\n      swap2\n      div\n      mul\n      0x20\n      add\n      mload(0x40)\n      swap1\n      dup2\n      add\n      0x40\n      mstore\n      dup1\n      swap3\n      swap2\n      swap1\n      dup2\n      dup2\n      mstore\n      0x20\n      add\n      dup3\n      dup1\n      sload\n      tag_153\n      swap1\n      tag_80\n      jump\t// in\n    tag_153:\n      dup1\n      iszero\n      tag_154\n      jumpi\n      dup1\n      0x1f\n      lt\n      tag_155\n      jumpi\n      0x0100\n      dup1\n      dup4\n      sload\n      div\n      mul\n      dup4\n      mstore\n      swap2\n      0x20\n      add\n      swap2\n      jump(tag_154)\n    tag_155:\n      dup3\n      add\n      swap2\n      swap1\n      0x00\n      mstore\n      keccak256(0x00, 0x20)\n      swap1\n    tag_156:\n      dup2\n      sload\n      dup2\n      mstore\n      swap1\n      0x01\n      add\n      swap1\n      0x20\n      add\n      dup1\n      dup4\n      gt\n      tag_156\n      jumpi\n      dup3\n      swap1\n      sub\n      0x1f\n      and\n      dup3\n      add\n      swap2\n    tag_154:\n      pop\n      pop\n      pop\n      pop\n      pop\n      swap1\n      dup1\n      0x05\n      add\n      dup1\n      sload\n      tag_157\n      swap1\n      tag_80\n      jump\t// in\n    tag_157:\n      dup1\n      0x1f\n      add\n      0x20\n      dup1\n      swap2\n      div\n      mul\n      0x20\n      add\n      mload(0x40)\n      swap1\n      dup2\n      add\n      0x40\n      mstore\n      dup1\n      swap3\n      swap2\n      swap1\n      dup2\n      dup2\n      mstore\n      0x20\n      add\n      dup3\n      dup1\n      sload\n      tag_158\n      swap1\n      tag_80\n      jump\t// in\n    tag_158:\n      dup1\n      iszero\n      tag_159\n      jumpi\n      dup1\n      0x1f\n      lt\n      tag_160\n      jumpi\n      0x0100\n      dup1\n      dup4\n      sload\n      div\n      mul\n      dup4\n      mstore\n      swap2\n      0x20\n      add\n      swap2\n      jump(tag_159)\n    tag_160:\n      dup3\n      add\n      swap2\n      swap1\n      0x00\n      mstore\n      keccak256(0x00, 0x20)\n      swap1\n    tag_161:\n      dup2\n      sload\n      dup2\n      mstore\n      swap1\n      0x01\n      add\n      swap1\n      0x20\n      add\n      dup1\n      dup4\n      gt\n      tag_161\n      jumpi\n      dup3\n      swap1\n      sub\n      0x1f\n      and\n      dup3\n      add\n      swap2\n    tag_159:\n      pop\n      pop\n      pop\n      pop\n      pop\n      swap1\n      dup1\n      0x06\n      add\n      dup1\n      sload\n      tag_162\n      swap1\n      tag_80\n      jump\t// in\n    tag_162:\n      dup1\n      0x1f\n      add\n      0x20\n      dup1\n      swap2\n      div\n      mul\n      0x20\n      add\n      mload(0x40)\n      swap1\n      dup2\n      add\n      0x40\n      mstore\n      dup1\n      swap3\n      swap2\n      swap1\n      dup2\n      dup2\n      mstore\n      0x20\n      add\n      dup3\n      dup1\n      sload\n      tag_163\n      swap1\n      tag_80\n      jump\t// in\n    tag_163:\n      dup1\n      iszero\n      tag_164\n      jumpi\n      dup1\n      0x1f\n      lt\n      tag_165\n      jumpi\n      0x0100\n      dup1\n      dup4\n      sload\n      div\n      mul\n      dup4\n      mstore\n      swap2\n      0x20\n      add\n      swap2\n      jump(tag_164)\n    tag_165:\n      dup3\n      add\n      swap2\n      swap1\n      0x00\n      mstore\n      keccak256(0x00, 0x20)\n      swap1\n    tag_166:\n      dup2\n      sload\n      dup2\n      mstore\n      swap1\n      0x01\n      add\n      swap1\n      0x20\n      add\n      dup1\n      dup4\n      gt\n      tag_166\n      jumpi\n      dup3\n      swap1\n      sub\n      0x1f\n      and\n      dup3\n      add\n      swap2\n    tag_164:\n      pop\n      pop\n      pop\n      pop\n      pop\n      swap1\n      dup1\n      0x07\n      add\n      dup1\n      sload\n      tag_167\n      swap1\n      tag_80\n      jump\t// in\n    tag_167:\n      dup1\n      0x1f\n      add\n      0x20\n      dup1\n      swap2\n      div\n      mul\n      0x20\n      add\n      mload(0x40)\n      swap1\n      dup2\n      add\n      0x40\n      mstore\n      dup1\n      swap3\n      swap2\n      swap1\n      dup2\n      dup2\n      mstore\n      0x20\n      add\n      dup3\n      dup1\n      sload\n      tag_168\n      swap1\n      tag_80\n      jump\t// in\n    tag_168:\n      dup1\n      iszero\n      tag_169\n      jumpi\n      dup1\n      0x1f\n      lt\n      tag_170\n      jumpi\n      0x0100\n      dup1\n      dup4\n      sload\n      div\n      mul\n      dup4\n      mstore\n      swap2\n      0x20\n      add\n      swap2\n      jump(tag_169)\n    tag_170:\n      dup3\n      add\n      swap2\n      swap1\n      0x00\n      mstore\n      keccak256(0x00, 0x20)\n      swap1\n    tag_171:\n      dup2\n      sload\n      dup2\n      mstore\n      swap1\n      0x01\n      add\n      swap1\n      0x20\n      add\n      dup1\n      dup4\n      gt\n      tag_171\n      jumpi\n      dup3\n      swap1\n      sub\n      0x1f\n      and\n      dup3\n      add\n      swap2\n    tag_169:\n      pop\n      pop\n      pop\n      pop\n      pop\n      swap1\n      dup1\n      0x08\n      add\n      dup1\n      sload\n      tag_172\n      swap1\n      tag_80\n      jump\t// in\n    tag_172:\n      dup1\n      0x1f\n      add\n      0x20\n      dup1\n      swap2\n      div\n      mul\n      0x20\n      add\n      mload(0x40)\n      swap1\n      dup2\n      add\n      0x40\n      mstore\n      dup1\n      swap3\n      swap2\n      swap1\n      dup2\n      dup2\n      mstore\n      0x20\n      add\n      dup3\n      dup1\n      sload\n      tag_173\n      swap1\n      tag_80\n      jump\t// in\n    tag_173:\n      dup1\n      iszero\n      tag_174\n      jumpi\n      dup1\n      0x1f\n      lt\n      tag_175\n      jumpi\n      0x0100\n      dup1\n      dup4\n      sload\n      div\n      mul\n      dup4\n      mstore\n      swap2\n      0x20\n      add\n      swap2\n      jump(tag_174)\n    tag_175:\n      dup3\n      add\n      swap2\n      swap1\n      0x00\n      mstore\n      keccak256(0x00, 0x20)\n      swap1\n    tag_176:\n      dup2\n      sload\n      dup2\n      mstore\n      swap1\n      0x01\n      add\n      swap1\n      0x20\n      add\n      dup1\n      dup4\n      gt\n      tag_176\n      jumpi\n      dup3\n      swap1\n      sub\n      0x1f\n      and\n      dup3\n      add\n      swap2\n    tag_174:\n      pop\n      pop\n      pop\n      pop\n      pop\n      swap1\n      dup1\n      0x09\n      add\n      0x00\n      swap1\n      sload\n      swap1\n      0x0100\n      exp\n      swap1\n      div\n      0xffffffffffffffffffffffffffffffffffffffff\n      and\n      swap1\n      dup1\n      0x09\n      add\n      0x14\n      swap1\n      sload\n      swap1\n      0x0100\n      exp\n      swap1\n      div\n      0xff\n      and\n      swap1\n      pop\n      dup12\n      jump\t// out\n        /* \"Organization.sol\":913:954  Transaction[] public approvedTransactions */\n    tag_56:\n      0x01\n      dup2\n      dup2\n      sload\n      dup2\n      lt\n      tag_177\n      jumpi\n      0x00\n      dup1\n      revert\n    tag_177:\n      swap1\n      0x00\n      mstore\n      keccak256(0x00, 0x20)\n      swap1\n      0x0a\n      mul\n      add\n      0x00\n      swap2\n      pop\n      swap1\n      pop\n      dup1\n      0x00\n      add\n      dup1\n      sload\n      tag_179\n      swap1\n      tag_80\n      jump\t// in\n    tag_179:\n      dup1\n      0x1f\n      add\n      0x20\n      dup1\n      swap2\n      div\n      mul\n      0x20\n      add\n      mload(0x40)\n      swap1\n      dup2\n      add\n      0x40\n      mstore\n      dup1\n      swap3\n      swap2\n      swap1\n      dup2\n      dup2\n      mstore\n      0x20\n      add\n      dup3\n      dup1\n      sload\n      tag_180\n      swap1\n      tag_80\n      jump\t// in\n    tag_180:\n      dup1\n      iszero\n      tag_181\n      jumpi\n      dup1\n      0x1f\n      lt\n      tag_182\n      jumpi\n      0x0100\n      dup1\n      dup4\n      sload\n      div\n      mul\n      dup4\n      mstore\n      swap2\n      0x20\n      add\n      swap2\n      jump(tag_181)\n    tag_182:\n      dup3\n      add\n      swap2\n      swap1\n      0x00\n      mstore\n      keccak256(0x00, 0x20)\n      swap1\n    tag_183:\n      dup2\n      sload\n      dup2\n      mstore\n      swap1\n      0x01\n      add\n      swap1\n      0x20\n      add\n      dup1\n      dup4\n      gt\n      tag_183\n      jumpi\n      dup3\n      swap1\n      sub\n      0x1f\n      and\n      dup3\n      add\n      swap2\n    tag_181:\n      pop\n      pop\n      pop\n      pop\n      pop\n      swap1\n      dup1\n      0x01\n      add\n      dup1\n      sload\n      tag_184\n      swap1\n      tag_80\n      jump\t// in\n    tag_184:\n      dup1\n      0x1f\n      add\n      0x20\n      dup1\n      swap2\n      div\n      mul\n      0x20\n      add\n      mload(0x40)\n      swap1\n      dup2\n      add\n      0x40\n      mstore\n      dup1\n      swap3\n      swap2\n      swap1\n      dup2\n      dup2\n      mstore\n      0x20\n      add\n      dup3\n      dup1\n      sload\n      tag_185\n      swap1\n      tag_80\n      jump\t// in\n    tag_185:\n      dup1\n      iszero\n      tag_186\n      jumpi\n      dup1\n      0x1f\n      lt\n      tag_187\n      jumpi\n      0x0100\n      dup1\n      dup4\n      sload\n      div\n      mul\n      dup4\n      mstore\n      swap2\n      0x20\n      add\n      swap2\n      jump(tag_186)\n    tag_187:\n      dup3\n      add\n      swap2\n      swap1\n      0x00\n      mstore\n      keccak256(0x00, 0x20)\n      swap1\n    tag_188:\n      dup2\n      sload\n      dup2\n      mstore\n      swap1\n      0x01\n      add\n      swap1\n      0x20\n      add\n      dup1\n      dup4\n      gt\n      tag_188\n      jumpi\n      dup3\n      swap1\n      sub\n      0x1f\n      and\n      dup3\n      add\n      swap2\n    tag_186:\n      pop\n      pop\n      pop\n      pop\n      pop\n      swap1\n      dup1\n      0x02\n      add\n      dup1\n      sload\n      tag_189\n      swap1\n      tag_80\n      jump\t// in\n    tag_189:\n      dup1\n      0x1f\n      add\n      0x20\n      dup1\n      swap2\n      div\n      mul\n      0x20\n      add\n      mload(0x40)\n      swap1\n      dup2\n      add\n      0x40\n      mstore\n      dup1\n      swap3\n      swap2\n      swap1\n      dup2\n      dup2\n      mstore\n      0x20\n      add\n      dup3\n      dup1\n      sload\n      tag_190\n      swap1\n      tag_80\n      jump\t// in\n    tag_190:\n      dup1\n      iszero\n      tag_191\n      jumpi\n      dup1\n      0x1f\n      lt\n      tag_192\n      jumpi\n      0x0100\n      dup1\n      dup4\n      sload\n      div\n      mul\n      dup4\n      mstore\n      swap2\n      0x20\n      add\n      swap2\n      jump(tag_191)\n    tag_192:\n      dup3\n      add\n      swap2\n      swap1\n      0x00\n      mstore\n      keccak256(0x00, 0x20)\n      swap1\n    tag_193:\n      dup2\n      sload\n      dup2\n      mstore\n      swap1\n      0x01\n      add\n      swap1\n      0x20\n      add\n      dup1\n      dup4\n      gt\n      tag_193\n      jumpi\n      dup3\n      swap1\n      sub\n      0x1f\n      and\n      dup3\n      add\n      swap2\n    tag_191:\n      pop\n      pop\n      pop\n      pop\n      pop\n      swap1\n      dup1\n      0x03\n      add\n      dup1\n      sload\n      tag_194\n      swap1\n      tag_80\n      jump\t// in\n    tag_194:\n      dup1\n      0x1f\n      add\n      0x20\n      dup1\n      swap2\n      div\n      mul\n      0x20\n      add\n      mload(0x40)\n      swap1\n      dup2\n      add\n      0x40\n      mstore\n      dup1\n      swap3\n      swap2\n      swap1\n      dup2\n      dup2\n      mstore\n      0x20\n      add\n      dup3\n      dup1\n      sload\n      tag_195\n      swap1\n      tag_80\n      jump\t// in\n    tag_195:\n      dup1\n      iszero\n      tag_196\n      jumpi\n      dup1\n      0x1f\n      lt\n      tag_197\n      jumpi\n      0x0100\n      dup1\n      dup4\n      sload\n      div\n      mul\n      dup4\n      mstore\n      swap2\n      0x20\n      add\n      swap2\n      jump(tag_196)\n    tag_197:\n      dup3\n      add\n      swap2\n      swap1\n      0x00\n      mstore\n      keccak256(0x00, 0x20)\n      swap1\n    tag_198:\n      dup2\n      sload\n      dup2\n      mstore\n      swap1\n      0x01\n      add\n      swap1\n      0x20\n      add\n      dup1\n      dup4\n      gt\n      tag_198\n      jumpi\n      dup3\n      swap1\n      sub\n      0x1f\n      and\n      dup3\n      add\n      swap2\n    tag_196:\n      pop\n      pop\n      pop\n      pop\n      pop\n      swap1\n      dup1\n      0x04\n      add\n      dup1\n      sload\n      tag_199\n      swap1\n      tag_80\n      jump\t// in\n    tag_199:\n      dup1\n      0x1f\n      add\n      0x20\n      dup1\n      swap2\n      div\n      mul\n      0x20\n      add\n      mload(0x40)\n      swap1\n      dup2\n      add\n      0x40\n      mstore\n      dup1\n      swap3\n      swap2\n      swap1\n      dup2\n      dup2\n      mstore\n      0x20\n      add\n      dup3\n      dup1\n      sload\n      tag_200\n      swap1\n      tag_80\n      jump\t// in\n    tag_200:\n      dup1\n      iszero\n      tag_201\n      jumpi\n      dup1\n      0x1f\n      lt\n      tag_202\n      jumpi\n      0x0100\n      dup1\n      dup4\n      sload\n      div\n      mul\n      dup4\n      mstore\n      swap2\n      0x20\n      add\n      swap2\n      jump(tag_201)\n    tag_202:\n      dup3\n      add\n      swap2\n      swap1\n      0x00\n      mstore\n      keccak256(0x00, 0x20)\n      swap1\n    tag_203:\n      dup2\n      sload\n      dup2\n      mstore\n      swap1\n      0x01\n      add\n      swap1\n      0x20\n      add\n      dup1\n      dup4\n      gt\n      tag_203\n      jumpi\n      dup3\n      swap1\n      sub\n      0x1f\n      and\n      dup3\n      add\n      swap2\n    tag_201:\n      pop\n      pop\n      pop\n      pop\n      pop\n      swap1\n      dup1\n      0x05\n      add\n      dup1\n      sload\n      tag_204\n      swap1\n      tag_80\n      jump\t// in\n    tag_204:\n      dup1\n      0x1f\n      add\n      0x20\n      dup1\n      swap2\n      div\n      mul\n      0x20\n      add\n      mload(0x40)\n      swap1\n      dup2\n      add\n      0x40\n      mstore\n      dup1\n      swap3\n      swap2\n      swap1\n      dup2\n      dup2\n      mstore\n      0x20\n      add\n      dup3\n      dup1\n      sload\n      tag_205\n      swap1\n      tag_80\n      jump\t// in\n    tag_205:\n      dup1\n      iszero\n      tag_206\n      jumpi\n      dup1\n      0x1f\n      lt\n      tag_207\n      jumpi\n      0x0100\n      dup1\n      dup4\n      sload\n      div\n      mul\n      dup4\n      mstore\n      swap2\n      0x20\n      add\n      swap2\n      jump(tag_206)\n    tag_207:\n      dup3\n      add\n      swap2\n      swap1\n      0x00\n      mstore\n      keccak256(0x00, 0x20)\n      swap1\n    tag_208:\n      dup2\n      sload\n      dup2\n      mstore\n      swap1\n      0x01\n      add\n      swap1\n      0x20\n      add\n      dup1\n      dup4\n      gt\n      tag_208\n      jumpi\n      dup3\n      swap1\n      sub\n      0x1f\n      and\n      dup3\n      add\n      swap2\n    tag_206:\n      pop\n      pop\n      pop\n      pop\n      pop\n      swap1\n      dup1\n      0x06\n      add\n      dup1\n      sload\n      tag_209\n      swap1\n      tag_80\n      jump\t// in\n    tag_209:\n      dup1\n      0x1f\n      add\n      0x20\n      dup1\n      swap2\n      div\n      mul\n      0x20\n      add\n      mload(0x40)\n      swap1\n      dup2\n      add\n      0x40\n      mstore\n      dup1\n      swap3\n      swap2\n      swap1\n      dup2\n      dup2\n      mstore\n      0x20\n      add\n      dup3\n      dup1\n      sload\n      tag_210\n      swap1\n      tag_80\n      jump\t// in\n    tag_210:\n      dup1\n      iszero\n      tag_211\n      jumpi\n      dup1\n      0x1f\n      lt\n      tag_212\n      jumpi\n      0x0100\n      dup1\n      dup4\n      sload\n      div\n      mul\n      dup4\n      mstore\n      swap2\n      0x20\n      add\n      swap2\n      jump(tag_211)\n    tag_212:\n      dup3\n      add\n      swap2\n      swap1\n      0x00\n      mstore\n      keccak256(0x00, 0x20)\n      swap1\n    tag_213:\n      dup2\n      sload\n      dup2\n      mstore\n      swap1\n      0x01\n      add\n      swap1\n      0x20\n      add\n      dup1\n      dup4\n      gt\n      tag_213\n      jumpi\n      dup3\n      swap1\n      sub\n      0x1f\n      and\n      dup3\n      add\n      swap2\n    tag_211:\n      pop\n      pop\n      pop\n      pop\n      pop\n      swap1\n      dup1\n      0x07\n      add\n      dup1\n      sload\n      tag_214\n      swap1\n      tag_80\n      jump\t// in\n    tag_214:\n      dup1\n      0x1f\n      add\n      0x20\n      dup1\n      swap2\n      div\n      mul\n      0x20\n      add\n      mload(0x40)\n      swap1\n      dup2\n      add\n      0x40\n      mstore\n      dup1\n      swap3\n      swap2\n      swap1\n      dup2\n      dup2\n      mstore\n      0x20\n      add\n      dup3\n      dup1\n      sload\n      tag_215\n      swap1\n      tag_80\n      jump\t// in\n    tag_215:\n      dup1\n      iszero\n      tag_216\n      jumpi\n      dup1\n      0x1f\n      lt\n      tag_217\n      jumpi\n      0x0100\n      dup1\n      dup4\n      sload\n      div\n      mul\n      dup4\n      mstore\n      swap2\n      0x20\n      add\n      swap2\n      jump(tag_216)\n    tag_217:\n      dup3\n      add\n      swap2\n      swap1\n      0x00\n      mstore\n      keccak256(0x00, 0x20)\n      swap1\n    tag_218:\n      dup2\n      sload\n      dup2\n      mstore\n      swap1\n      0x01\n      add\n      swap1\n      0x20\n      add\n      dup1\n      dup4\n      gt\n      tag_218\n      jumpi\n      dup3\n      swap1\n      sub\n      0x1f\n      and\n      dup3\n      add\n      swap2\n    tag_216:\n      pop\n      pop\n      pop\n      pop\n      pop\n      swap1\n      dup1\n      0x08\n      add\n      dup1\n      sload\n      tag_219\n      swap1\n      tag_80\n      jump\t// in\n    tag_219:\n      dup1\n      0x1f\n      add\n      0x20\n      dup1\n      swap2\n      div\n      mul\n      0x20\n      add\n      mload(0x40)\n      swap1\n      dup2\n      add\n      0x40\n      mstore\n      dup1\n      swap3\n      swap2\n      swap1\n      dup2\n      dup2\n      mstore\n      0x20\n      add\n      dup3\n      dup1\n      sload\n      tag_220\n      swap1\n      tag_80\n      jump\t// in\n    tag_220:\n      dup1\n      iszero\n      tag_221\n      jumpi\n      dup1\n      0x1f\n      lt\n      tag_222\n      jumpi\n      0x0100\n      dup1\n      dup4\n      sload\n      div\n      mul\n      dup4\n      mstore\n      swap2\n      0x20\n      add\n      swap2\n      jump(tag_221)\n    tag_222:\n      dup3\n      add\n      swap2\n      swap1\n      0x00\n      mstore\n      keccak256(0x00, 0x20)\n      swap1\n    tag_223:\n      dup2\n      sload\n      dup2\n      mstore\n      swap1\n      0x01\n      add\n      swap1\n      0x20\n      add\n      dup1\n      dup4\n      gt\n      tag_223\n      jumpi\n      dup3\n      swap1\n      sub\n      0x1f\n      and\n      dup3\n      add\n      swap2\n    tag_221:\n      pop\n      pop\n      pop\n      pop\n      pop\n      swap1\n      dup1\n      0x09\n      add\n      0x00\n      swap1\n      sload\n      swap1\n      0x0100\n      exp\n      swap1\n      div\n      0xffffffffffffffffffffffffffffffffffffffff\n      and\n      swap1\n      dup1\n      0x09\n      add\n      0x14\n      swap1\n      sload\n      swap1\n      0x0100\n      exp\n      swap1\n      div\n      0xff\n      and\n      swap1\n      pop\n      dup12\n      jump\t// out\n        /* \"Organization.sol\":2866:2984  function getApprovedTransactionCount() public view returns (uint){... */\n    tag_60:\n        /* \"Organization.sol\":2926:2930  uint */\n      0x00\n        /* \"Organization.sol\":2949:2969  approvedTransactions */\n      0x01\n        /* \"Organization.sol\":2949:2976  approvedTransactions.length */\n      dup1\n      sload\n      swap1\n      pop\n        /* \"Organization.sol\":2942:2976  return approvedTransactions.length */\n      swap1\n      pop\n        /* \"Organization.sol\":2866:2984  function getApprovedTransactionCount() public view returns (uint){... */\n      swap1\n      jump\t// out\n    tag_67:\n      dup3\n      dup1\n      sload\n      tag_225\n      swap1\n      tag_80\n      jump\t// in\n    tag_225:\n      swap1\n      0x00\n      mstore\n      keccak256(0x00, 0x20)\n      swap1\n      0x1f\n      add\n      0x20\n      swap1\n      div\n      dup2\n      add\n      swap3\n      dup3\n      tag_227\n      jumpi\n      0x00\n      dup6\n      sstore\n      jump(tag_226)\n    tag_227:\n      dup3\n      0x1f\n      lt\n      tag_228\n      jumpi\n      dup1\n      mload\n      not(0xff)\n      and\n      dup4\n      dup1\n      add\n      or\n      dup6\n      sstore\n      jump(tag_226)\n    tag_228:\n      dup3\n      dup1\n      add\n      0x01\n      add\n      dup6\n      sstore\n      dup3\n      iszero\n      tag_226\n      jumpi\n      swap2\n      dup3\n      add\n    tag_229:\n      dup3\n      dup2\n      gt\n      iszero\n      tag_230\n      jumpi\n      dup3\n      mload\n      dup3\n      sstore\n      swap2\n      0x20\n      add\n      swap2\n      swap1\n      0x01\n      add\n      swap1\n      jump(tag_229)\n    tag_230:\n    tag_226:\n      pop\n      swap1\n      pop\n      tag_231\n      swap2\n      swap1\n      tag_232\n      jump\t// in\n    tag_231:\n      pop\n      swap1\n      jump\t// out\n    tag_111:\n      dup3\n      dup1\n      sload\n      tag_233\n      swap1\n      tag_80\n      jump\t// in\n    tag_233:\n      swap1\n      0x00\n      mstore\n      keccak256(0x00, 0x20)\n      swap1\n      0x1f\n      add\n      0x20\n      swap1\n      div\n      dup2\n      add\n      swap3\n      dup3\n      tag_235\n      jumpi\n      0x00\n      dup6\n      sstore\n      jump(tag_234)\n    tag_235:\n      dup3\n      0x1f\n      lt\n      tag_236\n      jumpi\n      dup1\n      sload\n      dup6\n      sstore\n      jump(tag_234)\n    tag_236:\n      dup3\n      dup1\n      add\n      0x01\n      add\n      dup6\n      sstore\n      dup3\n      iszero\n      tag_234\n      jumpi\n      0x00\n      mstore\n      keccak256(0x00, 0x20)\n      swap2\n      0x1f\n      add\n      0x20\n      swap1\n      div\n      dup3\n      add\n    tag_237:\n      dup3\n      dup2\n      gt\n      iszero\n      tag_238\n      jumpi\n      dup3\n      sload\n      dup3\n      sstore\n      swap2\n      0x01\n      add\n      swap2\n      swap1\n      0x01\n      add\n      swap1\n      jump(tag_237)\n    tag_238:\n    tag_234:\n      pop\n      swap1\n      pop\n      tag_239\n      swap2\n      swap1\n      tag_232\n      jump\t// in\n    tag_239:\n      pop\n      swap1\n      jump\t// out\n    tag_232:\n    tag_240:\n      dup1\n      dup3\n      gt\n      iszero\n      tag_241\n      jumpi\n      0x00\n      dup2\n      0x00\n      swap1\n      sstore\n      pop\n      0x01\n      add\n      jump(tag_240)\n    tag_241:\n      pop\n      swap1\n      jump\t// out\n        /* \"#utility.yul\":7:82   */\n    tag_242:\n        /* \"#utility.yul\":40:46   */\n      0x00\n        /* \"#utility.yul\":73:75   */\n      0x40\n        /* \"#utility.yul\":67:76   */\n      mload\n        /* \"#utility.yul\":57:76   */\n      swap1\n      pop\n        /* \"#utility.yul\":7:82   */\n      swap1\n      jump\t// out\n        /* \"#utility.yul\":88:205   */\n    tag_243:\n        /* \"#utility.yul\":197:198   */\n      0x00\n        /* \"#utility.yul\":194:195   */\n      dup1\n        /* \"#utility.yul\":187:199   */\n      revert\n        /* \"#utility.yul\":211:328   */\n    tag_244:\n        /* \"#utility.yul\":320:321   */\n      0x00\n        /* \"#utility.yul\":317:318   */\n      dup1\n        /* \"#utility.yul\":310:322   */\n      revert\n        /* \"#utility.yul\":334:451   */\n    tag_245:\n        /* \"#utility.yul\":443:444   */\n      0x00\n        /* \"#utility.yul\":440:441   */\n      dup1\n        /* \"#utility.yul\":433:445   */\n      revert\n        /* \"#utility.yul\":457:574   */\n    tag_246:\n        /* \"#utility.yul\":566:567   */\n      0x00\n        /* \"#utility.yul\":563:564   */\n      dup1\n        /* \"#utility.yul\":556:568   */\n      revert\n        /* \"#utility.yul\":580:682   */\n    tag_247:\n        /* \"#utility.yul\":621:627   */\n      0x00\n        /* \"#utility.yul\":672:674   */\n      0x1f\n        /* \"#utility.yul\":668:675   */\n      not\n        /* \"#utility.yul\":663:665   */\n      0x1f\n        /* \"#utility.yul\":656:661   */\n      dup4\n        /* \"#utility.yul\":652:666   */\n      add\n        /* \"#utility.yul\":648:676   */\n      and\n        /* \"#utility.yul\":638:676   */\n      swap1\n      pop\n        /* \"#utility.yul\":580:682   */\n      swap2\n      swap1\n      pop\n      jump\t// out\n        /* \"#utility.yul\":688:868   */\n    tag_248:\n        /* \"#utility.yul\":736:813   */\n      0x4e487b7100000000000000000000000000000000000000000000000000000000\n        /* \"#utility.yul\":733:734   */\n      0x00\n        /* \"#utility.yul\":726:814   */\n      mstore\n        /* \"#utility.yul\":833:837   */\n      0x41\n        /* \"#utility.yul\":830:831   */\n      0x04\n        /* \"#utility.yul\":823:838   */\n      mstore\n        /* \"#utility.yul\":857:861   */\n      0x24\n        /* \"#utility.yul\":854:855   */\n      0x00\n        /* \"#utility.yul\":847:862   */\n      revert\n        /* \"#utility.yul\":874:1155   */\n    tag_249:\n        /* \"#utility.yul\":957:984   */\n      tag_281\n        /* \"#utility.yul\":979:983   */\n      dup3\n        /* \"#utility.yul\":957:984   */\n      tag_247\n      jump\t// in\n    tag_281:\n        /* \"#utility.yul\":949:955   */\n      dup2\n        /* \"#utility.yul\":945:985   */\n      add\n        /* \"#utility.yul\":1087:1093   */\n      dup2\n        /* \"#utility.yul\":1075:1085   */\n      dup2\n        /* \"#utility.yul\":1072:1094   */\n      lt\n        /* \"#utility.yul\":1051:1069   */\n      0xffffffffffffffff\n        /* \"#utility.yul\":1039:1049   */\n      dup3\n        /* \"#utility.yul\":1036:1070   */\n      gt\n        /* \"#utility.yul\":1033:1095   */\n      or\n        /* \"#utility.yul\":1030:1118   */\n      iszero\n      tag_282\n      jumpi\n        /* \"#utility.yul\":1098:1116   */\n      tag_283\n      tag_248\n      jump\t// in\n    tag_283:\n        /* \"#utility.yul\":1030:1118   */\n    tag_282:\n        /* \"#utility.yul\":1138:1148   */\n      dup1\n        /* \"#utility.yul\":1134:1136   */\n      0x40\n        /* \"#utility.yul\":1127:1149   */\n      mstore\n        /* \"#utility.yul\":917:1155   */\n      pop\n        /* \"#utility.yul\":874:1155   */\n      pop\n      pop\n      jump\t// out\n        /* \"#utility.yul\":1161:1290   */\n    tag_250:\n        /* \"#utility.yul\":1195:1201   */\n      0x00\n        /* \"#utility.yul\":1222:1242   */\n      tag_285\n      tag_242\n      jump\t// in\n    tag_285:\n        /* \"#utility.yul\":1212:1242   */\n      swap1\n      pop\n        /* \"#utility.yul\":1251:1284   */\n      tag_286\n        /* \"#utility.yul\":1279:1283   */\n      dup3\n        /* \"#utility.yul\":1271:1277   */\n      dup3\n        /* \"#utility.yul\":1251:1284   */\n      tag_249\n      jump\t// in\n    tag_286:\n        /* \"#utility.yul\":1161:1290   */\n      swap2\n      swap1\n      pop\n      jump\t// out\n        /* \"#utility.yul\":1296:1604   */\n    tag_251:\n        /* \"#utility.yul\":1358:1362   */\n      0x00\n        /* \"#utility.yul\":1448:1466   */\n      0xffffffffffffffff\n        /* \"#utility.yul\":1440:1446   */\n      dup3\n        /* \"#utility.yul\":1437:1467   */\n      gt\n        /* \"#utility.yul\":1434:1490   */\n      iszero\n      tag_288\n      jumpi\n        /* \"#utility.yul\":1470:1488   */\n      tag_289\n      tag_248\n      jump\t// in\n    tag_289:\n        /* \"#utility.yul\":1434:1490   */\n    tag_288:\n        /* \"#utility.yul\":1508:1537   */\n      tag_290\n        /* \"#utility.yul\":1530:1536   */\n      dup3\n        /* \"#utility.yul\":1508:1537   */\n      tag_247\n      jump\t// in\n    tag_290:\n        /* \"#utility.yul\":1500:1537   */\n      swap1\n      pop\n        /* \"#utility.yul\":1592:1596   */\n      0x20\n        /* \"#utility.yul\":1586:1590   */\n      dup2\n        /* \"#utility.yul\":1582:1597   */\n      add\n        /* \"#utility.yul\":1574:1597   */\n      swap1\n      pop\n        /* \"#utility.yul\":1296:1604   */\n      swap2\n      swap1\n      pop\n      jump\t// out\n        /* \"#utility.yul\":1610:1764   */\n    tag_252:\n        /* \"#utility.yul\":1694:1700   */\n      dup3\n        /* \"#utility.yul\":1689:1692   */\n      dup2\n        /* \"#utility.yul\":1684:1687   */\n      dup4\n        /* \"#utility.yul\":1671:1701   */\n      calldatacopy\n        /* \"#utility.yul\":1756:1757   */\n      0x00\n        /* \"#utility.yul\":1747:1753   */\n      dup4\n        /* \"#utility.yul\":1742:1745   */\n      dup4\n        /* \"#utility.yul\":1738:1754   */\n      add\n        /* \"#utility.yul\":1731:1758   */\n      mstore\n        /* \"#utility.yul\":1610:1764   */\n      pop\n      pop\n      pop\n      jump\t// out\n        /* \"#utility.yul\":1770:2182   */\n    tag_253:\n        /* \"#utility.yul\":1848:1853   */\n      0x00\n        /* \"#utility.yul\":1873:1939   */\n      tag_293\n        /* \"#utility.yul\":1889:1938   */\n      tag_294\n        /* \"#utility.yul\":1931:1937   */\n      dup5\n        /* \"#utility.yul\":1889:1938   */\n      tag_251\n      jump\t// in\n    tag_294:\n        /* \"#utility.yul\":1873:1939   */\n      tag_250\n      jump\t// in\n    tag_293:\n        /* \"#utility.yul\":1864:1939   */\n      swap1\n      pop\n        /* \"#utility.yul\":1962:1968   */\n      dup3\n        /* \"#utility.yul\":1955:1960   */\n      dup2\n        /* \"#utility.yul\":1948:1969   */\n      mstore\n        /* \"#utility.yul\":2000:2004   */\n      0x20\n        /* \"#utility.yul\":1993:1998   */\n      dup2\n        /* \"#utility.yul\":1989:2005   */\n      add\n        /* \"#utility.yul\":2038:2041   */\n      dup5\n        /* \"#utility.yul\":2029:2035   */\n      dup5\n        /* \"#utility.yul\":2024:2027   */\n      dup5\n        /* \"#utility.yul\":2020:2036   */\n      add\n        /* \"#utility.yul\":2017:2042   */\n      gt\n        /* \"#utility.yul\":2014:2126   */\n      iszero\n      tag_295\n      jumpi\n        /* \"#utility.yul\":2045:2124   */\n      tag_296\n      tag_246\n      jump\t// in\n    tag_296:\n        /* \"#utility.yul\":2014:2126   */\n    tag_295:\n        /* \"#utility.yul\":2135:2176   */\n      tag_297\n        /* \"#utility.yul\":2169:2175   */\n      dup5\n        /* \"#utility.yul\":2164:2167   */\n      dup3\n        /* \"#utility.yul\":2159:2162   */\n      dup6\n        /* \"#utility.yul\":2135:2176   */\n      tag_252\n      jump\t// in\n    tag_297:\n        /* \"#utility.yul\":1854:2182   */\n      pop\n        /* \"#utility.yul\":1770:2182   */\n      swap4\n      swap3\n      pop\n      pop\n      pop\n      jump\t// out\n        /* \"#utility.yul\":2202:2542   */\n    tag_254:\n        /* \"#utility.yul\":2258:2263   */\n      0x00\n        /* \"#utility.yul\":2307:2310   */\n      dup3\n        /* \"#utility.yul\":2300:2304   */\n      0x1f\n        /* \"#utility.yul\":2292:2298   */\n      dup4\n        /* \"#utility.yul\":2288:2305   */\n      add\n        /* \"#utility.yul\":2284:2311   */\n      slt\n        /* \"#utility.yul\":2274:2396   */\n      tag_299\n      jumpi\n        /* \"#utility.yul\":2315:2394   */\n      tag_300\n      tag_245\n      jump\t// in\n    tag_300:\n        /* \"#utility.yul\":2274:2396   */\n    tag_299:\n        /* \"#utility.yul\":2432:2438   */\n      dup2\n        /* \"#utility.yul\":2419:2439   */\n      calldataload\n        /* \"#utility.yul\":2457:2536   */\n      tag_301\n        /* \"#utility.yul\":2532:2535   */\n      dup5\n        /* \"#utility.yul\":2524:2530   */\n      dup3\n        /* \"#utility.yul\":2517:2521   */\n      0x20\n        /* \"#utility.yul\":2509:2515   */\n      dup7\n        /* \"#utility.yul\":2505:2522   */\n      add\n        /* \"#utility.yul\":2457:2536   */\n      tag_253\n      jump\t// in\n    tag_301:\n        /* \"#utility.yul\":2448:2536   */\n      swap2\n      pop\n        /* \"#utility.yul\":2264:2542   */\n      pop\n        /* \"#utility.yul\":2202:2542   */\n      swap3\n      swap2\n      pop\n      pop\n      jump\t// out\n        /* \"#utility.yul\":2548:2674   */\n    tag_255:\n        /* \"#utility.yul\":2585:2592   */\n      0x00\n        /* \"#utility.yul\":2625:2667   */\n      0xffffffffffffffffffffffffffffffffffffffff\n        /* \"#utility.yul\":2618:2623   */\n      dup3\n        /* \"#utility.yul\":2614:2668   */\n      and\n        /* \"#utility.yul\":2603:2668   */\n      swap1\n      pop\n        /* \"#utility.yul\":2548:2674   */\n      swap2\n      swap1\n      pop\n      jump\t// out\n        /* \"#utility.yul\":2680:2776   */\n    tag_256:\n        /* \"#utility.yul\":2717:2724   */\n      0x00\n        /* \"#utility.yul\":2746:2770   */\n      tag_304\n        /* \"#utility.yul\":2764:2769   */\n      dup3\n        /* \"#utility.yul\":2746:2770   */\n      tag_255\n      jump\t// in\n    tag_304:\n        /* \"#utility.yul\":2735:2770   */\n      swap1\n      pop\n        /* \"#utility.yul\":2680:2776   */\n      swap2\n      swap1\n      pop\n      jump\t// out\n        /* \"#utility.yul\":2782:2904   */\n    tag_257:\n        /* \"#utility.yul\":2855:2879   */\n      tag_306\n        /* \"#utility.yul\":2873:2878   */\n      dup2\n        /* \"#utility.yul\":2855:2879   */\n      tag_256\n      jump\t// in\n    tag_306:\n        /* \"#utility.yul\":2848:2853   */\n      dup2\n        /* \"#utility.yul\":2845:2880   */\n      eq\n        /* \"#utility.yul\":2835:2898   */\n      tag_307\n      jumpi\n        /* \"#utility.yul\":2894:2895   */\n      0x00\n        /* \"#utility.yul\":2891:2892   */\n      dup1\n        /* \"#utility.yul\":2884:2896   */\n      revert\n        /* \"#utility.yul\":2835:2898   */\n    tag_307:\n        /* \"#utility.yul\":2782:2904   */\n      pop\n      jump\t// out\n        /* \"#utility.yul\":2910:3049   */\n    tag_258:\n        /* \"#utility.yul\":2956:2961   */\n      0x00\n        /* \"#utility.yul\":2994:3000   */\n      dup2\n        /* \"#utility.yul\":2981:3001   */\n      calldataload\n        /* \"#utility.yul\":2972:3001   */\n      swap1\n      pop\n        /* \"#utility.yul\":3010:3043   */\n      tag_309\n        /* \"#utility.yul\":3037:3042   */\n      dup2\n        /* \"#utility.yul\":3010:3043   */\n      tag_257\n      jump\t// in\n    tag_309:\n        /* \"#utility.yul\":2910:3049   */\n      swap3\n      swap2\n      pop\n      pop\n      jump\t// out\n        /* \"#utility.yul\":3055:6316   */\n    tag_16:\n        /* \"#utility.yul\":3285:3291   */\n      0x00\n        /* \"#utility.yul\":3293:3299   */\n      dup1\n        /* \"#utility.yul\":3301:3307   */\n      0x00\n        /* \"#utility.yul\":3309:3315   */\n      dup1\n        /* \"#utility.yul\":3317:3323   */\n      0x00\n        /* \"#utility.yul\":3325:3331   */\n      dup1\n        /* \"#utility.yul\":3333:3339   */\n      0x00\n        /* \"#utility.yul\":3341:3347   */\n      dup1\n        /* \"#utility.yul\":3349:3355   */\n      0x00\n        /* \"#utility.yul\":3357:3363   */\n      dup1\n        /* \"#utility.yul\":3406:3409   */\n      0x0140\n        /* \"#utility.yul\":3394:3403   */\n      dup12\n        /* \"#utility.yul\":3385:3392   */\n      dup14\n        /* \"#utility.yul\":3381:3404   */\n      sub\n        /* \"#utility.yul\":3377:3410   */\n      slt\n        /* \"#utility.yul\":3374:3494   */\n      iszero\n      tag_311\n      jumpi\n        /* \"#utility.yul\":3413:3492   */\n      tag_312\n      tag_243\n      jump\t// in\n    tag_312:\n        /* \"#utility.yul\":3374:3494   */\n    tag_311:\n        /* \"#utility.yul\":3561:3562   */\n      0x00\n        /* \"#utility.yul\":3550:3559   */\n      dup12\n        /* \"#utility.yul\":3546:3563   */\n      add\n        /* \"#utility.yul\":3533:3564   */\n      calldataload\n        /* \"#utility.yul\":3591:3609   */\n      0xffffffffffffffff\n        /* \"#utility.yul\":3583:3589   */\n      dup2\n        /* \"#utility.yul\":3580:3610   */\n      gt\n        /* \"#utility.yul\":3577:3694   */\n      iszero\n      tag_313\n      jumpi\n        /* \"#utility.yul\":3613:3692   */\n      tag_314\n      tag_244\n      jump\t// in\n    tag_314:\n        /* \"#utility.yul\":3577:3694   */\n    tag_313:\n        /* \"#utility.yul\":3718:3781   */\n      tag_315\n        /* \"#utility.yul\":3773:3780   */\n      dup14\n        /* \"#utility.yul\":3764:3770   */\n      dup3\n        /* \"#utility.yul\":3753:3762   */\n      dup15\n        /* \"#utility.yul\":3749:3771   */\n      add\n        /* \"#utility.yul\":3718:3781   */\n      tag_254\n      jump\t// in\n    tag_315:\n        /* \"#utility.yul\":3708:3781   */\n      swap11\n      pop\n        /* \"#utility.yul\":3504:3791   */\n      pop\n        /* \"#utility.yul\":3858:3860   */\n      0x20\n        /* \"#utility.yul\":3847:3856   */\n      dup12\n        /* \"#utility.yul\":3843:3861   */\n      add\n        /* \"#utility.yul\":3830:3862   */\n      calldataload\n        /* \"#utility.yul\":3889:3907   */\n      0xffffffffffffffff\n        /* \"#utility.yul\":3881:3887   */\n      dup2\n        /* \"#utility.yul\":3878:3908   */\n      gt\n        /* \"#utility.yul\":3875:3992   */\n      iszero\n      tag_316\n      jumpi\n        /* \"#utility.yul\":3911:3990   */\n      tag_317\n      tag_244\n      jump\t// in\n    tag_317:\n        /* \"#utility.yul\":3875:3992   */\n    tag_316:\n        /* \"#utility.yul\":4016:4079   */\n      tag_318\n        /* \"#utility.yul\":4071:4078   */\n      dup14\n        /* \"#utility.yul\":4062:4068   */\n      dup3\n        /* \"#utility.yul\":4051:4060   */\n      dup15\n        /* \"#utility.yul\":4047:4069   */\n      add\n        /* \"#utility.yul\":4016:4079   */\n      tag_254\n      jump\t// in\n    tag_318:\n        /* \"#utility.yul\":4006:4079   */\n      swap10\n      pop\n        /* \"#utility.yul\":3801:4089   */\n      pop\n        /* \"#utility.yul\":4156:4158   */\n      0x40\n        /* \"#utility.yul\":4145:4154   */\n      dup12\n        /* \"#utility.yul\":4141:4159   */\n      add\n        /* \"#utility.yul\":4128:4160   */\n      calldataload\n        /* \"#utility.yul\":4187:4205   */\n      0xffffffffffffffff\n        /* \"#utility.yul\":4179:4185   */\n      dup2\n        /* \"#utility.yul\":4176:4206   */\n      gt\n        /* \"#utility.yul\":4173:4290   */\n      iszero\n      tag_319\n      jumpi\n        /* \"#utility.yul\":4209:4288   */\n      tag_320\n      tag_244\n      jump\t// in\n    tag_320:\n        /* \"#utility.yul\":4173:4290   */\n    tag_319:\n        /* \"#utility.yul\":4314:4377   */\n      tag_321\n        /* \"#utility.yul\":4369:4376   */\n      dup14\n        /* \"#utility.yul\":4360:4366   */\n      dup3\n        /* \"#utility.yul\":4349:4358   */\n      dup15\n        /* \"#utility.yul\":4345:4367   */\n      add\n        /* \"#utility.yul\":4314:4377   */\n      tag_254\n      jump\t// in\n    tag_321:\n        /* \"#utility.yul\":4304:4377   */\n      swap9\n      pop\n        /* \"#utility.yul\":4099:4387   */\n      pop\n        /* \"#utility.yul\":4454:4456   */\n      0x60\n        /* \"#utility.yul\":4443:4452   */\n      dup12\n        /* \"#utility.yul\":4439:4457   */\n      add\n        /* \"#utility.yul\":4426:4458   */\n      calldataload\n        /* \"#utility.yul\":4485:4503   */\n      0xffffffffffffffff\n        /* \"#utility.yul\":4477:4483   */\n      dup2\n        /* \"#utility.yul\":4474:4504   */\n      gt\n        /* \"#utility.yul\":4471:4588   */\n      iszero\n      tag_322\n      jumpi\n        /* \"#utility.yul\":4507:4586   */\n      tag_323\n      tag_244\n      jump\t// in\n    tag_323:\n        /* \"#utility.yul\":4471:4588   */\n    tag_322:\n        /* \"#utility.yul\":4612:4675   */\n      tag_324\n        /* \"#utility.yul\":4667:4674   */\n      dup14\n        /* \"#utility.yul\":4658:4664   */\n      dup3\n        /* \"#utility.yul\":4647:4656   */\n      dup15\n        /* \"#utility.yul\":4643:4665   */\n      add\n        /* \"#utility.yul\":4612:4675   */\n      tag_254\n      jump\t// in\n    tag_324:\n        /* \"#utility.yul\":4602:4675   */\n      swap8\n      pop\n        /* \"#utility.yul\":4397:4685   */\n      pop\n        /* \"#utility.yul\":4752:4755   */\n      0x80\n        /* \"#utility.yul\":4741:4750   */\n      dup12\n        /* \"#utility.yul\":4737:4756   */\n      add\n        /* \"#utility.yul\":4724:4757   */\n      calldataload\n        /* \"#utility.yul\":4784:4802   */\n      0xffffffffffffffff\n        /* \"#utility.yul\":4776:4782   */\n      dup2\n        /* \"#utility.yul\":4773:4803   */\n      gt\n        /* \"#utility.yul\":4770:4887   */\n      iszero\n      tag_325\n      jumpi\n        /* \"#utility.yul\":4806:4885   */\n      tag_326\n      tag_244\n      jump\t// in\n    tag_326:\n        /* \"#utility.yul\":4770:4887   */\n    tag_325:\n        /* \"#utility.yul\":4911:4974   */\n      tag_327\n        /* \"#utility.yul\":4966:4973   */\n      dup14\n        /* \"#utility.yul\":4957:4963   */\n      dup3\n        /* \"#utility.yul\":4946:4955   */\n      dup15\n        /* \"#utility.yul\":4942:4964   */\n      add\n        /* \"#utility.yul\":4911:4974   */\n      tag_254\n      jump\t// in\n    tag_327:\n        /* \"#utility.yul\":4901:4974   */\n      swap7\n      pop\n        /* \"#utility.yul\":4695:4984   */\n      pop\n        /* \"#utility.yul\":5051:5054   */\n      0xa0\n        /* \"#utility.yul\":5040:5049   */\n      dup12\n        /* \"#utility.yul\":5036:5055   */\n      add\n        /* \"#utility.yul\":5023:5056   */\n      calldataload\n        /* \"#utility.yul\":5083:5101   */\n      0xffffffffffffffff\n        /* \"#utility.yul\":5075:5081   */\n      dup2\n        /* \"#utility.yul\":5072:5102   */\n      gt\n        /* \"#utility.yul\":5069:5186   */\n      iszero\n      tag_328\n      jumpi\n        /* \"#utility.yul\":5105:5184   */\n      tag_329\n      tag_244\n      jump\t// in\n    tag_329:\n        /* \"#utility.yul\":5069:5186   */\n    tag_328:\n        /* \"#utility.yul\":5210:5273   */\n      tag_330\n        /* \"#utility.yul\":5265:5272   */\n      dup14\n        /* \"#utility.yul\":5256:5262   */\n      dup3\n        /* \"#utility.yul\":5245:5254   */\n      dup15\n        /* \"#utility.yul\":5241:5263   */\n      add\n        /* \"#utility.yul\":5210:5273   */\n      tag_254\n      jump\t// in\n    tag_330:\n        /* \"#utility.yul\":5200:5273   */\n      swap6\n      pop\n        /* \"#utility.yul\":4994:5283   */\n      pop\n        /* \"#utility.yul\":5350:5353   */\n      0xc0\n        /* \"#utility.yul\":5339:5348   */\n      dup12\n        /* \"#utility.yul\":5335:5354   */\n      add\n        /* \"#utility.yul\":5322:5355   */\n      calldataload\n        /* \"#utility.yul\":5382:5400   */\n      0xffffffffffffffff\n        /* \"#utility.yul\":5374:5380   */\n      dup2\n        /* \"#utility.yul\":5371:5401   */\n      gt\n        /* \"#utility.yul\":5368:5485   */\n      iszero\n      tag_331\n      jumpi\n        /* \"#utility.yul\":5404:5483   */\n      tag_332\n      tag_244\n      jump\t// in\n    tag_332:\n        /* \"#utility.yul\":5368:5485   */\n    tag_331:\n        /* \"#utility.yul\":5509:5572   */\n      tag_333\n        /* \"#utility.yul\":5564:5571   */\n      dup14\n        /* \"#utility.yul\":5555:5561   */\n      dup3\n        /* \"#utility.yul\":5544:5553   */\n      dup15\n        /* \"#utility.yul\":5540:5562   */\n      add\n        /* \"#utility.yul\":5509:5572   */\n      tag_254\n      jump\t// in\n    tag_333:\n        /* \"#utility.yul\":5499:5572   */\n      swap5\n      pop\n        /* \"#utility.yul\":5293:5582   */\n      pop\n        /* \"#utility.yul\":5649:5652   */\n      0xe0\n        /* \"#utility.yul\":5638:5647   */\n      dup12\n        /* \"#utility.yul\":5634:5653   */\n      add\n        /* \"#utility.yul\":5621:5654   */\n      calldataload\n        /* \"#utility.yul\":5681:5699   */\n      0xffffffffffffffff\n        /* \"#utility.yul\":5673:5679   */\n      dup2\n        /* \"#utility.yul\":5670:5700   */\n      gt\n        /* \"#utility.yul\":5667:5784   */\n      iszero\n      tag_334\n      jumpi\n        /* \"#utility.yul\":5703:5782   */\n      tag_335\n      tag_244\n      jump\t// in\n    tag_335:\n        /* \"#utility.yul\":5667:5784   */\n    tag_334:\n        /* \"#utility.yul\":5808:5871   */\n      tag_336\n        /* \"#utility.yul\":5863:5870   */\n      dup14\n        /* \"#utility.yul\":5854:5860   */\n      dup3\n        /* \"#utility.yul\":5843:5852   */\n      dup15\n        /* \"#utility.yul\":5839:5861   */\n      add\n        /* \"#utility.yul\":5808:5871   */\n      tag_254\n      jump\t// in\n    tag_336:\n        /* \"#utility.yul\":5798:5871   */\n      swap4\n      pop\n        /* \"#utility.yul\":5592:5881   */\n      pop\n        /* \"#utility.yul\":5920:5923   */\n      0x0100\n        /* \"#utility.yul\":5947:6000   */\n      tag_337\n        /* \"#utility.yul\":5992:5999   */\n      dup14\n        /* \"#utility.yul\":5983:5989   */\n      dup3\n        /* \"#utility.yul\":5972:5981   */\n      dup15\n        /* \"#utility.yul\":5968:5990   */\n      add\n        /* \"#utility.yul\":5947:6000   */\n      tag_258\n      jump\t// in\n    tag_337:\n        /* \"#utility.yul\":5937:6000   */\n      swap3\n      pop\n        /* \"#utility.yul\":5891:6010   */\n      pop\n        /* \"#utility.yul\":6077:6080   */\n      0x0120\n        /* \"#utility.yul\":6066:6075   */\n      dup12\n        /* \"#utility.yul\":6062:6081   */\n      add\n        /* \"#utility.yul\":6049:6082   */\n      calldataload\n        /* \"#utility.yul\":6109:6127   */\n      0xffffffffffffffff\n        /* \"#utility.yul\":6101:6107   */\n      dup2\n        /* \"#utility.yul\":6098:6128   */\n      gt\n        /* \"#utility.yul\":6095:6212   */\n      iszero\n      tag_338\n      jumpi\n        /* \"#utility.yul\":6131:6210   */\n      tag_339\n      tag_244\n      jump\t// in\n    tag_339:\n        /* \"#utility.yul\":6095:6212   */\n    tag_338:\n        /* \"#utility.yul\":6236:6299   */\n      tag_340\n        /* \"#utility.yul\":6291:6298   */\n      dup14\n        /* \"#utility.yul\":6282:6288   */\n      dup3\n        /* \"#utility.yul\":6271:6280   */\n      dup15\n        /* \"#utility.yul\":6267:6289   */\n      add\n        /* \"#utility.yul\":6236:6299   */\n      tag_254\n      jump\t// in\n    tag_340:\n        /* \"#utility.yul\":6226:6299   */\n      swap2\n      pop\n        /* \"#utility.yul\":6020:6309   */\n      pop\n        /* \"#utility.yul\":3055:6316   */\n      swap3\n      swap6\n      swap9\n      swap12\n      swap2\n      swap5\n      swap8\n      swap11\n      pop\n      swap3\n      swap6\n      swap9\n      pop\n      jump\t// out\n        /* \"#utility.yul\":6322:6421   */\n    tag_259:\n        /* \"#utility.yul\":6374:6380   */\n      0x00\n        /* \"#utility.yul\":6408:6413   */\n      dup2\n        /* \"#utility.yul\":6402:6414   */\n      mload\n        /* \"#utility.yul\":6392:6414   */\n      swap1\n      pop\n        /* \"#utility.yul\":6322:6421   */\n      swap2\n      swap1\n      pop\n      jump\t// out\n        /* \"#utility.yul\":6427:6596   */\n    tag_260:\n        /* \"#utility.yul\":6511:6522   */\n      0x00\n        /* \"#utility.yul\":6545:6551   */\n      dup3\n        /* \"#utility.yul\":6540:6543   */\n      dup3\n        /* \"#utility.yul\":6533:6552   */\n      mstore\n        /* \"#utility.yul\":6585:6589   */\n      0x20\n        /* \"#utility.yul\":6580:6583   */\n      dup3\n        /* \"#utility.yul\":6576:6590   */\n      add\n        /* \"#utility.yul\":6561:6590   */\n      swap1\n      pop\n        /* \"#utility.yul\":6427:6596   */\n      swap3\n      swap2\n      pop\n      pop\n      jump\t// out\n        /* \"#utility.yul\":6602:6909   */\n    tag_261:\n        /* \"#utility.yul\":6670:6671   */\n      0x00\n        /* \"#utility.yul\":6680:6793   */\n    tag_344:\n        /* \"#utility.yul\":6694:6700   */\n      dup4\n        /* \"#utility.yul\":6691:6692   */\n      dup2\n        /* \"#utility.yul\":6688:6701   */\n      lt\n        /* \"#utility.yul\":6680:6793   */\n      iszero\n      tag_346\n      jumpi\n        /* \"#utility.yul\":6779:6780   */\n      dup1\n        /* \"#utility.yul\":6774:6777   */\n      dup3\n        /* \"#utility.yul\":6770:6781   */\n      add\n        /* \"#utility.yul\":6764:6782   */\n      mload\n        /* \"#utility.yul\":6760:6761   */\n      dup2\n        /* \"#utility.yul\":6755:6758   */\n      dup5\n        /* \"#utility.yul\":6751:6762   */\n      add\n        /* \"#utility.yul\":6744:6783   */\n      mstore\n        /* \"#utility.yul\":6716:6718   */\n      0x20\n        /* \"#utility.yul\":6713:6714   */\n      dup2\n        /* \"#utility.yul\":6709:6719   */\n      add\n        /* \"#utility.yul\":6704:6719   */\n      swap1\n      pop\n        /* \"#utility.yul\":6680:6793   */\n      jump(tag_344)\n    tag_346:\n        /* \"#utility.yul\":6811:6817   */\n      dup4\n        /* \"#utility.yul\":6808:6809   */\n      dup2\n        /* \"#utility.yul\":6805:6818   */\n      gt\n        /* \"#utility.yul\":6802:6903   */\n      iszero\n      tag_347\n      jumpi\n        /* \"#utility.yul\":6891:6892   */\n      0x00\n        /* \"#utility.yul\":6882:6888   */\n      dup5\n        /* \"#utility.yul\":6877:6880   */\n      dup5\n        /* \"#utility.yul\":6873:6889   */\n      add\n        /* \"#utility.yul\":6866:6893   */\n      mstore\n        /* \"#utility.yul\":6802:6903   */\n    tag_347:\n        /* \"#utility.yul\":6651:6909   */\n      pop\n        /* \"#utility.yul\":6602:6909   */\n      pop\n      pop\n      pop\n      jump\t// out\n        /* \"#utility.yul\":6915:7279   */\n    tag_262:\n        /* \"#utility.yul\":7003:7006   */\n      0x00\n        /* \"#utility.yul\":7031:7070   */\n      tag_349\n        /* \"#utility.yul\":7064:7069   */\n      dup3\n        /* \"#utility.yul\":7031:7070   */\n      tag_259\n      jump\t// in\n    tag_349:\n        /* \"#utility.yul\":7086:7157   */\n      tag_350\n        /* \"#utility.yul\":7150:7156   */\n      dup2\n        /* \"#utility.yul\":7145:7148   */\n      dup6\n        /* \"#utility.yul\":7086:7157   */\n      tag_260\n      jump\t// in\n    tag_350:\n        /* \"#utility.yul\":7079:7157   */\n      swap4\n      pop\n        /* \"#utility.yul\":7166:7218   */\n      tag_351\n        /* \"#utility.yul\":7211:7217   */\n      dup2\n        /* \"#utility.yul\":7206:7209   */\n      dup6\n        /* \"#utility.yul\":7199:7203   */\n      0x20\n        /* \"#utility.yul\":7192:7197   */\n      dup7\n        /* \"#utility.yul\":7188:7204   */\n      add\n        /* \"#utility.yul\":7166:7218   */\n      tag_261\n      jump\t// in\n    tag_351:\n        /* \"#utility.yul\":7243:7272   */\n      tag_352\n        /* \"#utility.yul\":7265:7271   */\n      dup2\n        /* \"#utility.yul\":7243:7272   */\n      tag_247\n      jump\t// in\n    tag_352:\n        /* \"#utility.yul\":7238:7241   */\n      dup5\n        /* \"#utility.yul\":7234:7273   */\n      add\n        /* \"#utility.yul\":7227:7273   */\n      swap2\n      pop\n        /* \"#utility.yul\":7007:7279   */\n      pop\n        /* \"#utility.yul\":6915:7279   */\n      swap3\n      swap2\n      pop\n      pop\n      jump\t// out\n        /* \"#utility.yul\":7285:7403   */\n    tag_263:\n        /* \"#utility.yul\":7372:7396   */\n      tag_354\n        /* \"#utility.yul\":7390:7395   */\n      dup2\n        /* \"#utility.yul\":7372:7396   */\n      tag_256\n      jump\t// in\n    tag_354:\n        /* \"#utility.yul\":7367:7370   */\n      dup3\n        /* \"#utility.yul\":7360:7397   */\n      mstore\n        /* \"#utility.yul\":7285:7403   */\n      pop\n      pop\n      jump\t// out\n        /* \"#utility.yul\":7409:7486   */\n    tag_264:\n        /* \"#utility.yul\":7446:7453   */\n      0x00\n        /* \"#utility.yul\":7475:7480   */\n      dup2\n        /* \"#utility.yul\":7464:7480   */\n      swap1\n      pop\n        /* \"#utility.yul\":7409:7486   */\n      swap2\n      swap1\n      pop\n      jump\t// out\n        /* \"#utility.yul\":7492:7610   */\n    tag_265:\n        /* \"#utility.yul\":7579:7603   */\n      tag_357\n        /* \"#utility.yul\":7597:7602   */\n      dup2\n        /* \"#utility.yul\":7579:7603   */\n      tag_264\n      jump\t// in\n    tag_357:\n        /* \"#utility.yul\":7574:7577   */\n      dup3\n        /* \"#utility.yul\":7567:7604   */\n      mstore\n        /* \"#utility.yul\":7492:7610   */\n      pop\n      pop\n      jump\t// out\n        /* \"#utility.yul\":7616:8351   */\n    tag_22:\n        /* \"#utility.yul\":7833:7837   */\n      0x00\n        /* \"#utility.yul\":7871:7874   */\n      0x80\n        /* \"#utility.yul\":7860:7869   */\n      dup3\n        /* \"#utility.yul\":7856:7875   */\n      add\n        /* \"#utility.yul\":7848:7875   */\n      swap1\n      pop\n        /* \"#utility.yul\":7921:7930   */\n      dup2\n        /* \"#utility.yul\":7915:7919   */\n      dup2\n        /* \"#utility.yul\":7911:7931   */\n      sub\n        /* \"#utility.yul\":7907:7908   */\n      0x00\n        /* \"#utility.yul\":7896:7905   */\n      dup4\n        /* \"#utility.yul\":7892:7909   */\n      add\n        /* \"#utility.yul\":7885:7932   */\n      mstore\n        /* \"#utility.yul\":7949:8027   */\n      tag_359\n        /* \"#utility.yul\":8022:8026   */\n      dup2\n        /* \"#utility.yul\":8013:8019   */\n      dup8\n        /* \"#utility.yul\":7949:8027   */\n      tag_262\n      jump\t// in\n    tag_359:\n        /* \"#utility.yul\":7941:8027   */\n      swap1\n      pop\n        /* \"#utility.yul\":8074:8083   */\n      dup2\n        /* \"#utility.yul\":8068:8072   */\n      dup2\n        /* \"#utility.yul\":8064:8084   */\n      sub\n        /* \"#utility.yul\":8059:8061   */\n      0x20\n        /* \"#utility.yul\":8048:8057   */\n      dup4\n        /* \"#utility.yul\":8044:8062   */\n      add\n        /* \"#utility.yul\":8037:8085   */\n      mstore\n        /* \"#utility.yul\":8102:8180   */\n      tag_360\n        /* \"#utility.yul\":8175:8179   */\n      dup2\n        /* \"#utility.yul\":8166:8172   */\n      dup7\n        /* \"#utility.yul\":8102:8180   */\n      tag_262\n      jump\t// in\n    tag_360:\n        /* \"#utility.yul\":8094:8180   */\n      swap1\n      pop\n        /* \"#utility.yul\":8190:8262   */\n      tag_361\n        /* \"#utility.yul\":8258:8260   */\n      0x40\n        /* \"#utility.yul\":8247:8256   */\n      dup4\n        /* \"#utility.yul\":8243:8261   */\n      add\n        /* \"#utility.yul\":8234:8240   */\n      dup6\n        /* \"#utility.yul\":8190:8262   */\n      tag_263\n      jump\t// in\n    tag_361:\n        /* \"#utility.yul\":8272:8344   */\n      tag_362\n        /* \"#utility.yul\":8340:8342   */\n      0x60\n        /* \"#utility.yul\":8329:8338   */\n      dup4\n        /* \"#utility.yul\":8325:8343   */\n      add\n        /* \"#utility.yul\":8316:8322   */\n      dup5\n        /* \"#utility.yul\":8272:8344   */\n      tag_265\n      jump\t// in\n    tag_362:\n        /* \"#utility.yul\":7616:8351   */\n      swap6\n      swap5\n      pop\n      pop\n      pop\n      pop\n      pop\n      jump\t// out\n        /* \"#utility.yul\":8357:8670   */\n    tag_27:\n        /* \"#utility.yul\":8470:8474   */\n      0x00\n        /* \"#utility.yul\":8508:8510   */\n      0x20\n        /* \"#utility.yul\":8497:8506   */\n      dup3\n        /* \"#utility.yul\":8493:8511   */\n      add\n        /* \"#utility.yul\":8485:8511   */\n      swap1\n      pop\n        /* \"#utility.yul\":8557:8566   */\n      dup2\n        /* \"#utility.yul\":8551:8555   */\n      dup2\n        /* \"#utility.yul\":8547:8567   */\n      sub\n        /* \"#utility.yul\":8543:8544   */\n      0x00\n        /* \"#utility.yul\":8532:8541   */\n      dup4\n        /* \"#utility.yul\":8528:8545   */\n      add\n        /* \"#utility.yul\":8521:8568   */\n      mstore\n        /* \"#utility.yul\":8585:8663   */\n      tag_364\n        /* \"#utility.yul\":8658:8662   */\n      dup2\n        /* \"#utility.yul\":8649:8655   */\n      dup5\n        /* \"#utility.yul\":8585:8663   */\n      tag_262\n      jump\t// in\n    tag_364:\n        /* \"#utility.yul\":8577:8663   */\n      swap1\n      pop\n        /* \"#utility.yul\":8357:8670   */\n      swap3\n      swap2\n      pop\n      pop\n      jump\t// out\n        /* \"#utility.yul\":8676:8898   */\n    tag_32:\n        /* \"#utility.yul\":8769:8773   */\n      0x00\n        /* \"#utility.yul\":8807:8809   */\n      0x20\n        /* \"#utility.yul\":8796:8805   */\n      dup3\n        /* \"#utility.yul\":8792:8810   */\n      add\n        /* \"#utility.yul\":8784:8810   */\n      swap1\n      pop\n        /* \"#utility.yul\":8820:8891   */\n      tag_366\n        /* \"#utility.yul\":8888:8889   */\n      0x00\n        /* \"#utility.yul\":8877:8886   */\n      dup4\n        /* \"#utility.yul\":8873:8890   */\n      add\n        /* \"#utility.yul\":8864:8870   */\n      dup5\n        /* \"#utility.yul\":8820:8891   */\n      tag_263\n      jump\t// in\n    tag_366:\n        /* \"#utility.yul\":8676:8898   */\n      swap3\n      swap2\n      pop\n      pop\n      jump\t// out\n        /* \"#utility.yul\":8904:9126   */\n    tag_37:\n        /* \"#utility.yul\":8997:9001   */\n      0x00\n        /* \"#utility.yul\":9035:9037   */\n      0x20\n        /* \"#utility.yul\":9024:9033   */\n      dup3\n        /* \"#utility.yul\":9020:9038   */\n      add\n        /* \"#utility.yul\":9012:9038   */\n      swap1\n      pop\n        /* \"#utility.yul\":9048:9119   */\n      tag_368\n        /* \"#utility.yul\":9116:9117   */\n      0x00\n        /* \"#utility.yul\":9105:9114   */\n      dup4\n        /* \"#utility.yul\":9101:9118   */\n      add\n        /* \"#utility.yul\":9092:9098   */\n      dup5\n        /* \"#utility.yul\":9048:9119   */\n      tag_265\n      jump\t// in\n    tag_368:\n        /* \"#utility.yul\":8904:9126   */\n      swap3\n      swap2\n      pop\n      pop\n      jump\t// out\n        /* \"#utility.yul\":9132:9254   */\n    tag_266:\n        /* \"#utility.yul\":9205:9229   */\n      tag_370\n        /* \"#utility.yul\":9223:9228   */\n      dup2\n        /* \"#utility.yul\":9205:9229   */\n      tag_264\n      jump\t// in\n    tag_370:\n        /* \"#utility.yul\":9198:9203   */\n      dup2\n        /* \"#utility.yul\":9195:9230   */\n      eq\n        /* \"#utility.yul\":9185:9248   */\n      tag_371\n      jumpi\n        /* \"#utility.yul\":9244:9245   */\n      0x00\n        /* \"#utility.yul\":9241:9242   */\n      dup1\n        /* \"#utility.yul\":9234:9246   */\n      revert\n        /* \"#utility.yul\":9185:9248   */\n    tag_371:\n        /* \"#utility.yul\":9132:9254   */\n      pop\n      jump\t// out\n        /* \"#utility.yul\":9260:9399   */\n    tag_267:\n        /* \"#utility.yul\":9306:9311   */\n      0x00\n        /* \"#utility.yul\":9344:9350   */\n      dup2\n        /* \"#utility.yul\":9331:9351   */\n      calldataload\n        /* \"#utility.yul\":9322:9351   */\n      swap1\n      pop\n        /* \"#utility.yul\":9360:9393   */\n      tag_373\n        /* \"#utility.yul\":9387:9392   */\n      dup2\n        /* \"#utility.yul\":9360:9393   */\n      tag_266\n      jump\t// in\n    tag_373:\n        /* \"#utility.yul\":9260:9399   */\n      swap3\n      swap2\n      pop\n      pop\n      jump\t// out\n        /* \"#utility.yul\":9405:10059   */\n    tag_44:\n        /* \"#utility.yul\":9483:9489   */\n      0x00\n        /* \"#utility.yul\":9491:9497   */\n      dup1\n        /* \"#utility.yul\":9540:9542   */\n      0x40\n        /* \"#utility.yul\":9528:9537   */\n      dup4\n        /* \"#utility.yul\":9519:9526   */\n      dup6\n        /* \"#utility.yul\":9515:9538   */\n      sub\n        /* \"#utility.yul\":9511:9543   */\n      slt\n        /* \"#utility.yul\":9508:9627   */\n      iszero\n      tag_375\n      jumpi\n        /* \"#utility.yul\":9546:9625   */\n      tag_376\n      tag_243\n      jump\t// in\n    tag_376:\n        /* \"#utility.yul\":9508:9627   */\n    tag_375:\n        /* \"#utility.yul\":9666:9667   */\n      0x00\n        /* \"#utility.yul\":9691:9744   */\n      tag_377\n        /* \"#utility.yul\":9736:9743   */\n      dup6\n        /* \"#utility.yul\":9727:9733   */\n      dup3\n        /* \"#utility.yul\":9716:9725   */\n      dup7\n        /* \"#utility.yul\":9712:9734   */\n      add\n        /* \"#utility.yul\":9691:9744   */\n      tag_267\n      jump\t// in\n    tag_377:\n        /* \"#utility.yul\":9681:9744   */\n      swap3\n      pop\n        /* \"#utility.yul\":9637:9754   */\n      pop\n        /* \"#utility.yul\":9821:9823   */\n      0x20\n        /* \"#utility.yul\":9810:9819   */\n      dup4\n        /* \"#utility.yul\":9806:9824   */\n      add\n        /* \"#utility.yul\":9793:9825   */\n      calldataload\n        /* \"#utility.yul\":9852:9870   */\n      0xffffffffffffffff\n        /* \"#utility.yul\":9844:9850   */\n      dup2\n        /* \"#utility.yul\":9841:9871   */\n      gt\n        /* \"#utility.yul\":9838:9955   */\n      iszero\n      tag_378\n      jumpi\n        /* \"#utility.yul\":9874:9953   */\n      tag_379\n      tag_244\n      jump\t// in\n    tag_379:\n        /* \"#utility.yul\":9838:9955   */\n    tag_378:\n        /* \"#utility.yul\":9979:10042   */\n      tag_380\n        /* \"#utility.yul\":10034:10041   */\n      dup6\n        /* \"#utility.yul\":10025:10031   */\n      dup3\n        /* \"#utility.yul\":10014:10023   */\n      dup7\n        /* \"#utility.yul\":10010:10032   */\n      add\n        /* \"#utility.yul\":9979:10042   */\n      tag_254\n      jump\t// in\n    tag_380:\n        /* \"#utility.yul\":9969:10042   */\n      swap2\n      pop\n        /* \"#utility.yul\":9764:10052   */\n      pop\n        /* \"#utility.yul\":9405:10059   */\n      swap3\n      pop\n      swap3\n      swap1\n      pop\n      jump\t// out\n        /* \"#utility.yul\":10065:10394   */\n    tag_49:\n        /* \"#utility.yul\":10124:10130   */\n      0x00\n        /* \"#utility.yul\":10173:10175   */\n      0x20\n        /* \"#utility.yul\":10161:10170   */\n      dup3\n        /* \"#utility.yul\":10152:10159   */\n      dup5\n        /* \"#utility.yul\":10148:10171   */\n      sub\n        /* \"#utility.yul\":10144:10176   */\n      slt\n        /* \"#utility.yul\":10141:10260   */\n      iszero\n      tag_382\n      jumpi\n        /* \"#utility.yul\":10179:10258   */\n      tag_383\n      tag_243\n      jump\t// in\n    tag_383:\n        /* \"#utility.yul\":10141:10260   */\n    tag_382:\n        /* \"#utility.yul\":10299:10300   */\n      0x00\n        /* \"#utility.yul\":10324:10377   */\n      tag_384\n        /* \"#utility.yul\":10369:10376   */\n      dup5\n        /* \"#utility.yul\":10360:10366   */\n      dup3\n        /* \"#utility.yul\":10349:10358   */\n      dup6\n        /* \"#utility.yul\":10345:10367   */\n      add\n        /* \"#utility.yul\":10324:10377   */\n      tag_267\n      jump\t// in\n    tag_384:\n        /* \"#utility.yul\":10314:10377   */\n      swap2\n      pop\n        /* \"#utility.yul\":10270:10387   */\n      pop\n        /* \"#utility.yul\":10065:10394   */\n      swap3\n      swap2\n      pop\n      pop\n      jump\t// out\n        /* \"#utility.yul\":10400:10490   */\n    tag_268:\n        /* \"#utility.yul\":10434:10441   */\n      0x00\n        /* \"#utility.yul\":10477:10482   */\n      dup2\n        /* \"#utility.yul\":10470:10483   */\n      iszero\n        /* \"#utility.yul\":10463:10484   */\n      iszero\n        /* \"#utility.yul\":10452:10484   */\n      swap1\n      pop\n        /* \"#utility.yul\":10400:10490   */\n      swap2\n      swap1\n      pop\n      jump\t// out\n        /* \"#utility.yul\":10496:10605   */\n    tag_269:\n        /* \"#utility.yul\":10577:10598   */\n      tag_387\n        /* \"#utility.yul\":10592:10597   */\n      dup2\n        /* \"#utility.yul\":10577:10598   */\n      tag_268\n      jump\t// in\n    tag_387:\n        /* \"#utility.yul\":10572:10575   */\n      dup3\n        /* \"#utility.yul\":10565:10599   */\n      mstore\n        /* \"#utility.yul\":10496:10605   */\n      pop\n      pop\n      jump\t// out\n        /* \"#utility.yul\":10611:12750   */\n    tag_52:\n        /* \"#utility.yul\":11159:11163   */\n      0x00\n        /* \"#utility.yul\":11197:11200   */\n      0x0160\n        /* \"#utility.yul\":11186:11195   */\n      dup3\n        /* \"#utility.yul\":11182:11201   */\n      add\n        /* \"#utility.yul\":11174:11201   */\n      swap1\n      pop\n        /* \"#utility.yul\":11247:11256   */\n      dup2\n        /* \"#utility.yul\":11241:11245   */\n      dup2\n        /* \"#utility.yul\":11237:11257   */\n      sub\n        /* \"#utility.yul\":11233:11234   */\n      0x00\n        /* \"#utility.yul\":11222:11231   */\n      dup4\n        /* \"#utility.yul\":11218:11235   */\n      add\n        /* \"#utility.yul\":11211:11258   */\n      mstore\n        /* \"#utility.yul\":11275:11353   */\n      tag_389\n        /* \"#utility.yul\":11348:11352   */\n      dup2\n        /* \"#utility.yul\":11339:11345   */\n      dup15\n        /* \"#utility.yul\":11275:11353   */\n      tag_262\n      jump\t// in\n    tag_389:\n        /* \"#utility.yul\":11267:11353   */\n      swap1\n      pop\n        /* \"#utility.yul\":11400:11409   */\n      dup2\n        /* \"#utility.yul\":11394:11398   */\n      dup2\n        /* \"#utility.yul\":11390:11410   */\n      sub\n        /* \"#utility.yul\":11385:11387   */\n      0x20\n        /* \"#utility.yul\":11374:11383   */\n      dup4\n        /* \"#utility.yul\":11370:11388   */\n      add\n        /* \"#utility.yul\":11363:11411   */\n      mstore\n        /* \"#utility.yul\":11428:11506   */\n      tag_390\n        /* \"#utility.yul\":11501:11505   */\n      dup2\n        /* \"#utility.yul\":11492:11498   */\n      dup14\n        /* \"#utility.yul\":11428:11506   */\n      tag_262\n      jump\t// in\n    tag_390:\n        /* \"#utility.yul\":11420:11506   */\n      swap1\n      pop\n        /* \"#utility.yul\":11553:11562   */\n      dup2\n        /* \"#utility.yul\":11547:11551   */\n      dup2\n        /* \"#utility.yul\":11543:11563   */\n      sub\n        /* \"#utility.yul\":11538:11540   */\n      0x40\n        /* \"#utility.yul\":11527:11536   */\n      dup4\n        /* \"#utility.yul\":11523:11541   */\n      add\n        /* \"#utility.yul\":11516:11564   */\n      mstore\n        /* \"#utility.yul\":11581:11659   */\n      tag_391\n        /* \"#utility.yul\":11654:11658   */\n      dup2\n        /* \"#utility.yul\":11645:11651   */\n      dup13\n        /* \"#utility.yul\":11581:11659   */\n      tag_262\n      jump\t// in\n    tag_391:\n        /* \"#utility.yul\":11573:11659   */\n      swap1\n      pop\n        /* \"#utility.yul\":11706:11715   */\n      dup2\n        /* \"#utility.yul\":11700:11704   */\n      dup2\n        /* \"#utility.yul\":11696:11716   */\n      sub\n        /* \"#utility.yul\":11691:11693   */\n      0x60\n        /* \"#utility.yul\":11680:11689   */\n      dup4\n        /* \"#utility.yul\":11676:11694   */\n      add\n        /* \"#utility.yul\":11669:11717   */\n      mstore\n        /* \"#utility.yul\":11734:11812   */\n      tag_392\n        /* \"#utility.yul\":11807:11811   */\n      dup2\n        /* \"#utility.yul\":11798:11804   */\n      dup12\n        /* \"#utility.yul\":11734:11812   */\n      tag_262\n      jump\t// in\n    tag_392:\n        /* \"#utility.yul\":11726:11812   */\n      swap1\n      pop\n        /* \"#utility.yul\":11860:11869   */\n      dup2\n        /* \"#utility.yul\":11854:11858   */\n      dup2\n        /* \"#utility.yul\":11850:11870   */\n      sub\n        /* \"#utility.yul\":11844:11847   */\n      0x80\n        /* \"#utility.yul\":11833:11842   */\n      dup4\n        /* \"#utility.yul\":11829:11848   */\n      add\n        /* \"#utility.yul\":11822:11871   */\n      mstore\n        /* \"#utility.yul\":11888:11966   */\n      tag_393\n        /* \"#utility.yul\":11961:11965   */\n      dup2\n        /* \"#utility.yul\":11952:11958   */\n      dup11\n        /* \"#utility.yul\":11888:11966   */\n      tag_262\n      jump\t// in\n    tag_393:\n        /* \"#utility.yul\":11880:11966   */\n      swap1\n      pop\n        /* \"#utility.yul\":12014:12023   */\n      dup2\n        /* \"#utility.yul\":12008:12012   */\n      dup2\n        /* \"#utility.yul\":12004:12024   */\n      sub\n        /* \"#utility.yul\":11998:12001   */\n      0xa0\n        /* \"#utility.yul\":11987:11996   */\n      dup4\n        /* \"#utility.yul\":11983:12002   */\n      add\n        /* \"#utility.yul\":11976:12025   */\n      mstore\n        /* \"#utility.yul\":12042:12120   */\n      tag_394\n        /* \"#utility.yul\":12115:12119   */\n      dup2\n        /* \"#utility.yul\":12106:12112   */\n      dup10\n        /* \"#utility.yul\":12042:12120   */\n      tag_262\n      jump\t// in\n    tag_394:\n        /* \"#utility.yul\":12034:12120   */\n      swap1\n      pop\n        /* \"#utility.yul\":12168:12177   */\n      dup2\n        /* \"#utility.yul\":12162:12166   */\n      dup2\n        /* \"#utility.yul\":12158:12178   */\n      sub\n        /* \"#utility.yul\":12152:12155   */\n      0xc0\n        /* \"#utility.yul\":12141:12150   */\n      dup4\n        /* \"#utility.yul\":12137:12156   */\n      add\n        /* \"#utility.yul\":12130:12179   */\n      mstore\n        /* \"#utility.yul\":12196:12274   */\n      tag_395\n        /* \"#utility.yul\":12269:12273   */\n      dup2\n        /* \"#utility.yul\":12260:12266   */\n      dup9\n        /* \"#utility.yul\":12196:12274   */\n      tag_262\n      jump\t// in\n    tag_395:\n        /* \"#utility.yul\":12188:12274   */\n      swap1\n      pop\n        /* \"#utility.yul\":12322:12331   */\n      dup2\n        /* \"#utility.yul\":12316:12320   */\n      dup2\n        /* \"#utility.yul\":12312:12332   */\n      sub\n        /* \"#utility.yul\":12306:12309   */\n      0xe0\n        /* \"#utility.yul\":12295:12304   */\n      dup4\n        /* \"#utility.yul\":12291:12310   */\n      add\n        /* \"#utility.yul\":12284:12333   */\n      mstore\n        /* \"#utility.yul\":12350:12428   */\n      tag_396\n        /* \"#utility.yul\":12423:12427   */\n      dup2\n        /* \"#utility.yul\":12414:12420   */\n      dup8\n        /* \"#utility.yul\":12350:12428   */\n      tag_262\n      jump\t// in\n    tag_396:\n        /* \"#utility.yul\":12342:12428   */\n      swap1\n      pop\n        /* \"#utility.yul\":12476:12485   */\n      dup2\n        /* \"#utility.yul\":12470:12474   */\n      dup2\n        /* \"#utility.yul\":12466:12486   */\n      sub\n        /* \"#utility.yul\":12460:12463   */\n      0x0100\n        /* \"#utility.yul\":12449:12458   */\n      dup4\n        /* \"#utility.yul\":12445:12464   */\n      add\n        /* \"#utility.yul\":12438:12487   */\n      mstore\n        /* \"#utility.yul\":12504:12582   */\n      tag_397\n        /* \"#utility.yul\":12577:12581   */\n      dup2\n        /* \"#utility.yul\":12568:12574   */\n      dup7\n        /* \"#utility.yul\":12504:12582   */\n      tag_262\n      jump\t// in\n    tag_397:\n        /* \"#utility.yul\":12496:12582   */\n      swap1\n      pop\n        /* \"#utility.yul\":12592:12665   */\n      tag_398\n        /* \"#utility.yul\":12660:12663   */\n      0x0120\n        /* \"#utility.yul\":12649:12658   */\n      dup4\n        /* \"#utility.yul\":12645:12664   */\n      add\n        /* \"#utility.yul\":12636:12642   */\n      dup6\n        /* \"#utility.yul\":12592:12665   */\n      tag_263\n      jump\t// in\n    tag_398:\n        /* \"#utility.yul\":12675:12743   */\n      tag_399\n        /* \"#utility.yul\":12738:12741   */\n      0x0140\n        /* \"#utility.yul\":12727:12736   */\n      dup4\n        /* \"#utility.yul\":12723:12742   */\n      add\n        /* \"#utility.yul\":12713:12720   */\n      dup5\n        /* \"#utility.yul\":12675:12743   */\n      tag_269\n      jump\t// in\n    tag_399:\n        /* \"#utility.yul\":10611:12750   */\n      swap13\n      swap12\n      pop\n      pop\n      pop\n      pop\n      pop\n      pop\n      pop\n      pop\n      pop\n      pop\n      pop\n      pop\n      jump\t// out\n        /* \"#utility.yul\":12756:12936   */\n    tag_270:\n        /* \"#utility.yul\":12804:12881   */\n      0x4e487b7100000000000000000000000000000000000000000000000000000000\n        /* \"#utility.yul\":12801:12802   */\n      0x00\n        /* \"#utility.yul\":12794:12882   */\n      mstore\n        /* \"#utility.yul\":12901:12905   */\n      0x11\n        /* \"#utility.yul\":12898:12899   */\n      0x04\n        /* \"#utility.yul\":12891:12906   */\n      mstore\n        /* \"#utility.yul\":12925:12929   */\n      0x24\n        /* \"#utility.yul\":12922:12923   */\n      0x00\n        /* \"#utility.yul\":12915:12930   */\n      revert\n        /* \"#utility.yul\":12942:13247   */\n    tag_77:\n        /* \"#utility.yul\":12982:12985   */\n      0x00\n        /* \"#utility.yul\":13001:13021   */\n      tag_402\n        /* \"#utility.yul\":13019:13020   */\n      dup3\n        /* \"#utility.yul\":13001:13021   */\n      tag_264\n      jump\t// in\n    tag_402:\n        /* \"#utility.yul\":12996:13021   */\n      swap2\n      pop\n        /* \"#utility.yul\":13035:13055   */\n      tag_403\n        /* \"#utility.yul\":13053:13054   */\n      dup4\n        /* \"#utility.yul\":13035:13055   */\n      tag_264\n      jump\t// in\n    tag_403:\n        /* \"#utility.yul\":13030:13055   */\n      swap3\n      pop\n        /* \"#utility.yul\":13189:13190   */\n      dup3\n        /* \"#utility.yul\":13121:13187   */\n      0xffffffffffffffffffffffffffffffffffffffffffffffffffffffffffffffff\n        /* \"#utility.yul\":13117:13191   */\n      sub\n        /* \"#utility.yul\":13114:13115   */\n      dup3\n        /* \"#utility.yul\":13111:13192   */\n      gt\n        /* \"#utility.yul\":13108:13215   */\n      iszero\n      tag_404\n      jumpi\n        /* \"#utility.yul\":13195:13213   */\n      tag_405\n      tag_270\n      jump\t// in\n    tag_405:\n        /* \"#utility.yul\":13108:13215   */\n    tag_404:\n        /* \"#utility.yul\":13239:13240   */\n      dup3\n        /* \"#utility.yul\":13236:13237   */\n      dup3\n        /* \"#utility.yul\":13232:13241   */\n      add\n        /* \"#utility.yul\":13225:13241   */\n      swap1\n      pop\n        /* \"#utility.yul\":12942:13247   */\n      swap3\n      swap2\n      pop\n      pop\n      jump\t// out\n        /* \"#utility.yul\":13253:13433   */\n    tag_271:\n        /* \"#utility.yul\":13301:13378   */\n      0x4e487b7100000000000000000000000000000000000000000000000000000000\n        /* \"#utility.yul\":13298:13299   */\n      0x00\n        /* \"#utility.yul\":13291:13379   */\n      mstore\n        /* \"#utility.yul\":13398:13402   */\n      0x22\n        /* \"#utility.yul\":13395:13396   */\n      0x04\n        /* \"#utility.yul\":13388:13403   */\n      mstore\n        /* \"#utility.yul\":13422:13426   */\n      0x24\n        /* \"#utility.yul\":13419:13420   */\n      0x00\n        /* \"#utility.yul\":13412:13427   */\n      revert\n        /* \"#utility.yul\":13439:13759   */\n    tag_80:\n        /* \"#utility.yul\":13483:13489   */\n      0x00\n        /* \"#utility.yul\":13520:13521   */\n      0x02\n        /* \"#utility.yul\":13514:13518   */\n      dup3\n        /* \"#utility.yul\":13510:13522   */\n      div\n        /* \"#utility.yul\":13500:13522   */\n      swap1\n      pop\n        /* \"#utility.yul\":13567:13568   */\n      0x01\n        /* \"#utility.yul\":13561:13565   */\n      dup3\n        /* \"#utility.yul\":13557:13569   */\n      and\n        /* \"#utility.yul\":13588:13606   */\n      dup1\n        /* \"#utility.yul\":13578:13659   */\n      tag_408\n      jumpi\n        /* \"#utility.yul\":13644:13648   */\n      0x7f\n        /* \"#utility.yul\":13636:13642   */\n      dup3\n        /* \"#utility.yul\":13632:13649   */\n      and\n        /* \"#utility.yul\":13622:13649   */\n      swap2\n      pop\n        /* \"#utility.yul\":13578:13659   */\n    tag_408:\n        /* \"#utility.yul\":13706:13708   */\n      0x20\n        /* \"#utility.yul\":13698:13704   */\n      dup3\n        /* \"#utility.yul\":13695:13709   */\n      lt\n        /* \"#utility.yul\":13675:13693   */\n      dup2\n        /* \"#utility.yul\":13672:13710   */\n      eq\n        /* \"#utility.yul\":13669:13753   */\n      iszero\n      tag_409\n      jumpi\n        /* \"#utility.yul\":13725:13743   */\n      tag_410\n      tag_271\n      jump\t// in\n    tag_410:\n        /* \"#utility.yul\":13669:13753   */\n    tag_409:\n        /* \"#utility.yul\":13490:13759   */\n      pop\n        /* \"#utility.yul\":13439:13759   */\n      swap2\n      swap1\n      pop\n      jump\t// out\n        /* \"#utility.yul\":13765:13945   */\n    tag_104:\n        /* \"#utility.yul\":13813:13890   */\n      0x4e487b7100000000000000000000000000000000000000000000000000000000\n        /* \"#utility.yul\":13810:13811   */\n      0x00\n        /* \"#utility.yul\":13803:13891   */\n      mstore\n        /* \"#utility.yul\":13910:13914   */\n      0x32\n        /* \"#utility.yul\":13907:13908   */\n      0x04\n        /* \"#utility.yul\":13900:13915   */\n      mstore\n        /* \"#utility.yul\":13934:13938   */\n      0x24\n        /* \"#utility.yul\":13931:13932   */\n      0x00\n        /* \"#utility.yul\":13924:13939   */\n      revert\n        /* \"#utility.yul\":13951:14142   */\n    tag_129:\n        /* \"#utility.yul\":13991:13995   */\n      0x00\n        /* \"#utility.yul\":14011:14031   */\n      tag_413\n        /* \"#utility.yul\":14029:14030   */\n      dup3\n        /* \"#utility.yul\":14011:14031   */\n      tag_264\n      jump\t// in\n    tag_413:\n        /* \"#utility.yul\":14006:14031   */\n      swap2\n      pop\n        /* \"#utility.yul\":14045:14065   */\n      tag_414\n        /* \"#utility.yul\":14063:14064   */\n      dup4\n        /* \"#utility.yul\":14045:14065   */\n      tag_264\n      jump\t// in\n    tag_414:\n        /* \"#utility.yul\":14040:14065   */\n      swap3\n      pop\n        /* \"#utility.yul\":14084:14085   */\n      dup3\n        /* \"#utility.yul\":14081:14082   */\n      dup3\n        /* \"#utility.yul\":14078:14086   */\n      lt\n        /* \"#utility.yul\":14075:14109   */\n      iszero\n      tag_415\n      jumpi\n        /* \"#utility.yul\":14089:14107   */\n      tag_416\n      tag_270\n      jump\t// in\n    tag_416:\n        /* \"#utility.yul\":14075:14109   */\n    tag_415:\n        /* \"#utility.yul\":14134:14135   */\n      dup3\n        /* \"#utility.yul\":14131:14132   */\n      dup3\n        /* \"#utility.yul\":14127:14136   */\n      sub\n        /* \"#utility.yul\":14119:14136   */\n      swap1\n      pop\n        /* \"#utility.yul\":13951:14142   */\n      swap3\n      swap2\n      pop\n      pop\n      jump\t// out\n\n    auxdata: 0xa2646970667358221220723cec951a075b3b47f6865cd8de2870c72be594b3b8229f6b192f6187e9e6a764736f6c63430008090033\n}\n","bytecode":{"linkReferences":{},"object":"60806040523480156200001157600080fd5b50604051620021b5380380620021b583398181016040528101906200003791906200034b565b80600260006101000a81548173ffffffffffffffffffffffffffffffffffffffff021916908373ffffffffffffffffffffffffffffffffffffffff16021790555081600390805190602001906200009092919062000099565b50505062000416565b828054620000a790620003e0565b90600052602060002090601f016020900481019282620000cb576000855562000117565b82601f10620000e657805160ff191683800117855562000117565b8280016001018555821562000117579182015b8281111562000116578251825591602001919060010190620000f9565b5b5090506200012691906200012a565b5090565b5b80821115620001455760008160009055506001016200012b565b5090565b6000604051905090565b600080fd5b600080fd5b600080fd5b600080fd5b6000601f19601f8301169050919050565b7f4e487b7100000000000000000000000000000000000000000000000000000000600052604160045260246000fd5b620001b28262000167565b810181811067ffffffffffffffff82111715620001d457620001d362000178565b5b80604052505050565b6000620001e962000149565b9050620001f78282620001a7565b919050565b600067ffffffffffffffff8211156200021a576200021962000178565b5b620002258262000167565b9050602081019050919050565b60005b838110156200025257808201518184015260208101905062000235565b8381111562000262576000848401525b50505050565b60006200027f6200027984620001fc565b620001dd565b9050828152602081018484840111156200029e576200029d62000162565b5b620002ab84828562000232565b509392505050565b600082601f830112620002cb57620002ca6200015d565b5b8151620002dd84826020860162000268565b91505092915050565b600073ffffffffffffffffffffffffffffffffffffffff82169050919050565b60006200031382620002e6565b9050919050565b620003258162000306565b81146200033157600080fd5b50565b60008151905062000345816200031a565b92915050565b6000806040838503121562000365576200036462000153565b5b600083015167ffffffffffffffff81111562000386576200038562000158565b5b6200039485828601620002b3565b9250506020620003a78582860162000334565b9150509250929050565b7f4e487b7100000000000000000000000000000000000000000000000000000000600052602260045260246000fd5b60006002820490506001821680620003f957607f821691505b6020821081141562000410576200040f620003b1565b5b50919050565b611d8f80620004266000396000f3fe6080604052600436106100915760003560e01c806384bd51041161005957806384bd51041461016e57806397c85a61146101995780639ace38c2146101b5578063e5fe34af146101fc578063fbe963851461024357610091565b8063077c34a41461009657806312065fe0146100bf57806327b77d46146100ed578063481c6a7514610118578063578cb8f914610143575b600080fd5b3480156100a257600080fd5b506100bd60048036038101906100b89190611720565b61026e565b005b3480156100cb57600080fd5b506100d4610453565b6040516100e494939291906119ab565b60405180910390f35b3480156100f957600080fd5b506101026105a9565b60405161010f91906119fe565b60405180910390f35b34801561012457600080fd5b5061012d610637565b60405161013a9190611a20565b60405180910390f35b34801561014f57600080fd5b5061015861065d565b6040516101659190611a3b565b60405180910390f35b34801561017a57600080fd5b50610183610669565b60405161019091906119fe565b60405180910390f35b6101b360048036038101906101ae9190611a82565b6106f7565b005b3480156101c157600080fd5b506101dc60048036038101906101d79190611ade565b61096d565b6040516101f39b9a99989796959493929190611b26565b60405180910390f35b34801561020857600080fd5b50610223600480360381019061021e9190611ade565b610ecc565b60405161023a9b9a99989796959493929190611b26565b60405180910390f35b34801561024f57600080fd5b5061025861142b565b6040516102659190611a3b565b60405180910390f35b600260009054906101000a900473ffffffffffffffffffffffffffffffffffffffff1673ffffffffffffffffffffffffffffffffffffffff163373ffffffffffffffffffffffffffffffffffffffff16146102c857600080fd5b6000806001816001815401808255809150500390600052602060002090600a020190508a816000019080519060200190610303929190611438565b508981600101908051906020019061031c929190611438565b5088816002019080519060200190610335929190611438565b508781600301908051906020019061034e929190611438565b5086816004019080519060200190610367929190611438565b5085816005019080519060200190610380929190611438565b5084816006019080519060200190610399929190611438565b50838160070190805190602001906103b2929190611438565b5060008160090160146101000a81548160ff021916908315150217905550828160090160006101000a81548173ffffffffffffffffffffffffffffffffffffffff021916908373ffffffffffffffffffffffffffffffffffffffff1602179055508181600801908051906020019061042b929190611438565b5060016005600082825461043f9190611c3f565b925050819055505050505050505050505050565b60608060008060036004600260009054906101000a900473ffffffffffffffffffffffffffffffffffffffff1660055483805461048f90611cc4565b80601f01602080910402602001604051908101604052809291908181526020018280546104bb90611cc4565b80156105085780601f106104dd57610100808354040283529160200191610508565b820191906000526020600020905b8154815290600101906020018083116104eb57829003601f168201915b5050505050935082805461051b90611cc4565b80601f016020809104026020016040519081016040528092919081815260200182805461054790611cc4565b80156105945780601f1061056957610100808354040283529160200191610594565b820191906000526020600020905b81548152906001019060200180831161057757829003601f168201915b50505050509250935093509350935090919293565b600380546105b690611cc4565b80601f01602080910402602001604051908101604052809291908181526020018280546105e290611cc4565b801561062f5780601f106106045761010080835404028352916020019161062f565b820191906000526020600020905b81548152906001019060200180831161061257829003601f168201915b505050505081565b600260009054906101000a900473ffffffffffffffffffffffffffffffffffffffff1681565b60008080549050905090565b6004805461067690611cc4565b80601f01602080910402602001604051908101604052809291908181526020018280546106a290611cc4565b80156106ef5780601f106106c4576101008083540402835291602001916106ef565b820191906000526020600020905b8154815290600101906020018083116106d257829003601f168201915b505050505081565b600080838154811061070c5761070b611cf6565b5b90600052602060002090600a020190508060090160149054906101000a900460ff161561073857600080fd5b816004908051906020019061074e929190611438565b5060018160090160146101000a81548160ff02191690831515021790555060018190806001815401808255809150506001900390600052602060002090600a020160009091909190915060008201816000019080546107ac90611cc4565b6107b79291906114be565b5060018201816001019080546107cc90611cc4565b6107d79291906114be565b5060028201816002019080546107ec90611cc4565b6107f79291906114be565b50600382018160030190805461080c90611cc4565b6108179291906114be565b50600482018160040190805461082c90611cc4565b6108379291906114be565b50600582018160050190805461084c90611cc4565b6108579291906114be565b50600682018160060190805461086c90611cc4565b6108779291906114be565b50600782018160070190805461088c90611cc4565b6108979291906114be565b5060088201816008019080546108ac90611cc4565b6108b79291906114be565b506009820160009054906101000a900473ffffffffffffffffffffffffffffffffffffffff168160090160006101000a81548173ffffffffffffffffffffffffffffffffffffffff021916908373ffffffffffffffffffffffffffffffffffffffff1602179055506009820160149054906101000a900460ff168160090160146101000a81548160ff02191690831515021790555050506001600560008282546109619190611d25565b92505081905550505050565b6000818154811061097d57600080fd5b90600052602060002090600a02016000915090508060000180546109a090611cc4565b80601f01602080910402602001604051908101604052809291908181526020018280546109cc90611cc4565b8015610a195780601f106109ee57610100808354040283529160200191610a19565b820191906000526020600020905b8154815290600101906020018083116109fc57829003601f168201915b505050505090806001018054610a2e90611cc4565b80601f0160208091040260200160405190810160405280929190818152602001828054610a5a90611cc4565b8015610aa75780601f10610a7c57610100808354040283529160200191610aa7565b820191906000526020600020905b815481529060010190602001808311610a8a57829003601f168201915b505050505090806002018054610abc90611cc4565b80601f0160208091040260200160405190810160405280929190818152602001828054610ae890611cc4565b8015610b355780601f10610b0a57610100808354040283529160200191610b35565b820191906000526020600020905b815481529060010190602001808311610b1857829003601f168201915b505050505090806003018054610b4a90611cc4565b80601f0160208091040260200160405190810160405280929190818152602001828054610b7690611cc4565b8015610bc35780601f10610b9857610100808354040283529160200191610bc3565b820191906000526020600020905b815481529060010190602001808311610ba657829003601f168201915b505050505090806004018054610bd890611cc4565b80601f0160208091040260200160405190810160405280929190818152602001828054610c0490611cc4565b8015610c515780601f10610c2657610100808354040283529160200191610c51565b820191906000526020600020905b815481529060010190602001808311610c3457829003601f168201915b505050505090806005018054610c6690611cc4565b80601f0160208091040260200160405190810160405280929190818152602001828054610c9290611cc4565b8015610cdf5780601f10610cb457610100808354040283529160200191610cdf565b820191906000526020600020905b815481529060010190602001808311610cc257829003601f168201915b505050505090806006018054610cf490611cc4565b80601f0160208091040260200160405190810160405280929190818152602001828054610d2090611cc4565b8015610d6d5780601f10610d4257610100808354040283529160200191610d6d565b820191906000526020600020905b815481529060010190602001808311610d5057829003601f168201915b505050505090806007018054610d8290611cc4565b80601f0160208091040260200160405190810160405280929190818152602001828054610dae90611cc4565b8015610dfb5780601f10610dd057610100808354040283529160200191610dfb565b820191906000526020600020905b815481529060010190602001808311610dde57829003601f168201915b505050505090806008018054610e1090611cc4565b80601f0160208091040260200160405190810160405280929190818152602001828054610e3c90611cc4565b8015610e895780601f10610e5e57610100808354040283529160200191610e89565b820191906000526020600020905b815481529060010190602001808311610e6c57829003601f168201915b5050505050908060090160009054906101000a900473ffffffffffffffffffffffffffffffffffffffff16908060090160149054906101000a900460ff1690508b565b60018181548110610edc57600080fd5b90600052602060002090600a0201600091509050806000018054610eff90611cc4565b80601f0160208091040260200160405190810160405280929190818152602001828054610f2b90611cc4565b8015610f785780601f10610f4d57610100808354040283529160200191610f78565b820191906000526020600020905b815481529060010190602001808311610f5b57829003601f168201915b505050505090806001018054610f8d90611cc4565b80601f0160208091040260200160405190810160405280929190818152602001828054610fb990611cc4565b80156110065780601f10610fdb57610100808354040283529160200191611006565b820191906000526020600020905b815481529060010190602001808311610fe957829003601f168201915b50505050509080600201805461101b90611cc4565b80601f016020809104026020016040519081016040528092919081815260200182805461104790611cc4565b80156110945780601f1061106957610100808354040283529160200191611094565b820191906000526020600020905b81548152906001019060200180831161107757829003601f168201915b5050505050908060030180546110a990611cc4565b80601f01602080910402602001604051908101604052809291908181526020018280546110d590611cc4565b80156111225780601f106110f757610100808354040283529160200191611122565b820191906000526020600020905b81548152906001019060200180831161110557829003601f168201915b50505050509080600401805461113790611cc4565b80601f016020809104026020016040519081016040528092919081815260200182805461116390611cc4565b80156111b05780601f10611185576101008083540402835291602001916111b0565b820191906000526020600020905b81548152906001019060200180831161119357829003601f168201915b5050505050908060050180546111c590611cc4565b80601f01602080910402602001604051908101604052809291908181526020018280546111f190611cc4565b801561123e5780601f106112135761010080835404028352916020019161123e565b820191906000526020600020905b81548152906001019060200180831161122157829003601f168201915b50505050509080600601805461125390611cc4565b80601f016020809104026020016040519081016040528092919081815260200182805461127f90611cc4565b80156112cc5780601f106112a1576101008083540402835291602001916112cc565b820191906000526020600020905b8154815290600101906020018083116112af57829003601f168201915b5050505050908060070180546112e190611cc4565b80601f016020809104026020016040519081016040528092919081815260200182805461130d90611cc4565b801561135a5780601f1061132f5761010080835404028352916020019161135a565b820191906000526020600020905b81548152906001019060200180831161133d57829003601f168201915b50505050509080600801805461136f90611cc4565b80601f016020809104026020016040519081016040528092919081815260200182805461139b90611cc4565b80156113e85780601f106113bd576101008083540402835291602001916113e8565b820191906000526020600020905b8154815290600101906020018083116113cb57829003601f168201915b5050505050908060090160009054906101000a900473ffffffffffffffffffffffffffffffffffffffff16908060090160149054906101000a900460ff1690508b565b6000600180549050905090565b82805461144490611cc4565b90600052602060002090601f01602090048101928261146657600085556114ad565b82601f1061147f57805160ff19168380011785556114ad565b828001600101855582156114ad579182015b828111156114ac578251825591602001919060010190611491565b5b5090506114ba919061154b565b5090565b8280546114ca90611cc4565b90600052602060002090601f0160209004810192826114ec576000855561153a565b82601f106114fd578054855561153a565b8280016001018555821561153a57600052602060002091601f016020900482015b8281111561153957825482559160010191906001019061151e565b5b509050611547919061154b565b5090565b5b8082111561156457600081600090555060010161154c565b5090565b6000604051905090565b600080fd5b600080fd5b600080fd5b600080fd5b6000601f19601f8301169050919050565b7f4e487b7100000000000000000000000000000000000000000000000000000000600052604160045260246000fd5b6115cf82611586565b810181811067ffffffffffffffff821117156115ee576115ed611597565b5b80604052505050565b6000611601611568565b905061160d82826115c6565b919050565b600067ffffffffffffffff82111561162d5761162c611597565b5b61163682611586565b9050602081019050919050565b82818337600083830152505050565b600061166561166084611612565b6115f7565b90508281526020810184848401111561168157611680611581565b5b61168c848285611643565b509392505050565b600082601f8301126116a9576116a861157c565b5b81356116b9848260208601611652565b91505092915050565b600073ffffffffffffffffffffffffffffffffffffffff82169050919050565b60006116ed826116c2565b9050919050565b6116fd816116e2565b811461170857600080fd5b50565b60008135905061171a816116f4565b92915050565b6000806000806000806000806000806101408b8d03121561174457611743611572565b5b60008b013567ffffffffffffffff81111561176257611761611577565b5b61176e8d828e01611694565b9a505060208b013567ffffffffffffffff81111561178f5761178e611577565b5b61179b8d828e01611694565b99505060408b013567ffffffffffffffff8111156117bc576117bb611577565b5b6117c88d828e01611694565b98505060608b013567ffffffffffffffff8111156117e9576117e8611577565b5b6117f58d828e01611694565b97505060808b013567ffffffffffffffff81111561181657611815611577565b5b6118228d828e01611694565b96505060a08b013567ffffffffffffffff81111561184357611842611577565b5b61184f8d828e01611694565b95505060c08b013567ffffffffffffffff8111156118705761186f611577565b5b61187c8d828e01611694565b94505060e08b013567ffffffffffffffff81111561189d5761189c611577565b5b6118a98d828e01611694565b9350506101006118bb8d828e0161170b565b9250506101208b013567ffffffffffffffff8111156118dd576118dc611577565b5b6118e98d828e01611694565b9150509295989b9194979a5092959850565b600081519050919050565b600082825260208201905092915050565b60005b8381101561193557808201518184015260208101905061191a565b83811115611944576000848401525b50505050565b6000611955826118fb565b61195f8185611906565b935061196f818560208601611917565b61197881611586565b840191505092915050565b61198c816116e2565b82525050565b6000819050919050565b6119a581611992565b82525050565b600060808201905081810360008301526119c5818761194a565b905081810360208301526119d9818661194a565b90506119e86040830185611983565b6119f5606083018461199c565b95945050505050565b60006020820190508181036000830152611a18818461194a565b905092915050565b6000602082019050611a356000830184611983565b92915050565b6000602082019050611a50600083018461199c565b92915050565b611a5f81611992565b8114611a6a57600080fd5b50565b600081359050611a7c81611a56565b92915050565b60008060408385031215611a9957611a98611572565b5b6000611aa785828601611a6d565b925050602083013567ffffffffffffffff811115611ac857611ac7611577565b5b611ad485828601611694565b9150509250929050565b600060208284031215611af457611af3611572565b5b6000611b0284828501611a6d565b91505092915050565b60008115159050919050565b611b2081611b0b565b82525050565b6000610160820190508181036000830152611b41818e61194a565b90508181036020830152611b55818d61194a565b90508181036040830152611b69818c61194a565b90508181036060830152611b7d818b61194a565b90508181036080830152611b91818a61194a565b905081810360a0830152611ba5818961194a565b905081810360c0830152611bb9818861194a565b905081810360e0830152611bcd818761194a565b9050818103610100830152611be2818661194a565b9050611bf2610120830185611983565b611c00610140830184611b17565b9c9b505050505050505050505050565b7f4e487b7100000000000000000000000000000000000000000000000000000000600052601160045260246000fd5b6000611c4a82611992565b9150611c5583611992565b9250827fffffffffffffffffffffffffffffffffffffffffffffffffffffffffffffffff03821115611c8a57611c89611c10565b5b828201905092915050565b7f4e487b7100000000000000000000000000000000000000000000000000000000600052602260045260246000fd5b60006002820490506001821680611cdc57607f821691505b60208210811415611cf057611cef611c95565b5b50919050565b7f4e487b7100000000000000000000000000000000000000000000000000000000600052603260045260246000fd5b6000611d3082611992565b9150611d3b83611992565b925082821015611d4e57611d4d611c10565b5b82820390509291505056fea2646970667358221220723cec951a075b3b47f6865cd8de2870c72be594b3b8229f6b192f6187e9e6a764736f6c63430008090033","opcodes":"PUSH1 0x80 PUSH1 0x40 MSTORE CALLVALUE DUP1 ISZERO PUSH3 0x11 JUMPI PUSH1 0x0 DUP1 REVERT JUMPDEST POP PUSH1 0x40 MLOAD PUSH3 0x21B5 CODESIZE SUB DUP1 PUSH3 0x21B5 DUP4 CODECOPY DUP2 DUP2 ADD PUSH1 0x40 MSTORE DUP2 ADD SWAP1 PUSH3 0x37 SWAP2 SWAP1 PUSH3 0x34B JUMP JUMPDEST DUP1 PUSH1 0x2 PUSH1 0x0 PUSH2 0x100 EXP DUP2 SLOAD DUP2 PUSH20 0xFFFFFFFFFFFFFFFFFFFFFFFFFFFFFFFFFFFFFFFF MUL NOT AND SWAP1 DUP4 PUSH20 0xFFFFFFFFFFFFFFFFFFFFFFFFFFFFFFFFFFFFFFFF AND MUL OR SWAP1 SSTORE POP DUP2 PUSH1 0x3 SWAP1 DUP1 MLOAD SWAP1 PUSH1 0x20 ADD SWAP1 PUSH3 0x90 SWAP3 SWAP2 SWAP1 PUSH3 0x99 JUMP JUMPDEST POP POP POP PUSH3 0x416 JUMP JUMPDEST DUP3 DUP1 SLOAD PUSH3 0xA7 SWAP1 PUSH3 0x3E0 JUMP JUMPDEST SWAP1 PUSH1 0x0 MSTORE PUSH1 0x20 PUSH1 0x0 KECCAK256 SWAP1 PUSH1 0x1F ADD PUSH1 0x20 SWAP1 DIV DUP2 ADD SWAP3 DUP3 PUSH3 0xCB JUMPI PUSH1 0x0 DUP6 SSTORE PUSH3 0x117 JUMP JUMPDEST DUP3 PUSH1 0x1F LT PUSH3 0xE6 JUMPI DUP1 MLOAD PUSH1 0xFF NOT AND DUP4 DUP1 ADD OR DUP6 SSTORE PUSH3 0x117 JUMP JUMPDEST DUP3 DUP1 ADD PUSH1 0x1 ADD DUP6 SSTORE DUP3 ISZERO PUSH3 0x117 JUMPI SWAP2 DUP3 ADD JUMPDEST DUP3 DUP2 GT ISZERO PUSH3 0x116 JUMPI DUP3 MLOAD DUP3 SSTORE SWAP2 PUSH1 0x20 ADD SWAP2 SWAP1 PUSH1 0x1 ADD SWAP1 PUSH3 0xF9 JUMP JUMPDEST JUMPDEST POP SWAP1 POP PUSH3 0x126 SWAP2 SWAP1 PUSH3 0x12A JUMP JUMPDEST POP SWAP1 JUMP JUMPDEST JUMPDEST DUP1 DUP3 GT ISZERO PUSH3 0x145 JUMPI PUSH1 0x0 DUP2 PUSH1 0x0 SWAP1 SSTORE POP PUSH1 0x1 ADD PUSH3 0x12B JUMP JUMPDEST POP SWAP1 JUMP JUMPDEST PUSH1 0x0 PUSH1 0x40 MLOAD SWAP1 POP SWAP1 JUMP JUMPDEST PUSH1 0x0 DUP1 REVERT JUMPDEST PUSH1 0x0 DUP1 REVERT JUMPDEST PUSH1 0x0 DUP1 REVERT JUMPDEST PUSH1 0x0 DUP1 REVERT JUMPDEST PUSH1 0x0 PUSH1 0x1F NOT PUSH1 0x1F DUP4 ADD AND SWAP1 POP SWAP2 SWAP1 POP JUMP JUMPDEST PUSH32 0x4E487B7100000000000000000000000000000000000000000000000000000000 PUSH1 0x0 MSTORE PUSH1 0x41 PUSH1 0x4 MSTORE PUSH1 0x24 PUSH1 0x0 REVERT JUMPDEST PUSH3 0x1B2 DUP3 PUSH3 0x167 JUMP JUMPDEST DUP2 ADD DUP2 DUP2 LT PUSH8 0xFFFFFFFFFFFFFFFF DUP3 GT OR ISZERO PUSH3 0x1D4 JUMPI PUSH3 0x1D3 PUSH3 0x178 JUMP JUMPDEST JUMPDEST DUP1 PUSH1 0x40 MSTORE POP POP POP JUMP JUMPDEST PUSH1 0x0 PUSH3 0x1E9 PUSH3 0x149 JUMP JUMPDEST SWAP1 POP PUSH3 0x1F7 DUP3 DUP3 PUSH3 0x1A7 JUMP JUMPDEST SWAP2 SWAP1 POP JUMP JUMPDEST PUSH1 0x0 PUSH8 0xFFFFFFFFFFFFFFFF DUP3 GT ISZERO PUSH3 0x21A JUMPI PUSH3 0x219 PUSH3 0x178 JUMP JUMPDEST JUMPDEST PUSH3 0x225 DUP3 PUSH3 0x167 JUMP JUMPDEST SWAP1 POP PUSH1 0x20 DUP2 ADD SWAP1 POP SWAP2 SWAP1 POP JUMP JUMPDEST PUSH1 0x0 JUMPDEST DUP4 DUP2 LT ISZERO PUSH3 0x252 JUMPI DUP1 DUP3 ADD MLOAD DUP2 DUP5 ADD MSTORE PUSH1 0x20 DUP2 ADD SWAP1 POP PUSH3 0x235 JUMP JUMPDEST DUP4 DUP2 GT ISZERO PUSH3 0x262 JUMPI PUSH1 0x0 DUP5 DUP5 ADD MSTORE JUMPDEST POP POP POP POP JUMP JUMPDEST PUSH1 0x0 PUSH3 0x27F PUSH3 0x279 DUP5 PUSH3 0x1FC JUMP JUMPDEST PUSH3 0x1DD JUMP JUMPDEST SWAP1 POP DUP3 DUP2 MSTORE PUSH1 0x20 DUP2 ADD DUP5 DUP5 DUP5 ADD GT ISZERO PUSH3 0x29E JUMPI PUSH3 0x29D PUSH3 0x162 JUMP JUMPDEST JUMPDEST PUSH3 0x2AB DUP5 DUP3 DUP6 PUSH3 0x232 JUMP JUMPDEST POP SWAP4 SWAP3 POP POP POP JUMP JUMPDEST PUSH1 0x0 DUP3 PUSH1 0x1F DUP4 ADD SLT PUSH3 0x2CB JUMPI PUSH3 0x2CA PUSH3 0x15D JUMP JUMPDEST JUMPDEST DUP2 MLOAD PUSH3 0x2DD DUP5 DUP3 PUSH1 0x20 DUP7 ADD PUSH3 0x268 JUMP JUMPDEST SWAP2 POP POP SWAP3 SWAP2 POP POP JUMP JUMPDEST PUSH1 0x0 PUSH20 0xFFFFFFFFFFFFFFFFFFFFFFFFFFFFFFFFFFFFFFFF DUP3 AND SWAP1 POP SWAP2 SWAP1 POP JUMP JUMPDEST PUSH1 0x0 PUSH3 0x313 DUP3 PUSH3 0x2E6 JUMP JUMPDEST SWAP1 POP SWAP2 SWAP1 POP JUMP JUMPDEST PUSH3 0x325 DUP2 PUSH3 0x306 JUMP JUMPDEST DUP2 EQ PUSH3 0x331 JUMPI PUSH1 0x0 DUP1 REVERT JUMPDEST POP JUMP JUMPDEST PUSH1 0x0 DUP2 MLOAD SWAP1 POP PUSH3 0x345 DUP2 PUSH3 0x31A JUMP JUMPDEST SWAP3 SWAP2 POP POP JUMP JUMPDEST PUSH1 0x0 DUP1 PUSH1 0x40 DUP4 DUP6 SUB SLT ISZERO PUSH3 0x365 JUMPI PUSH3 0x364 PUSH3 0x153 JUMP JUMPDEST JUMPDEST PUSH1 0x0 DUP4 ADD MLOAD PUSH8 0xFFFFFFFFFFFFFFFF DUP2 GT ISZERO PUSH3 0x386 JUMPI PUSH3 0x385 PUSH3 0x158 JUMP JUMPDEST JUMPDEST PUSH3 0x394 DUP6 DUP3 DUP7 ADD PUSH3 0x2B3 JUMP JUMPDEST SWAP3 POP POP PUSH1 0x20 PUSH3 0x3A7 DUP6 DUP3 DUP7 ADD PUSH3 0x334 JUMP JUMPDEST SWAP2 POP POP SWAP3 POP SWAP3 SWAP1 POP JUMP JUMPDEST PUSH32 0x4E487B7100000000000000000000000000000000000000000000000000000000 PUSH1 0x0 MSTORE PUSH1 0x22 PUSH1 0x4 MSTORE PUSH1 0x24 PUSH1 0x0 REVERT JUMPDEST PUSH1 0x0 PUSH1 0x2 DUP3 DIV SWAP1 POP PUSH1 0x1 DUP3 AND DUP1 PUSH3 0x3F9 JUMPI PUSH1 0x7F DUP3 AND SWAP2 POP JUMPDEST PUSH1 0x20 DUP3 LT DUP2 EQ ISZERO PUSH3 0x410 JUMPI PUSH3 0x40F PUSH3 0x3B1 JUMP JUMPDEST JUMPDEST POP SWAP2 SWAP1 POP JUMP JUMPDEST PUSH2 0x1D8F DUP1 PUSH3 0x426 PUSH1 0x0 CODECOPY PUSH1 0x0 RETURN INVALID PUSH1 0x80 PUSH1 0x40 MSTORE PUSH1 0x4 CALLDATASIZE LT PUSH2 0x91 JUMPI PUSH1 0x0 CALLDATALOAD PUSH1 0xE0 SHR DUP1 PUSH4 0x84BD5104 GT PUSH2 0x59 JUMPI DUP1 PUSH4 0x84BD5104 EQ PUSH2 0x16E JUMPI DUP1 PUSH4 0x97C85A61 EQ PUSH2 0x199 JUMPI DUP1 PUSH4 0x9ACE38C2 EQ PUSH2 0x1B5 JUMPI DUP1 PUSH4 0xE5FE34AF EQ PUSH2 0x1FC JUMPI DUP1 PUSH4 0xFBE96385 EQ PUSH2 0x243 JUMPI PUSH2 0x91 JUMP JUMPDEST DUP1 PUSH4 0x77C34A4 EQ PUSH2 0x96 JUMPI DUP1 PUSH4 0x12065FE0 EQ PUSH2 0xBF JUMPI DUP1 PUSH4 0x27B77D46 EQ PUSH2 0xED JUMPI DUP1 PUSH4 0x481C6A75 EQ PUSH2 0x118 JUMPI DUP1 PUSH4 0x578CB8F9 EQ PUSH2 0x143 JUMPI JUMPDEST PUSH1 0x0 DUP1 REVERT JUMPDEST CALLVALUE DUP1 ISZERO PUSH2 0xA2 JUMPI PUSH1 0x0 DUP1 REVERT JUMPDEST POP PUSH2 0xBD PUSH1 0x4 DUP1 CALLDATASIZE SUB DUP2 ADD SWAP1 PUSH2 0xB8 SWAP2 SWAP1 PUSH2 0x1720 JUMP JUMPDEST PUSH2 0x26E JUMP JUMPDEST STOP JUMPDEST CALLVALUE DUP1 ISZERO PUSH2 0xCB JUMPI PUSH1 0x0 DUP1 REVERT JUMPDEST POP PUSH2 0xD4 PUSH2 0x453 JUMP JUMPDEST PUSH1 0x40 MLOAD PUSH2 0xE4 SWAP5 SWAP4 SWAP3 SWAP2 SWAP1 PUSH2 0x19AB JUMP JUMPDEST PUSH1 0x40 MLOAD DUP1 SWAP2 SUB SWAP1 RETURN JUMPDEST CALLVALUE DUP1 ISZERO PUSH2 0xF9 JUMPI PUSH1 0x0 DUP1 REVERT JUMPDEST POP PUSH2 0x102 PUSH2 0x5A9 JUMP JUMPDEST PUSH1 0x40 MLOAD PUSH2 0x10F SWAP2 SWAP1 PUSH2 0x19FE JUMP JUMPDEST PUSH1 0x40 MLOAD DUP1 SWAP2 SUB SWAP1 RETURN JUMPDEST CALLVALUE DUP1 ISZERO PUSH2 0x124 JUMPI PUSH1 0x0 DUP1 REVERT JUMPDEST POP PUSH2 0x12D PUSH2 0x637 JUMP JUMPDEST PUSH1 0x40 MLOAD PUSH2 0x13A SWAP2 SWAP1 PUSH2 0x1A20 JUMP JUMPDEST PUSH1 0x40 MLOAD DUP1 SWAP2 SUB SWAP1 RETURN JUMPDEST CALLVALUE DUP1 ISZERO PUSH2 0x14F JUMPI PUSH1 0x0 DUP1 REVERT JUMPDEST POP PUSH2 0x158 PUSH2 0x65D JUMP JUMPDEST PUSH1 0x40 MLOAD PUSH2 0x165 SWAP2 SWAP1 PUSH2 0x1A3B JUMP JUMPDEST PUSH1 0x40 MLOAD DUP1 SWAP2 SUB SWAP1 RETURN JUMPDEST CALLVALUE DUP1 ISZERO PUSH2 0x17A JUMPI PUSH1 0x0 DUP1 REVERT JUMPDEST POP PUSH2 0x183 PUSH2 0x669 JUMP JUMPDEST PUSH1 0x40 MLOAD PUSH2 0x190 SWAP2 SWAP1 PUSH2 0x19FE JUMP JUMPDEST PUSH1 0x40 MLOAD DUP1 SWAP2 SUB SWAP1 RETURN JUMPDEST PUSH2 0x1B3 PUSH1 0x4 DUP1 CALLDATASIZE SUB DUP2 ADD SWAP1 PUSH2 0x1AE SWAP2 SWAP1 PUSH2 0x1A82 JUMP JUMPDEST PUSH2 0x6F7 JUMP JUMPDEST STOP JUMPDEST CALLVALUE DUP1 ISZERO PUSH2 0x1C1 JUMPI PUSH1 0x0 DUP1 REVERT JUMPDEST POP PUSH2 0x1DC PUSH1 0x4 DUP1 CALLDATASIZE SUB DUP2 ADD SWAP1 PUSH2 0x1D7 SWAP2 SWAP1 PUSH2 0x1ADE JUMP JUMPDEST PUSH2 0x96D JUMP JUMPDEST PUSH1 0x40 MLOAD PUSH2 0x1F3 SWAP12 SWAP11 SWAP10 SWAP9 SWAP8 SWAP7 SWAP6 SWAP5 SWAP4 SWAP3 SWAP2 SWAP1 PUSH2 0x1B26 JUMP JUMPDEST PUSH1 0x40 MLOAD DUP1 SWAP2 SUB SWAP1 RETURN JUMPDEST CALLVALUE DUP1 ISZERO PUSH2 0x208 JUMPI PUSH1 0x0 DUP1 REVERT JUMPDEST POP PUSH2 0x223 PUSH1 0x4 DUP1 CALLDATASIZE SUB DUP2 ADD SWAP1 PUSH2 0x21E SWAP2 SWAP1 PUSH2 0x1ADE JUMP JUMPDEST PUSH2 0xECC JUMP JUMPDEST PUSH1 0x40 MLOAD PUSH2 0x23A SWAP12 SWAP11 SWAP10 SWAP9 SWAP8 SWAP7 SWAP6 SWAP5 SWAP4 SWAP3 SWAP2 SWAP1 PUSH2 0x1B26 JUMP JUMPDEST PUSH1 0x40 MLOAD DUP1 SWAP2 SUB SWAP1 RETURN JUMPDEST CALLVALUE DUP1 ISZERO PUSH2 0x24F JUMPI PUSH1 0x0 DUP1 REVERT JUMPDEST POP PUSH2 0x258 PUSH2 0x142B JUMP JUMPDEST PUSH1 0x40 MLOAD PUSH2 0x265 SWAP2 SWAP1 PUSH2 0x1A3B JUMP JUMPDEST PUSH1 0x40 MLOAD DUP1 SWAP2 SUB SWAP1 RETURN JUMPDEST PUSH1 0x2 PUSH1 0x0 SWAP1 SLOAD SWAP1 PUSH2 0x100 EXP SWAP1 DIV PUSH20 0xFFFFFFFFFFFFFFFFFFFFFFFFFFFFFFFFFFFFFFFF AND PUSH20 0xFFFFFFFFFFFFFFFFFFFFFFFFFFFFFFFFFFFFFFFF AND CALLER PUSH20 0xFFFFFFFFFFFFFFFFFFFFFFFFFFFFFFFFFFFFFFFF AND EQ PUSH2 0x2C8 JUMPI PUSH1 0x0 DUP1 REVERT JUMPDEST PUSH1 0x0 DUP1 PUSH1 0x1 DUP2 PUSH1 0x1 DUP2 SLOAD ADD DUP1 DUP3 SSTORE DUP1 SWAP2 POP POP SUB SWAP1 PUSH1 0x0 MSTORE PUSH1 0x20 PUSH1 0x0 KECCAK256 SWAP1 PUSH1 0xA MUL ADD SWAP1 POP DUP11 DUP2 PUSH1 0x0 ADD SWAP1 DUP1 MLOAD SWAP1 PUSH1 0x20 ADD SWAP1 PUSH2 0x303 SWAP3 SWAP2 SWAP1 PUSH2 0x1438 JUMP JUMPDEST POP DUP10 DUP2 PUSH1 0x1 ADD SWAP1 DUP1 MLOAD SWAP1 PUSH1 0x20 ADD SWAP1 PUSH2 0x31C SWAP3 SWAP2 SWAP1 PUSH2 0x1438 JUMP JUMPDEST POP DUP9 DUP2 PUSH1 0x2 ADD SWAP1 DUP1 MLOAD SWAP1 PUSH1 0x20 ADD SWAP1 PUSH2 0x335 SWAP3 SWAP2 SWAP1 PUSH2 0x1438 JUMP JUMPDEST POP DUP8 DUP2 PUSH1 0x3 ADD SWAP1 DUP1 MLOAD SWAP1 PUSH1 0x20 ADD SWAP1 PUSH2 0x34E SWAP3 SWAP2 SWAP1 PUSH2 0x1438 JUMP JUMPDEST POP DUP7 DUP2 PUSH1 0x4 ADD SWAP1 DUP1 MLOAD SWAP1 PUSH1 0x20 ADD SWAP1 PUSH2 0x367 SWAP3 SWAP2 SWAP1 PUSH2 0x1438 JUMP JUMPDEST POP DUP6 DUP2 PUSH1 0x5 ADD SWAP1 DUP1 MLOAD SWAP1 PUSH1 0x20 ADD SWAP1 PUSH2 0x380 SWAP3 SWAP2 SWAP1 PUSH2 0x1438 JUMP JUMPDEST POP DUP5 DUP2 PUSH1 0x6 ADD SWAP1 DUP1 MLOAD SWAP1 PUSH1 0x20 ADD SWAP1 PUSH2 0x399 SWAP3 SWAP2 SWAP1 PUSH2 0x1438 JUMP JUMPDEST POP DUP4 DUP2 PUSH1 0x7 ADD SWAP1 DUP1 MLOAD SWAP1 PUSH1 0x20 ADD SWAP1 PUSH2 0x3B2 SWAP3 SWAP2 SWAP1 PUSH2 0x1438 JUMP JUMPDEST POP PUSH1 0x0 DUP2 PUSH1 0x9 ADD PUSH1 0x14 PUSH2 0x100 EXP DUP2 SLOAD DUP2 PUSH1 0xFF MUL NOT AND SWAP1 DUP4 ISZERO ISZERO MUL OR SWAP1 SSTORE POP DUP3 DUP2 PUSH1 0x9 ADD PUSH1 0x0 PUSH2 0x100 EXP DUP2 SLOAD DUP2 PUSH20 0xFFFFFFFFFFFFFFFFFFFFFFFFFFFFFFFFFFFFFFFF MUL NOT AND SWAP1 DUP4 PUSH20 0xFFFFFFFFFFFFFFFFFFFFFFFFFFFFFFFFFFFFFFFF AND MUL OR SWAP1 SSTORE POP DUP2 DUP2 PUSH1 0x8 ADD SWAP1 DUP1 MLOAD SWAP1 PUSH1 0x20 ADD SWAP1 PUSH2 0x42B SWAP3 SWAP2 SWAP1 PUSH2 0x1438 JUMP JUMPDEST POP PUSH1 0x1 PUSH1 0x5 PUSH1 0x0 DUP3 DUP3 SLOAD PUSH2 0x43F SWAP2 SWAP1 PUSH2 0x1C3F JUMP JUMPDEST SWAP3 POP POP DUP2 SWAP1 SSTORE POP POP POP POP POP POP POP POP POP POP POP POP JUMP JUMPDEST PUSH1 0x60 DUP1 PUSH1 0x0 DUP1 PUSH1 0x3 PUSH1 0x4 PUSH1 0x2 PUSH1 0x0 SWAP1 SLOAD SWAP1 PUSH2 0x100 EXP SWAP1 DIV PUSH20 0xFFFFFFFFFFFFFFFFFFFFFFFFFFFFFFFFFFFFFFFF AND PUSH1 0x5 SLOAD DUP4 DUP1 SLOAD PUSH2 0x48F SWAP1 PUSH2 0x1CC4 JUMP JUMPDEST DUP1 PUSH1 0x1F ADD PUSH1 0x20 DUP1 SWAP2 DIV MUL PUSH1 0x20 ADD PUSH1 0x40 MLOAD SWAP1 DUP2 ADD PUSH1 0x40 MSTORE DUP1 SWAP3 SWAP2 SWAP1 DUP2 DUP2 MSTORE PUSH1 0x20 ADD DUP3 DUP1 SLOAD PUSH2 0x4BB SWAP1 PUSH2 0x1CC4 JUMP JUMPDEST DUP1 ISZERO PUSH2 0x508 JUMPI DUP1 PUSH1 0x1F LT PUSH2 0x4DD JUMPI PUSH2 0x100 DUP1 DUP4 SLOAD DIV MUL DUP4 MSTORE SWAP2 PUSH1 0x20 ADD SWAP2 PUSH2 0x508 JUMP JUMPDEST DUP3 ADD SWAP2 SWAP1 PUSH1 0x0 MSTORE PUSH1 0x20 PUSH1 0x0 KECCAK256 SWAP1 JUMPDEST DUP2 SLOAD DUP2 MSTORE SWAP1 PUSH1 0x1 ADD SWAP1 PUSH1 0x20 ADD DUP1 DUP4 GT PUSH2 0x4EB JUMPI DUP3 SWAP1 SUB PUSH1 0x1F AND DUP3 ADD SWAP2 JUMPDEST POP POP POP POP POP SWAP4 POP DUP3 DUP1 SLOAD PUSH2 0x51B SWAP1 PUSH2 0x1CC4 JUMP JUMPDEST DUP1 PUSH1 0x1F ADD PUSH1 0x20 DUP1 SWAP2 DIV MUL PUSH1 0x20 ADD PUSH1 0x40 MLOAD SWAP1 DUP2 ADD PUSH1 0x40 MSTORE DUP1 SWAP3 SWAP2 SWAP1 DUP2 DUP2 MSTORE PUSH1 0x20 ADD DUP3 DUP1 SLOAD PUSH2 0x547 SWAP1 PUSH2 0x1CC4 JUMP JUMPDEST DUP1 ISZERO PUSH2 0x594 JUMPI DUP1 PUSH1 0x1F LT PUSH2 0x569 JUMPI PUSH2 0x100 DUP1 DUP4 SLOAD DIV MUL DUP4 MSTORE SWAP2 PUSH1 0x20 ADD SWAP2 PUSH2 0x594 JUMP JUMPDEST DUP3 ADD SWAP2 SWAP1 PUSH1 0x0 MSTORE PUSH1 0x20 PUSH1 0x0 KECCAK256 SWAP1 JUMPDEST DUP2 SLOAD DUP2 MSTORE SWAP1 PUSH1 0x1 ADD SWAP1 PUSH1 0x20 ADD DUP1 DUP4 GT PUSH2 0x577 JUMPI DUP3 SWAP1 SUB PUSH1 0x1F AND DUP3 ADD SWAP2 JUMPDEST POP POP POP POP POP SWAP3 POP SWAP4 POP SWAP4 POP SWAP4 POP SWAP4 POP SWAP1 SWAP2 SWAP3 SWAP4 JUMP JUMPDEST PUSH1 0x3 DUP1 SLOAD PUSH2 0x5B6 SWAP1 PUSH2 0x1CC4 JUMP JUMPDEST DUP1 PUSH1 0x1F ADD PUSH1 0x20 DUP1 SWAP2 DIV MUL PUSH1 0x20 ADD PUSH1 0x40 MLOAD SWAP1 DUP2 ADD PUSH1 0x40 MSTORE DUP1 SWAP3 SWAP2 SWAP1 DUP2 DUP2 MSTORE PUSH1 0x20 ADD DUP3 DUP1 SLOAD PUSH2 0x5E2 SWAP1 PUSH2 0x1CC4 JUMP JUMPDEST DUP1 ISZERO PUSH2 0x62F JUMPI DUP1 PUSH1 0x1F LT PUSH2 0x604 JUMPI PUSH2 0x100 DUP1 DUP4 SLOAD DIV MUL DUP4 MSTORE SWAP2 PUSH1 0x20 ADD SWAP2 PUSH2 0x62F JUMP JUMPDEST DUP3 ADD SWAP2 SWAP1 PUSH1 0x0 MSTORE PUSH1 0x20 PUSH1 0x0 KECCAK256 SWAP1 JUMPDEST DUP2 SLOAD DUP2 MSTORE SWAP1 PUSH1 0x1 ADD SWAP1 PUSH1 0x20 ADD DUP1 DUP4 GT PUSH2 0x612 JUMPI DUP3 SWAP1 SUB PUSH1 0x1F AND DUP3 ADD SWAP2 JUMPDEST POP POP POP POP POP DUP2 JUMP JUMPDEST PUSH1 0x2 PUSH1 0x0 SWAP1 SLOAD SWAP1 PUSH2 0x100 EXP SWAP1 DIV PUSH20 0xFFFFFFFFFFFFFFFFFFFFFFFFFFFFFFFFFFFFFFFF AND DUP2 JUMP JUMPDEST PUSH1 0x0 DUP1 DUP1 SLOAD SWAP1 POP SWAP1 POP SWAP1 JUMP JUMPDEST PUSH1 0x4 DUP1 SLOAD PUSH2 0x676 SWAP1 PUSH2 0x1CC4 JUMP JUMPDEST DUP1 PUSH1 0x1F ADD PUSH1 0x20 DUP1 SWAP2 DIV MUL PUSH1 0x20 ADD PUSH1 0x40 MLOAD SWAP1 DUP2 ADD PUSH1 0x40 MSTORE DUP1 SWAP3 SWAP2 SWAP1 DUP2 DUP2 MSTORE PUSH1 0x20 ADD DUP3 DUP1 SLOAD PUSH2 0x6A2 SWAP1 PUSH2 0x1CC4 JUMP JUMPDEST DUP1 ISZERO PUSH2 0x6EF JUMPI DUP1 PUSH1 0x1F LT PUSH2 0x6C4 JUMPI PUSH2 0x100 DUP1 DUP4 SLOAD DIV MUL DUP4 MSTORE SWAP2 PUSH1 0x20 ADD SWAP2 PUSH2 0x6EF JUMP JUMPDEST DUP3 ADD SWAP2 SWAP1 PUSH1 0x0 MSTORE PUSH1 0x20 PUSH1 0x0 KECCAK256 SWAP1 JUMPDEST DUP2 SLOAD DUP2 MSTORE SWAP1 PUSH1 0x1 ADD SWAP1 PUSH1 0x20 ADD DUP1 DUP4 GT PUSH2 0x6D2 JUMPI DUP3 SWAP1 SUB PUSH1 0x1F AND DUP3 ADD SWAP2 JUMPDEST POP POP POP POP POP DUP2 JUMP JUMPDEST PUSH1 0x0 DUP1 DUP4 DUP2 SLOAD DUP2 LT PUSH2 0x70C JUMPI PUSH2 0x70B PUSH2 0x1CF6 JUMP JUMPDEST JUMPDEST SWAP1 PUSH1 0x0 MSTORE PUSH1 0x20 PUSH1 0x0 KECCAK256 SWAP1 PUSH1 0xA MUL ADD SWAP1 POP DUP1 PUSH1 0x9 ADD PUSH1 0x14 SWAP1 SLOAD SWAP1 PUSH2 0x100 EXP SWAP1 DIV PUSH1 0xFF AND ISZERO PUSH2 0x738 JUMPI PUSH1 0x0 DUP1 REVERT JUMPDEST DUP2 PUSH1 0x4 SWAP1 DUP1 MLOAD SWAP1 PUSH1 0x20 ADD SWAP1 PUSH2 0x74E SWAP3 SWAP2 SWAP1 PUSH2 0x1438 JUMP JUMPDEST POP PUSH1 0x1 DUP2 PUSH1 0x9 ADD PUSH1 0x14 PUSH2 0x100 EXP DUP2 SLOAD DUP2 PUSH1 0xFF MUL NOT AND SWAP1 DUP4 ISZERO ISZERO MUL OR SWAP1 SSTORE POP PUSH1 0x1 DUP2 SWAP1 DUP1 PUSH1 0x1 DUP2 SLOAD ADD DUP1 DUP3 SSTORE DUP1 SWAP2 POP POP PUSH1 0x1 SWAP1 SUB SWAP1 PUSH1 0x0 MSTORE PUSH1 0x20 PUSH1 0x0 KECCAK256 SWAP1 PUSH1 0xA MUL ADD PUSH1 0x0 SWAP1 SWAP2 SWAP1 SWAP2 SWAP1 SWAP2 POP PUSH1 0x0 DUP3 ADD DUP2 PUSH1 0x0 ADD SWAP1 DUP1 SLOAD PUSH2 0x7AC SWAP1 PUSH2 0x1CC4 JUMP JUMPDEST PUSH2 0x7B7 SWAP3 SWAP2 SWAP1 PUSH2 0x14BE JUMP JUMPDEST POP PUSH1 0x1 DUP3 ADD DUP2 PUSH1 0x1 ADD SWAP1 DUP1 SLOAD PUSH2 0x7CC SWAP1 PUSH2 0x1CC4 JUMP JUMPDEST PUSH2 0x7D7 SWAP3 SWAP2 SWAP1 PUSH2 0x14BE JUMP JUMPDEST POP PUSH1 0x2 DUP3 ADD DUP2 PUSH1 0x2 ADD SWAP1 DUP1 SLOAD PUSH2 0x7EC SWAP1 PUSH2 0x1CC4 JUMP JUMPDEST PUSH2 0x7F7 SWAP3 SWAP2 SWAP1 PUSH2 0x14BE JUMP JUMPDEST POP PUSH1 0x3 DUP3 ADD DUP2 PUSH1 0x3 ADD SWAP1 DUP1 SLOAD PUSH2 0x80C SWAP1 PUSH2 0x1CC4 JUMP JUMPDEST PUSH2 0x817 SWAP3 SWAP2 SWAP1 PUSH2 0x14BE JUMP JUMPDEST POP PUSH1 0x4 DUP3 ADD DUP2 PUSH1 0x4 ADD SWAP1 DUP1 SLOAD PUSH2 0x82C SWAP1 PUSH2 0x1CC4 JUMP JUMPDEST PUSH2 0x837 SWAP3 SWAP2 SWAP1 PUSH2 0x14BE JUMP JUMPDEST POP PUSH1 0x5 DUP3 ADD DUP2 PUSH1 0x5 ADD SWAP1 DUP1 SLOAD PUSH2 0x84C SWAP1 PUSH2 0x1CC4 JUMP JUMPDEST PUSH2 0x857 SWAP3 SWAP2 SWAP1 PUSH2 0x14BE JUMP JUMPDEST POP PUSH1 0x6 DUP3 ADD DUP2 PUSH1 0x6 ADD SWAP1 DUP1 SLOAD PUSH2 0x86C SWAP1 PUSH2 0x1CC4 JUMP JUMPDEST PUSH2 0x877 SWAP3 SWAP2 SWAP1 PUSH2 0x14BE JUMP JUMPDEST POP PUSH1 0x7 DUP3 ADD DUP2 PUSH1 0x7 ADD SWAP1 DUP1 SLOAD PUSH2 0x88C SWAP1 PUSH2 0x1CC4 JUMP JUMPDEST PUSH2 0x897 SWAP3 SWAP2 SWAP1 PUSH2 0x14BE JUMP JUMPDEST POP PUSH1 0x8 DUP3 ADD DUP2 PUSH1 0x8 ADD SWAP1 DUP1 SLOAD PUSH2 0x8AC SWAP1 PUSH2 0x1CC4 JUMP JUMPDEST PUSH2 0x8B7 SWAP3 SWAP2 SWAP1 PUSH2 0x14BE JUMP JUMPDEST POP PUSH1 0x9 DUP3 ADD PUSH1 0x0 SWAP1 SLOAD SWAP1 PUSH2 0x100 EXP SWAP1 DIV PUSH20 0xFFFFFFFFFFFFFFFFFFFFFFFFFFFFFFFFFFFFFFFF AND DUP2 PUSH1 0x9 ADD PUSH1 0x0 PUSH2 0x100 EXP DUP2 SLOAD DUP2 PUSH20 0xFFFFFFFFFFFFFFFFFFFFFFFFFFFFFFFFFFFFFFFF MUL NOT AND SWAP1 DUP4 PUSH20 0xFFFFFFFFFFFFFFFFFFFFFFFFFFFFFFFFFFFFFFFF AND MUL OR SWAP1 SSTORE POP PUSH1 0x9 DUP3 ADD PUSH1 0x14 SWAP1 SLOAD SWAP1 PUSH2 0x100 EXP SWAP1 DIV PUSH1 0xFF AND DUP2 PUSH1 0x9 ADD PUSH1 0x14 PUSH2 0x100 EXP DUP2 SLOAD DUP2 PUSH1 0xFF MUL NOT AND SWAP1 DUP4 ISZERO ISZERO MUL OR SWAP1 SSTORE POP POP POP PUSH1 0x1 PUSH1 0x5 PUSH1 0x0 DUP3 DUP3 SLOAD PUSH2 0x961 SWAP2 SWAP1 PUSH2 0x1D25 JUMP JUMPDEST SWAP3 POP POP DUP2 SWAP1 SSTORE POP POP POP POP JUMP JUMPDEST PUSH1 0x0 DUP2 DUP2 SLOAD DUP2 LT PUSH2 0x97D JUMPI PUSH1 0x0 DUP1 REVERT JUMPDEST SWAP1 PUSH1 0x0 MSTORE PUSH1 0x20 PUSH1 0x0 KECCAK256 SWAP1 PUSH1 0xA MUL ADD PUSH1 0x0 SWAP2 POP SWAP1 POP DUP1 PUSH1 0x0 ADD DUP1 SLOAD PUSH2 0x9A0 SWAP1 PUSH2 0x1CC4 JUMP JUMPDEST DUP1 PUSH1 0x1F ADD PUSH1 0x20 DUP1 SWAP2 DIV MUL PUSH1 0x20 ADD PUSH1 0x40 MLOAD SWAP1 DUP2 ADD PUSH1 0x40 MSTORE DUP1 SWAP3 SWAP2 SWAP1 DUP2 DUP2 MSTORE PUSH1 0x20 ADD DUP3 DUP1 SLOAD PUSH2 0x9CC SWAP1 PUSH2 0x1CC4 JUMP JUMPDEST DUP1 ISZERO PUSH2 0xA19 JUMPI DUP1 PUSH1 0x1F LT PUSH2 0x9EE JUMPI PUSH2 0x100 DUP1 DUP4 SLOAD DIV MUL DUP4 MSTORE SWAP2 PUSH1 0x20 ADD SWAP2 PUSH2 0xA19 JUMP JUMPDEST DUP3 ADD SWAP2 SWAP1 PUSH1 0x0 MSTORE PUSH1 0x20 PUSH1 0x0 KECCAK256 SWAP1 JUMPDEST DUP2 SLOAD DUP2 MSTORE SWAP1 PUSH1 0x1 ADD SWAP1 PUSH1 0x20 ADD DUP1 DUP4 GT PUSH2 0x9FC JUMPI DUP3 SWAP1 SUB PUSH1 0x1F AND DUP3 ADD SWAP2 JUMPDEST POP POP POP POP POP SWAP1 DUP1 PUSH1 0x1 ADD DUP1 SLOAD PUSH2 0xA2E SWAP1 PUSH2 0x1CC4 JUMP JUMPDEST DUP1 PUSH1 0x1F ADD PUSH1 0x20 DUP1 SWAP2 DIV MUL PUSH1 0x20 ADD PUSH1 0x40 MLOAD SWAP1 DUP2 ADD PUSH1 0x40 MSTORE DUP1 SWAP3 SWAP2 SWAP1 DUP2 DUP2 MSTORE PUSH1 0x20 ADD DUP3 DUP1 SLOAD PUSH2 0xA5A SWAP1 PUSH2 0x1CC4 JUMP JUMPDEST DUP1 ISZERO PUSH2 0xAA7 JUMPI DUP1 PUSH1 0x1F LT PUSH2 0xA7C JUMPI PUSH2 0x100 DUP1 DUP4 SLOAD DIV MUL DUP4 MSTORE SWAP2 PUSH1 0x20 ADD SWAP2 PUSH2 0xAA7 JUMP JUMPDEST DUP3 ADD SWAP2 SWAP1 PUSH1 0x0 MSTORE PUSH1 0x20 PUSH1 0x0 KECCAK256 SWAP1 JUMPDEST DUP2 SLOAD DUP2 MSTORE SWAP1 PUSH1 0x1 ADD SWAP1 PUSH1 0x20 ADD DUP1 DUP4 GT PUSH2 0xA8A JUMPI DUP3 SWAP1 SUB PUSH1 0x1F AND DUP3 ADD SWAP2 JUMPDEST POP POP POP POP POP SWAP1 DUP1 PUSH1 0x2 ADD DUP1 SLOAD PUSH2 0xABC SWAP1 PUSH2 0x1CC4 JUMP JUMPDEST DUP1 PUSH1 0x1F ADD PUSH1 0x20 DUP1 SWAP2 DIV MUL PUSH1 0x20 ADD PUSH1 0x40 MLOAD SWAP1 DUP2 ADD PUSH1 0x40 MSTORE DUP1 SWAP3 SWAP2 SWAP1 DUP2 DUP2 MSTORE PUSH1 0x20 ADD DUP3 DUP1 SLOAD PUSH2 0xAE8 SWAP1 PUSH2 0x1CC4 JUMP JUMPDEST DUP1 ISZERO PUSH2 0xB35 JUMPI DUP1 PUSH1 0x1F LT PUSH2 0xB0A JUMPI PUSH2 0x100 DUP1 DUP4 SLOAD DIV MUL DUP4 MSTORE SWAP2 PUSH1 0x20 ADD SWAP2 PUSH2 0xB35 JUMP JUMPDEST DUP3 ADD SWAP2 SWAP1 PUSH1 0x0 MSTORE PUSH1 0x20 PUSH1 0x0 KECCAK256 SWAP1 JUMPDEST DUP2 SLOAD DUP2 MSTORE SWAP1 PUSH1 0x1 ADD SWAP1 PUSH1 0x20 ADD DUP1 DUP4 GT PUSH2 0xB18 JUMPI DUP3 SWAP1 SUB PUSH1 0x1F AND DUP3 ADD SWAP2 JUMPDEST POP POP POP POP POP SWAP1 DUP1 PUSH1 0x3 ADD DUP1 SLOAD PUSH2 0xB4A SWAP1 PUSH2 0x1CC4 JUMP JUMPDEST DUP1 PUSH1 0x1F ADD PUSH1 0x20 DUP1 SWAP2 DIV MUL PUSH1 0x20 ADD PUSH1 0x40 MLOAD SWAP1 DUP2 ADD PUSH1 0x40 MSTORE DUP1 SWAP3 SWAP2 SWAP1 DUP2 DUP2 MSTORE PUSH1 0x20 ADD DUP3 DUP1 SLOAD PUSH2 0xB76 SWAP1 PUSH2 0x1CC4 JUMP JUMPDEST DUP1 ISZERO PUSH2 0xBC3 JUMPI DUP1 PUSH1 0x1F LT PUSH2 0xB98 JUMPI PUSH2 0x100 DUP1 DUP4 SLOAD DIV MUL DUP4 MSTORE SWAP2 PUSH1 0x20 ADD SWAP2 PUSH2 0xBC3 JUMP JUMPDEST DUP3 ADD SWAP2 SWAP1 PUSH1 0x0 MSTORE PUSH1 0x20 PUSH1 0x0 KECCAK256 SWAP1 JUMPDEST DUP2 SLOAD DUP2 MSTORE SWAP1 PUSH1 0x1 ADD SWAP1 PUSH1 0x20 ADD DUP1 DUP4 GT PUSH2 0xBA6 JUMPI DUP3 SWAP1 SUB PUSH1 0x1F AND DUP3 ADD SWAP2 JUMPDEST POP POP POP POP POP SWAP1 DUP1 PUSH1 0x4 ADD DUP1 SLOAD PUSH2 0xBD8 SWAP1 PUSH2 0x1CC4 JUMP JUMPDEST DUP1 PUSH1 0x1F ADD PUSH1 0x20 DUP1 SWAP2 DIV MUL PUSH1 0x20 ADD PUSH1 0x40 MLOAD SWAP1 DUP2 ADD PUSH1 0x40 MSTORE DUP1 SWAP3 SWAP2 SWAP1 DUP2 DUP2 MSTORE PUSH1 0x20 ADD DUP3 DUP1 SLOAD PUSH2 0xC04 SWAP1 PUSH2 0x1CC4 JUMP JUMPDEST DUP1 ISZERO PUSH2 0xC51 JUMPI DUP1 PUSH1 0x1F LT PUSH2 0xC26 JUMPI PUSH2 0x100 DUP1 DUP4 SLOAD DIV MUL DUP4 MSTORE SWAP2 PUSH1 0x20 ADD SWAP2 PUSH2 0xC51 JUMP JUMPDEST DUP3 ADD SWAP2 SWAP1 PUSH1 0x0 MSTORE PUSH1 0x20 PUSH1 0x0 KECCAK256 SWAP1 JUMPDEST DUP2 SLOAD DUP2 MSTORE SWAP1 PUSH1 0x1 ADD SWAP1 PUSH1 0x20 ADD DUP1 DUP4 GT PUSH2 0xC34 JUMPI DUP3 SWAP1 SUB PUSH1 0x1F AND DUP3 ADD SWAP2 JUMPDEST POP POP POP POP POP SWAP1 DUP1 PUSH1 0x5 ADD DUP1 SLOAD PUSH2 0xC66 SWAP1 PUSH2 0x1CC4 JUMP JUMPDEST DUP1 PUSH1 0x1F ADD PUSH1 0x20 DUP1 SWAP2 DIV MUL PUSH1 0x20 ADD PUSH1 0x40 MLOAD SWAP1 DUP2 ADD PUSH1 0x40 MSTORE DUP1 SWAP3 SWAP2 SWAP1 DUP2 DUP2 MSTORE PUSH1 0x20 ADD DUP3 DUP1 SLOAD PUSH2 0xC92 SWAP1 PUSH2 0x1CC4 JUMP JUMPDEST DUP1 ISZERO PUSH2 0xCDF JUMPI DUP1 PUSH1 0x1F LT PUSH2 0xCB4 JUMPI PUSH2 0x100 DUP1 DUP4 SLOAD DIV MUL DUP4 MSTORE SWAP2 PUSH1 0x20 ADD SWAP2 PUSH2 0xCDF JUMP JUMPDEST DUP3 ADD SWAP2 SWAP1 PUSH1 0x0 MSTORE PUSH1 0x20 PUSH1 0x0 KECCAK256 SWAP1 JUMPDEST DUP2 SLOAD DUP2 MSTORE SWAP1 PUSH1 0x1 ADD SWAP1 PUSH1 0x20 ADD DUP1 DUP4 GT PUSH2 0xCC2 JUMPI DUP3 SWAP1 SUB PUSH1 0x1F AND DUP3 ADD SWAP2 JUMPDEST POP POP POP POP POP SWAP1 DUP1 PUSH1 0x6 ADD DUP1 SLOAD PUSH2 0xCF4 SWAP1 PUSH2 0x1CC4 JUMP JUMPDEST DUP1 PUSH1 0x1F ADD PUSH1 0x20 DUP1 SWAP2 DIV MUL PUSH1 0x20 ADD PUSH1 0x40 MLOAD SWAP1 DUP2 ADD PUSH1 0x40 MSTORE DUP1 SWAP3 SWAP2 SWAP1 DUP2 DUP2 MSTORE PUSH1 0x20 ADD DUP3 DUP1 SLOAD PUSH2 0xD20 SWAP1 PUSH2 0x1CC4 JUMP JUMPDEST DUP1 ISZERO PUSH2 0xD6D JUMPI DUP1 PUSH1 0x1F LT PUSH2 0xD42 JUMPI PUSH2 0x100 DUP1 DUP4 SLOAD DIV MUL DUP4 MSTORE SWAP2 PUSH1 0x20 ADD SWAP2 PUSH2 0xD6D JUMP JUMPDEST DUP3 ADD SWAP2 SWAP1 PUSH1 0x0 MSTORE PUSH1 0x20 PUSH1 0x0 KECCAK256 SWAP1 JUMPDEST DUP2 SLOAD DUP2 MSTORE SWAP1 PUSH1 0x1 ADD SWAP1 PUSH1 0x20 ADD DUP1 DUP4 GT PUSH2 0xD50 JUMPI DUP3 SWAP1 SUB PUSH1 0x1F AND DUP3 ADD SWAP2 JUMPDEST POP POP POP POP POP SWAP1 DUP1 PUSH1 0x7 ADD DUP1 SLOAD PUSH2 0xD82 SWAP1 PUSH2 0x1CC4 JUMP JUMPDEST DUP1 PUSH1 0x1F ADD PUSH1 0x20 DUP1 SWAP2 DIV MUL PUSH1 0x20 ADD PUSH1 0x40 MLOAD SWAP1 DUP2 ADD PUSH1 0x40 MSTORE DUP1 SWAP3 SWAP2 SWAP1 DUP2 DUP2 MSTORE PUSH1 0x20 ADD DUP3 DUP1 SLOAD PUSH2 0xDAE SWAP1 PUSH2 0x1CC4 JUMP JUMPDEST DUP1 ISZERO PUSH2 0xDFB JUMPI DUP1 PUSH1 0x1F LT PUSH2 0xDD0 JUMPI PUSH2 0x100 DUP1 DUP4 SLOAD DIV MUL DUP4 MSTORE SWAP2 PUSH1 0x20 ADD SWAP2 PUSH2 0xDFB JUMP JUMPDEST DUP3 ADD SWAP2 SWAP1 PUSH1 0x0 MSTORE PUSH1 0x20 PUSH1 0x0 KECCAK256 SWAP1 JUMPDEST DUP2 SLOAD DUP2 MSTORE SWAP1 PUSH1 0x1 ADD SWAP1 PUSH1 0x20 ADD DUP1 DUP4 GT PUSH2 0xDDE JUMPI DUP3 SWAP1 SUB PUSH1 0x1F AND DUP3 ADD SWAP2 JUMPDEST POP POP POP POP POP SWAP1 DUP1 PUSH1 0x8 ADD DUP1 SLOAD PUSH2 0xE10 SWAP1 PUSH2 0x1CC4 JUMP JUMPDEST DUP1 PUSH1 0x1F ADD PUSH1 0x20 DUP1 SWAP2 DIV MUL PUSH1 0x20 ADD PUSH1 0x40 MLOAD SWAP1 DUP2 ADD PUSH1 0x40 MSTORE DUP1 SWAP3 SWAP2 SWAP1 DUP2 DUP2 MSTORE PUSH1 0x20 ADD DUP3 DUP1 SLOAD PUSH2 0xE3C SWAP1 PUSH2 0x1CC4 JUMP JUMPDEST DUP1 ISZERO PUSH2 0xE89 JUMPI DUP1 PUSH1 0x1F LT PUSH2 0xE5E JUMPI PUSH2 0x100 DUP1 DUP4 SLOAD DIV MUL DUP4 MSTORE SWAP2 PUSH1 0x20 ADD SWAP2 PUSH2 0xE89 JUMP JUMPDEST DUP3 ADD SWAP2 SWAP1 PUSH1 0x0 MSTORE PUSH1 0x20 PUSH1 0x0 KECCAK256 SWAP1 JUMPDEST DUP2 SLOAD DUP2 MSTORE SWAP1 PUSH1 0x1 ADD SWAP1 PUSH1 0x20 ADD DUP1 DUP4 GT PUSH2 0xE6C JUMPI DUP3 SWAP1 SUB PUSH1 0x1F AND DUP3 ADD SWAP2 JUMPDEST POP POP POP POP POP SWAP1 DUP1 PUSH1 0x9 ADD PUSH1 0x0 SWAP1 SLOAD SWAP1 PUSH2 0x100 EXP SWAP1 DIV PUSH20 0xFFFFFFFFFFFFFFFFFFFFFFFFFFFFFFFFFFFFFFFF AND SWAP1 DUP1 PUSH1 0x9 ADD PUSH1 0x14 SWAP1 SLOAD SWAP1 PUSH2 0x100 EXP SWAP1 DIV PUSH1 0xFF AND SWAP1 POP DUP12 JUMP JUMPDEST PUSH1 0x1 DUP2 DUP2 SLOAD DUP2 LT PUSH2 0xEDC JUMPI PUSH1 0x0 DUP1 REVERT JUMPDEST SWAP1 PUSH1 0x0 MSTORE PUSH1 0x20 PUSH1 0x0 KECCAK256 SWAP1 PUSH1 0xA MUL ADD PUSH1 0x0 SWAP2 POP SWAP1 POP DUP1 PUSH1 0x0 ADD DUP1 SLOAD PUSH2 0xEFF SWAP1 PUSH2 0x1CC4 JUMP JUMPDEST DUP1 PUSH1 0x1F ADD PUSH1 0x20 DUP1 SWAP2 DIV MUL PUSH1 0x20 ADD PUSH1 0x40 MLOAD SWAP1 DUP2 ADD PUSH1 0x40 MSTORE DUP1 SWAP3 SWAP2 SWAP1 DUP2 DUP2 MSTORE PUSH1 0x20 ADD DUP3 DUP1 SLOAD PUSH2 0xF2B SWAP1 PUSH2 0x1CC4 JUMP JUMPDEST DUP1 ISZERO PUSH2 0xF78 JUMPI DUP1 PUSH1 0x1F LT PUSH2 0xF4D JUMPI PUSH2 0x100 DUP1 DUP4 SLOAD DIV MUL DUP4 MSTORE SWAP2 PUSH1 0x20 ADD SWAP2 PUSH2 0xF78 JUMP JUMPDEST DUP3 ADD SWAP2 SWAP1 PUSH1 0x0 MSTORE PUSH1 0x20 PUSH1 0x0 KECCAK256 SWAP1 JUMPDEST DUP2 SLOAD DUP2 MSTORE SWAP1 PUSH1 0x1 ADD SWAP1 PUSH1 0x20 ADD DUP1 DUP4 GT PUSH2 0xF5B JUMPI DUP3 SWAP1 SUB PUSH1 0x1F AND DUP3 ADD SWAP2 JUMPDEST POP POP POP POP POP SWAP1 DUP1 PUSH1 0x1 ADD DUP1 SLOAD PUSH2 0xF8D SWAP1 PUSH2 0x1CC4 JUMP JUMPDEST DUP1 PUSH1 0x1F ADD PUSH1 0x20 DUP1 SWAP2 DIV MUL PUSH1 0x20 ADD PUSH1 0x40 MLOAD SWAP1 DUP2 ADD PUSH1 0x40 MSTORE DUP1 SWAP3 SWAP2 SWAP1 DUP2 DUP2 MSTORE PUSH1 0x20 ADD DUP3 DUP1 SLOAD PUSH2 0xFB9 SWAP1 PUSH2 0x1CC4 JUMP JUMPDEST DUP1 ISZERO PUSH2 0x1006 JUMPI DUP1 PUSH1 0x1F LT PUSH2 0xFDB JUMPI PUSH2 0x100 DUP1 DUP4 SLOAD DIV MUL DUP4 MSTORE SWAP2 PUSH1 0x20 ADD SWAP2 PUSH2 0x1006 JUMP JUMPDEST DUP3 ADD SWAP2 SWAP1 PUSH1 0x0 MSTORE PUSH1 0x20 PUSH1 0x0 KECCAK256 SWAP1 JUMPDEST DUP2 SLOAD DUP2 MSTORE SWAP1 PUSH1 0x1 ADD SWAP1 PUSH1 0x20 ADD DUP1 DUP4 GT PUSH2 0xFE9 JUMPI DUP3 SWAP1 SUB PUSH1 0x1F AND DUP3 ADD SWAP2 JUMPDEST POP POP POP POP POP SWAP1 DUP1 PUSH1 0x2 ADD DUP1 SLOAD PUSH2 0x101B SWAP1 PUSH2 0x1CC4 JUMP JUMPDEST DUP1 PUSH1 0x1F ADD PUSH1 0x20 DUP1 SWAP2 DIV MUL PUSH1 0x20 ADD PUSH1 0x40 MLOAD SWAP1 DUP2 ADD PUSH1 0x40 MSTORE DUP1 SWAP3 SWAP2 SWAP1 DUP2 DUP2 MSTORE PUSH1 0x20 ADD DUP3 DUP1 SLOAD PUSH2 0x1047 SWAP1 PUSH2 0x1CC4 JUMP JUMPDEST DUP1 ISZERO PUSH2 0x1094 JUMPI DUP1 PUSH1 0x1F LT PUSH2 0x1069 JUMPI PUSH2 0x100 DUP1 DUP4 SLOAD DIV MUL DUP4 MSTORE SWAP2 PUSH1 0x20 ADD SWAP2 PUSH2 0x1094 JUMP JUMPDEST DUP3 ADD SWAP2 SWAP1 PUSH1 0x0 MSTORE PUSH1 0x20 PUSH1 0x0 KECCAK256 SWAP1 JUMPDEST DUP2 SLOAD DUP2 MSTORE SWAP1 PUSH1 0x1 ADD SWAP1 PUSH1 0x20 ADD DUP1 DUP4 GT PUSH2 0x1077 JUMPI DUP3 SWAP1 SUB PUSH1 0x1F AND DUP3 ADD SWAP2 JUMPDEST POP POP POP POP POP SWAP1 DUP1 PUSH1 0x3 ADD DUP1 SLOAD PUSH2 0x10A9 SWAP1 PUSH2 0x1CC4 JUMP JUMPDEST DUP1 PUSH1 0x1F ADD PUSH1 0x20 DUP1 SWAP2 DIV MUL PUSH1 0x20 ADD PUSH1 0x40 MLOAD SWAP1 DUP2 ADD PUSH1 0x40 MSTORE DUP1 SWAP3 SWAP2 SWAP1 DUP2 DUP2 MSTORE PUSH1 0x20 ADD DUP3 DUP1 SLOAD PUSH2 0x10D5 SWAP1 PUSH2 0x1CC4 JUMP JUMPDEST DUP1 ISZERO PUSH2 0x1122 JUMPI DUP1 PUSH1 0x1F LT PUSH2 0x10F7 JUMPI PUSH2 0x100 DUP1 DUP4 SLOAD DIV MUL DUP4 MSTORE SWAP2 PUSH1 0x20 ADD SWAP2 PUSH2 0x1122 JUMP JUMPDEST DUP3 ADD SWAP2 SWAP1 PUSH1 0x0 MSTORE PUSH1 0x20 PUSH1 0x0 KECCAK256 SWAP1 JUMPDEST DUP2 SLOAD DUP2 MSTORE SWAP1 PUSH1 0x1 ADD SWAP1 PUSH1 0x20 ADD DUP1 DUP4 GT PUSH2 0x1105 JUMPI DUP3 SWAP1 SUB PUSH1 0x1F AND DUP3 ADD SWAP2 JUMPDEST POP POP POP POP POP SWAP1 DUP1 PUSH1 0x4 ADD DUP1 SLOAD PUSH2 0x1137 SWAP1 PUSH2 0x1CC4 JUMP JUMPDEST DUP1 PUSH1 0x1F ADD PUSH1 0x20 DUP1 SWAP2 DIV MUL PUSH1 0x20 ADD PUSH1 0x40 MLOAD SWAP1 DUP2 ADD PUSH1 0x40 MSTORE DUP1 SWAP3 SWAP2 SWAP1 DUP2 DUP2 MSTORE PUSH1 0x20 ADD DUP3 DUP1 SLOAD PUSH2 0x1163 SWAP1 PUSH2 0x1CC4 JUMP JUMPDEST DUP1 ISZERO PUSH2 0x11B0 JUMPI DUP1 PUSH1 0x1F LT PUSH2 0x1185 JUMPI PUSH2 0x100 DUP1 DUP4 SLOAD DIV MUL DUP4 MSTORE SWAP2 PUSH1 0x20 ADD SWAP2 PUSH2 0x11B0 JUMP JUMPDEST DUP3 ADD SWAP2 SWAP1 PUSH1 0x0 MSTORE PUSH1 0x20 PUSH1 0x0 KECCAK256 SWAP1 JUMPDEST DUP2 SLOAD DUP2 MSTORE SWAP1 PUSH1 0x1 ADD SWAP1 PUSH1 0x20 ADD DUP1 DUP4 GT PUSH2 0x1193 JUMPI DUP3 SWAP1 SUB PUSH1 0x1F AND DUP3 ADD SWAP2 JUMPDEST POP POP POP POP POP SWAP1 DUP1 PUSH1 0x5 ADD DUP1 SLOAD PUSH2 0x11C5 SWAP1 PUSH2 0x1CC4 JUMP JUMPDEST DUP1 PUSH1 0x1F ADD PUSH1 0x20 DUP1 SWAP2 DIV MUL PUSH1 0x20 ADD PUSH1 0x40 MLOAD SWAP1 DUP2 ADD PUSH1 0x40 MSTORE DUP1 SWAP3 SWAP2 SWAP1 DUP2 DUP2 MSTORE PUSH1 0x20 ADD DUP3 DUP1 SLOAD PUSH2 0x11F1 SWAP1 PUSH2 0x1CC4 JUMP JUMPDEST DUP1 ISZERO PUSH2 0x123E JUMPI DUP1 PUSH1 0x1F LT PUSH2 0x1213 JUMPI PUSH2 0x100 DUP1 DUP4 SLOAD DIV MUL DUP4 MSTORE SWAP2 PUSH1 0x20 ADD SWAP2 PUSH2 0x123E JUMP JUMPDEST DUP3 ADD SWAP2 SWAP1 PUSH1 0x0 MSTORE PUSH1 0x20 PUSH1 0x0 KECCAK256 SWAP1 JUMPDEST DUP2 SLOAD DUP2 MSTORE SWAP1 PUSH1 0x1 ADD SWAP1 PUSH1 0x20 ADD DUP1 DUP4 GT PUSH2 0x1221 JUMPI DUP3 SWAP1 SUB PUSH1 0x1F AND DUP3 ADD SWAP2 JUMPDEST POP POP POP POP POP SWAP1 DUP1 PUSH1 0x6 ADD DUP1 SLOAD PUSH2 0x1253 SWAP1 PUSH2 0x1CC4 JUMP JUMPDEST DUP1 PUSH1 0x1F ADD PUSH1 0x20 DUP1 SWAP2 DIV MUL PUSH1 0x20 ADD PUSH1 0x40 MLOAD SWAP1 DUP2 ADD PUSH1 0x40 MSTORE DUP1 SWAP3 SWAP2 SWAP1 DUP2 DUP2 MSTORE PUSH1 0x20 ADD DUP3 DUP1 SLOAD PUSH2 0x127F SWAP1 PUSH2 0x1CC4 JUMP JUMPDEST DUP1 ISZERO PUSH2 0x12CC JUMPI DUP1 PUSH1 0x1F LT PUSH2 0x12A1 JUMPI PUSH2 0x100 DUP1 DUP4 SLOAD DIV MUL DUP4 MSTORE SWAP2 PUSH1 0x20 ADD SWAP2 PUSH2 0x12CC JUMP JUMPDEST DUP3 ADD SWAP2 SWAP1 PUSH1 0x0 MSTORE PUSH1 0x20 PUSH1 0x0 KECCAK256 SWAP1 JUMPDEST DUP2 SLOAD DUP2 MSTORE SWAP1 PUSH1 0x1 ADD SWAP1 PUSH1 0x20 ADD DUP1 DUP4 GT PUSH2 0x12AF JUMPI DUP3 SWAP1 SUB PUSH1 0x1F AND DUP3 ADD SWAP2 JUMPDEST POP POP POP POP POP SWAP1 DUP1 PUSH1 0x7 ADD DUP1 SLOAD PUSH2 0x12E1 SWAP1 PUSH2 0x1CC4 JUMP JUMPDEST DUP1 PUSH1 0x1F ADD PUSH1 0x20 DUP1 SWAP2 DIV MUL PUSH1 0x20 ADD PUSH1 0x40 MLOAD SWAP1 DUP2 ADD PUSH1 0x40 MSTORE DUP1 SWAP3 SWAP2 SWAP1 DUP2 DUP2 MSTORE PUSH1 0x20 ADD DUP3 DUP1 SLOAD PUSH2 0x130D SWAP1 PUSH2 0x1CC4 JUMP JUMPDEST DUP1 ISZERO PUSH2 0x135A JUMPI DUP1 PUSH1 0x1F LT PUSH2 0x132F JUMPI PUSH2 0x100 DUP1 DUP4 SLOAD DIV MUL DUP4 MSTORE SWAP2 PUSH1 0x20 ADD SWAP2 PUSH2 0x135A JUMP JUMPDEST DUP3 ADD SWAP2 SWAP1 PUSH1 0x0 MSTORE PUSH1 0x20 PUSH1 0x0 KECCAK256 SWAP1 JUMPDEST DUP2 SLOAD DUP2 MSTORE SWAP1 PUSH1 0x1 ADD SWAP1 PUSH1 0x20 ADD DUP1 DUP4 GT PUSH2 0x133D JUMPI DUP3 SWAP1 SUB PUSH1 0x1F AND DUP3 ADD SWAP2 JUMPDEST POP POP POP POP POP SWAP1 DUP1 PUSH1 0x8 ADD DUP1 SLOAD PUSH2 0x136F SWAP1 PUSH2 0x1CC4 JUMP JUMPDEST DUP1 PUSH1 0x1F ADD PUSH1 0x20 DUP1 SWAP2 DIV MUL PUSH1 0x20 ADD PUSH1 0x40 MLOAD SWAP1 DUP2 ADD PUSH1 0x40 MSTORE DUP1 SWAP3 SWAP2 SWAP1 DUP2 DUP2 MSTORE PUSH1 0x20 ADD DUP3 DUP1 SLOAD PUSH2 0x139B SWAP1 PUSH2 0x1CC4 JUMP JUMPDEST DUP1 ISZERO PUSH2 0x13E8 JUMPI DUP1 PUSH1 0x1F LT PUSH2 0x13BD JUMPI PUSH2 0x100 DUP1 DUP4 SLOAD DIV MUL DUP4 MSTORE SWAP2 PUSH1 0x20 ADD SWAP2 PUSH2 0x13E8 JUMP JUMPDEST DUP3 ADD SWAP2 SWAP1 PUSH1 0x0 MSTORE PUSH1 0x20 PUSH1 0x0 KECCAK256 SWAP1 JUMPDEST DUP2 SLOAD DUP2 MSTORE SWAP1 PUSH1 0x1 ADD SWAP1 PUSH1 0x20 ADD DUP1 DUP4 GT PUSH2 0x13CB JUMPI DUP3 SWAP1 SUB PUSH1 0x1F AND DUP3 ADD SWAP2 JUMPDEST POP POP POP POP POP SWAP1 DUP1 PUSH1 0x9 ADD PUSH1 0x0 SWAP1 SLOAD SWAP1 PUSH2 0x100 EXP SWAP1 DIV PUSH20 0xFFFFFFFFFFFFFFFFFFFFFFFFFFFFFFFFFFFFFFFF AND SWAP1 DUP1 PUSH1 0x9 ADD PUSH1 0x14 SWAP1 SLOAD SWAP1 PUSH2 0x100 EXP SWAP1 DIV PUSH1 0xFF AND SWAP1 POP DUP12 JUMP JUMPDEST PUSH1 0x0 PUSH1 0x1 DUP1 SLOAD SWAP1 POP SWAP1 POP SWAP1 JUMP JUMPDEST DUP3 DUP1 SLOAD PUSH2 0x1444 SWAP1 PUSH2 0x1CC4 JUMP JUMPDEST SWAP1 PUSH1 0x0 MSTORE PUSH1 0x20 PUSH1 0x0 KECCAK256 SWAP1 PUSH1 0x1F ADD PUSH1 0x20 SWAP1 DIV DUP2 ADD SWAP3 DUP3 PUSH2 0x1466 JUMPI PUSH1 0x0 DUP6 SSTORE PUSH2 0x14AD JUMP JUMPDEST DUP3 PUSH1 0x1F LT PUSH2 0x147F JUMPI DUP1 MLOAD PUSH1 0xFF NOT AND DUP4 DUP1 ADD OR DUP6 SSTORE PUSH2 0x14AD JUMP JUMPDEST DUP3 DUP1 ADD PUSH1 0x1 ADD DUP6 SSTORE DUP3 ISZERO PUSH2 0x14AD JUMPI SWAP2 DUP3 ADD JUMPDEST DUP3 DUP2 GT ISZERO PUSH2 0x14AC JUMPI DUP3 MLOAD DUP3 SSTORE SWAP2 PUSH1 0x20 ADD SWAP2 SWAP1 PUSH1 0x1 ADD SWAP1 PUSH2 0x1491 JUMP JUMPDEST JUMPDEST POP SWAP1 POP PUSH2 0x14BA SWAP2 SWAP1 PUSH2 0x154B JUMP JUMPDEST POP SWAP1 JUMP JUMPDEST DUP3 DUP1 SLOAD PUSH2 0x14CA SWAP1 PUSH2 0x1CC4 JUMP JUMPDEST SWAP1 PUSH1 0x0 MSTORE PUSH1 0x20 PUSH1 0x0 KECCAK256 SWAP1 PUSH1 0x1F ADD PUSH1 0x20 SWAP1 DIV DUP2 ADD SWAP3 DUP3 PUSH2 0x14EC JUMPI PUSH1 0x0 DUP6 SSTORE PUSH2 0x153A JUMP JUMPDEST DUP3 PUSH1 0x1F LT PUSH2 0x14FD JUMPI DUP1 SLOAD DUP6 SSTORE PUSH2 0x153A JUMP JUMPDEST DUP3 DUP1 ADD PUSH1 0x1 ADD DUP6 SSTORE DUP3 ISZERO PUSH2 0x153A JUMPI PUSH1 0x0 MSTORE PUSH1 0x20 PUSH1 0x0 KECCAK256 SWAP2 PUSH1 0x1F ADD PUSH1 0x20 SWAP1 DIV DUP3 ADD JUMPDEST DUP3 DUP2 GT ISZERO PUSH2 0x1539 JUMPI DUP3 SLOAD DUP3 SSTORE SWAP2 PUSH1 0x1 ADD SWAP2 SWAP1 PUSH1 0x1 ADD SWAP1 PUSH2 0x151E JUMP JUMPDEST JUMPDEST POP SWAP1 POP PUSH2 0x1547 SWAP2 SWAP1 PUSH2 0x154B JUMP JUMPDEST POP SWAP1 JUMP JUMPDEST JUMPDEST DUP1 DUP3 GT ISZERO PUSH2 0x1564 JUMPI PUSH1 0x0 DUP2 PUSH1 0x0 SWAP1 SSTORE POP PUSH1 0x1 ADD PUSH2 0x154C JUMP JUMPDEST POP SWAP1 JUMP JUMPDEST PUSH1 0x0 PUSH1 0x40 MLOAD SWAP1 POP SWAP1 JUMP JUMPDEST PUSH1 0x0 DUP1 REVERT JUMPDEST PUSH1 0x0 DUP1 REVERT JUMPDEST PUSH1 0x0 DUP1 REVERT JUMPDEST PUSH1 0x0 DUP1 REVERT JUMPDEST PUSH1 0x0 PUSH1 0x1F NOT PUSH1 0x1F DUP4 ADD AND SWAP1 POP SWAP2 SWAP1 POP JUMP JUMPDEST PUSH32 0x4E487B7100000000000000000000000000000000000000000000000000000000 PUSH1 0x0 MSTORE PUSH1 0x41 PUSH1 0x4 MSTORE PUSH1 0x24 PUSH1 0x0 REVERT JUMPDEST PUSH2 0x15CF DUP3 PUSH2 0x1586 JUMP JUMPDEST DUP2 ADD DUP2 DUP2 LT PUSH8 0xFFFFFFFFFFFFFFFF DUP3 GT OR ISZERO PUSH2 0x15EE JUMPI PUSH2 0x15ED PUSH2 0x1597 JUMP JUMPDEST JUMPDEST DUP1 PUSH1 0x40 MSTORE POP POP POP JUMP JUMPDEST PUSH1 0x0 PUSH2 0x1601 PUSH2 0x1568 JUMP JUMPDEST SWAP1 POP PUSH2 0x160D DUP3 DUP3 PUSH2 0x15C6 JUMP JUMPDEST SWAP2 SWAP1 POP JUMP JUMPDEST PUSH1 0x0 PUSH8 0xFFFFFFFFFFFFFFFF DUP3 GT ISZERO PUSH2 0x162D JUMPI PUSH2 0x162C PUSH2 0x1597 JUMP JUMPDEST JUMPDEST PUSH2 0x1636 DUP3 PUSH2 0x1586 JUMP JUMPDEST SWAP1 POP PUSH1 0x20 DUP2 ADD SWAP1 POP SWAP2 SWAP1 POP JUMP JUMPDEST DUP3 DUP2 DUP4 CALLDATACOPY PUSH1 0x0 DUP4 DUP4 ADD MSTORE POP POP POP JUMP JUMPDEST PUSH1 0x0 PUSH2 0x1665 PUSH2 0x1660 DUP5 PUSH2 0x1612 JUMP JUMPDEST PUSH2 0x15F7 JUMP JUMPDEST SWAP1 POP DUP3 DUP2 MSTORE PUSH1 0x20 DUP2 ADD DUP5 DUP5 DUP5 ADD GT ISZERO PUSH2 0x1681 JUMPI PUSH2 0x1680 PUSH2 0x1581 JUMP JUMPDEST JUMPDEST PUSH2 0x168C DUP5 DUP3 DUP6 PUSH2 0x1643 JUMP JUMPDEST POP SWAP4 SWAP3 POP POP POP JUMP JUMPDEST PUSH1 0x0 DUP3 PUSH1 0x1F DUP4 ADD SLT PUSH2 0x16A9 JUMPI PUSH2 0x16A8 PUSH2 0x157C JUMP JUMPDEST JUMPDEST DUP2 CALLDATALOAD PUSH2 0x16B9 DUP5 DUP3 PUSH1 0x20 DUP7 ADD PUSH2 0x1652 JUMP JUMPDEST SWAP2 POP POP SWAP3 SWAP2 POP POP JUMP JUMPDEST PUSH1 0x0 PUSH20 0xFFFFFFFFFFFFFFFFFFFFFFFFFFFFFFFFFFFFFFFF DUP3 AND SWAP1 POP SWAP2 SWAP1 POP JUMP JUMPDEST PUSH1 0x0 PUSH2 0x16ED DUP3 PUSH2 0x16C2 JUMP JUMPDEST SWAP1 POP SWAP2 SWAP1 POP JUMP JUMPDEST PUSH2 0x16FD DUP2 PUSH2 0x16E2 JUMP JUMPDEST DUP2 EQ PUSH2 0x1708 JUMPI PUSH1 0x0 DUP1 REVERT JUMPDEST POP JUMP JUMPDEST PUSH1 0x0 DUP2 CALLDATALOAD SWAP1 POP PUSH2 0x171A DUP2 PUSH2 0x16F4 JUMP JUMPDEST SWAP3 SWAP2 POP POP JUMP JUMPDEST PUSH1 0x0 DUP1 PUSH1 0x0 DUP1 PUSH1 0x0 DUP1 PUSH1 0x0 DUP1 PUSH1 0x0 DUP1 PUSH2 0x140 DUP12 DUP14 SUB SLT ISZERO PUSH2 0x1744 JUMPI PUSH2 0x1743 PUSH2 0x1572 JUMP JUMPDEST JUMPDEST PUSH1 0x0 DUP12 ADD CALLDATALOAD PUSH8 0xFFFFFFFFFFFFFFFF DUP2 GT ISZERO PUSH2 0x1762 JUMPI PUSH2 0x1761 PUSH2 0x1577 JUMP JUMPDEST JUMPDEST PUSH2 0x176E DUP14 DUP3 DUP15 ADD PUSH2 0x1694 JUMP JUMPDEST SWAP11 POP POP PUSH1 0x20 DUP12 ADD CALLDATALOAD PUSH8 0xFFFFFFFFFFFFFFFF DUP2 GT ISZERO PUSH2 0x178F JUMPI PUSH2 0x178E PUSH2 0x1577 JUMP JUMPDEST JUMPDEST PUSH2 0x179B DUP14 DUP3 DUP15 ADD PUSH2 0x1694 JUMP JUMPDEST SWAP10 POP POP PUSH1 0x40 DUP12 ADD CALLDATALOAD PUSH8 0xFFFFFFFFFFFFFFFF DUP2 GT ISZERO PUSH2 0x17BC JUMPI PUSH2 0x17BB PUSH2 0x1577 JUMP JUMPDEST JUMPDEST PUSH2 0x17C8 DUP14 DUP3 DUP15 ADD PUSH2 0x1694 JUMP JUMPDEST SWAP9 POP POP PUSH1 0x60 DUP12 ADD CALLDATALOAD PUSH8 0xFFFFFFFFFFFFFFFF DUP2 GT ISZERO PUSH2 0x17E9 JUMPI PUSH2 0x17E8 PUSH2 0x1577 JUMP JUMPDEST JUMPDEST PUSH2 0x17F5 DUP14 DUP3 DUP15 ADD PUSH2 0x1694 JUMP JUMPDEST SWAP8 POP POP PUSH1 0x80 DUP12 ADD CALLDATALOAD PUSH8 0xFFFFFFFFFFFFFFFF DUP2 GT ISZERO PUSH2 0x1816 JUMPI PUSH2 0x1815 PUSH2 0x1577 JUMP JUMPDEST JUMPDEST PUSH2 0x1822 DUP14 DUP3 DUP15 ADD PUSH2 0x1694 JUMP JUMPDEST SWAP7 POP POP PUSH1 0xA0 DUP12 ADD CALLDATALOAD PUSH8 0xFFFFFFFFFFFFFFFF DUP2 GT ISZERO PUSH2 0x1843 JUMPI PUSH2 0x1842 PUSH2 0x1577 JUMP JUMPDEST JUMPDEST PUSH2 0x184F DUP14 DUP3 DUP15 ADD PUSH2 0x1694 JUMP JUMPDEST SWAP6 POP POP PUSH1 0xC0 DUP12 ADD CALLDATALOAD PUSH8 0xFFFFFFFFFFFFFFFF DUP2 GT ISZERO PUSH2 0x1870 JUMPI PUSH2 0x186F PUSH2 0x1577 JUMP JUMPDEST JUMPDEST PUSH2 0x187C DUP14 DUP3 DUP15 ADD PUSH2 0x1694 JUMP JUMPDEST SWAP5 POP POP PUSH1 0xE0 DUP12 ADD CALLDATALOAD PUSH8 0xFFFFFFFFFFFFFFFF DUP2 GT ISZERO PUSH2 0x189D JUMPI PUSH2 0x189C PUSH2 0x1577 JUMP JUMPDEST JUMPDEST PUSH2 0x18A9 DUP14 DUP3 DUP15 ADD PUSH2 0x1694 JUMP JUMPDEST SWAP4 POP POP PUSH2 0x100 PUSH2 0x18BB DUP14 DUP3 DUP15 ADD PUSH2 0x170B JUMP JUMPDEST SWAP3 POP POP PUSH2 0x120 DUP12 ADD CALLDATALOAD PUSH8 0xFFFFFFFFFFFFFFFF DUP2 GT ISZERO PUSH2 0x18DD JUMPI PUSH2 0x18DC PUSH2 0x1577 JUMP JUMPDEST JUMPDEST PUSH2 0x18E9 DUP14 DUP3 DUP15 ADD PUSH2 0x1694 JUMP JUMPDEST SWAP2 POP POP SWAP3 SWAP6 SWAP9 SWAP12 SWAP2 SWAP5 SWAP8 SWAP11 POP SWAP3 SWAP6 SWAP9 POP JUMP JUMPDEST PUSH1 0x0 DUP2 MLOAD SWAP1 POP SWAP2 SWAP1 POP JUMP JUMPDEST PUSH1 0x0 DUP3 DUP3 MSTORE PUSH1 0x20 DUP3 ADD SWAP1 POP SWAP3 SWAP2 POP POP JUMP JUMPDEST PUSH1 0x0 JUMPDEST DUP4 DUP2 LT ISZERO PUSH2 0x1935 JUMPI DUP1 DUP3 ADD MLOAD DUP2 DUP5 ADD MSTORE PUSH1 0x20 DUP2 ADD SWAP1 POP PUSH2 0x191A JUMP JUMPDEST DUP4 DUP2 GT ISZERO PUSH2 0x1944 JUMPI PUSH1 0x0 DUP5 DUP5 ADD MSTORE JUMPDEST POP POP POP POP JUMP JUMPDEST PUSH1 0x0 PUSH2 0x1955 DUP3 PUSH2 0x18FB JUMP JUMPDEST PUSH2 0x195F DUP2 DUP6 PUSH2 0x1906 JUMP JUMPDEST SWAP4 POP PUSH2 0x196F DUP2 DUP6 PUSH1 0x20 DUP7 ADD PUSH2 0x1917 JUMP JUMPDEST PUSH2 0x1978 DUP2 PUSH2 0x1586 JUMP JUMPDEST DUP5 ADD SWAP2 POP POP SWAP3 SWAP2 POP POP JUMP JUMPDEST PUSH2 0x198C DUP2 PUSH2 0x16E2 JUMP JUMPDEST DUP3 MSTORE POP POP JUMP JUMPDEST PUSH1 0x0 DUP2 SWAP1 POP SWAP2 SWAP1 POP JUMP JUMPDEST PUSH2 0x19A5 DUP2 PUSH2 0x1992 JUMP JUMPDEST DUP3 MSTORE POP POP JUMP JUMPDEST PUSH1 0x0 PUSH1 0x80 DUP3 ADD SWAP1 POP DUP2 DUP2 SUB PUSH1 0x0 DUP4 ADD MSTORE PUSH2 0x19C5 DUP2 DUP8 PUSH2 0x194A JUMP JUMPDEST SWAP1 POP DUP2 DUP2 SUB PUSH1 0x20 DUP4 ADD MSTORE PUSH2 0x19D9 DUP2 DUP7 PUSH2 0x194A JUMP JUMPDEST SWAP1 POP PUSH2 0x19E8 PUSH1 0x40 DUP4 ADD DUP6 PUSH2 0x1983 JUMP JUMPDEST PUSH2 0x19F5 PUSH1 0x60 DUP4 ADD DUP5 PUSH2 0x199C JUMP JUMPDEST SWAP6 SWAP5 POP POP POP POP POP JUMP JUMPDEST PUSH1 0x0 PUSH1 0x20 DUP3 ADD SWAP1 POP DUP2 DUP2 SUB PUSH1 0x0 DUP4 ADD MSTORE PUSH2 0x1A18 DUP2 DUP5 PUSH2 0x194A JUMP JUMPDEST SWAP1 POP SWAP3 SWAP2 POP POP JUMP JUMPDEST PUSH1 0x0 PUSH1 0x20 DUP3 ADD SWAP1 POP PUSH2 0x1A35 PUSH1 0x0 DUP4 ADD DUP5 PUSH2 0x1983 JUMP JUMPDEST SWAP3 SWAP2 POP POP JUMP JUMPDEST PUSH1 0x0 PUSH1 0x20 DUP3 ADD SWAP1 POP PUSH2 0x1A50 PUSH1 0x0 DUP4 ADD DUP5 PUSH2 0x199C JUMP JUMPDEST SWAP3 SWAP2 POP POP JUMP JUMPDEST PUSH2 0x1A5F DUP2 PUSH2 0x1992 JUMP JUMPDEST DUP2 EQ PUSH2 0x1A6A JUMPI PUSH1 0x0 DUP1 REVERT JUMPDEST POP JUMP JUMPDEST PUSH1 0x0 DUP2 CALLDATALOAD SWAP1 POP PUSH2 0x1A7C DUP2 PUSH2 0x1A56 JUMP JUMPDEST SWAP3 SWAP2 POP POP JUMP JUMPDEST PUSH1 0x0 DUP1 PUSH1 0x40 DUP4 DUP6 SUB SLT ISZERO PUSH2 0x1A99 JUMPI PUSH2 0x1A98 PUSH2 0x1572 JUMP JUMPDEST JUMPDEST PUSH1 0x0 PUSH2 0x1AA7 DUP6 DUP3 DUP7 ADD PUSH2 0x1A6D JUMP JUMPDEST SWAP3 POP POP PUSH1 0x20 DUP4 ADD CALLDATALOAD PUSH8 0xFFFFFFFFFFFFFFFF DUP2 GT ISZERO PUSH2 0x1AC8 JUMPI PUSH2 0x1AC7 PUSH2 0x1577 JUMP JUMPDEST JUMPDEST PUSH2 0x1AD4 DUP6 DUP3 DUP7 ADD PUSH2 0x1694 JUMP JUMPDEST SWAP2 POP POP SWAP3 POP SWAP3 SWAP1 POP JUMP JUMPDEST PUSH1 0x0 PUSH1 0x20 DUP3 DUP5 SUB SLT ISZERO PUSH2 0x1AF4 JUMPI PUSH2 0x1AF3 PUSH2 0x1572 JUMP JUMPDEST JUMPDEST PUSH1 0x0 PUSH2 0x1B02 DUP5 DUP3 DUP6 ADD PUSH2 0x1A6D JUMP JUMPDEST SWAP2 POP POP SWAP3 SWAP2 POP POP JUMP JUMPDEST PUSH1 0x0 DUP2 ISZERO ISZERO SWAP1 POP SWAP2 SWAP1 POP JUMP JUMPDEST PUSH2 0x1B20 DUP2 PUSH2 0x1B0B JUMP JUMPDEST DUP3 MSTORE POP POP JUMP JUMPDEST PUSH1 0x0 PUSH2 0x160 DUP3 ADD SWAP1 POP DUP2 DUP2 SUB PUSH1 0x0 DUP4 ADD MSTORE PUSH2 0x1B41 DUP2 DUP15 PUSH2 0x194A JUMP JUMPDEST SWAP1 POP DUP2 DUP2 SUB PUSH1 0x20 DUP4 ADD MSTORE PUSH2 0x1B55 DUP2 DUP14 PUSH2 0x194A JUMP JUMPDEST SWAP1 POP DUP2 DUP2 SUB PUSH1 0x40 DUP4 ADD MSTORE PUSH2 0x1B69 DUP2 DUP13 PUSH2 0x194A JUMP JUMPDEST SWAP1 POP DUP2 DUP2 SUB PUSH1 0x60 DUP4 ADD MSTORE PUSH2 0x1B7D DUP2 DUP12 PUSH2 0x194A JUMP JUMPDEST SWAP1 POP DUP2 DUP2 SUB PUSH1 0x80 DUP4 ADD MSTORE PUSH2 0x1B91 DUP2 DUP11 PUSH2 0x194A JUMP JUMPDEST SWAP1 POP DUP2 DUP2 SUB PUSH1 0xA0 DUP4 ADD MSTORE PUSH2 0x1BA5 DUP2 DUP10 PUSH2 0x194A JUMP JUMPDEST SWAP1 POP DUP2 DUP2 SUB PUSH1 0xC0 DUP4 ADD MSTORE PUSH2 0x1BB9 DUP2 DUP9 PUSH2 0x194A JUMP JUMPDEST SWAP1 POP DUP2 DUP2 SUB PUSH1 0xE0 DUP4 ADD MSTORE PUSH2 0x1BCD DUP2 DUP8 PUSH2 0x194A JUMP JUMPDEST SWAP1 POP DUP2 DUP2 SUB PUSH2 0x100 DUP4 ADD MSTORE PUSH2 0x1BE2 DUP2 DUP7 PUSH2 0x194A JUMP JUMPDEST SWAP1 POP PUSH2 0x1BF2 PUSH2 0x120 DUP4 ADD DUP6 PUSH2 0x1983 JUMP JUMPDEST PUSH2 0x1C00 PUSH2 0x140 DUP4 ADD DUP5 PUSH2 0x1B17 JUMP JUMPDEST SWAP13 SWAP12 POP POP POP POP POP POP POP POP POP POP POP POP JUMP JUMPDEST PUSH32 0x4E487B7100000000000000000000000000000000000000000000000000000000 PUSH1 0x0 MSTORE PUSH1 0x11 PUSH1 0x4 MSTORE PUSH1 0x24 PUSH1 0x0 REVERT JUMPDEST PUSH1 0x0 PUSH2 0x1C4A DUP3 PUSH2 0x1992 JUMP JUMPDEST SWAP2 POP PUSH2 0x1C55 DUP4 PUSH2 0x1992 JUMP JUMPDEST SWAP3 POP DUP3 PUSH32 0xFFFFFFFFFFFFFFFFFFFFFFFFFFFFFFFFFFFFFFFFFFFFFFFFFFFFFFFFFFFFFFFF SUB DUP3 GT ISZERO PUSH2 0x1C8A JUMPI PUSH2 0x1C89 PUSH2 0x1C10 JUMP JUMPDEST JUMPDEST DUP3 DUP3 ADD SWAP1 POP SWAP3 SWAP2 POP POP JUMP JUMPDEST PUSH32 0x4E487B7100000000000000000000000000000000000000000000000000000000 PUSH1 0x0 MSTORE PUSH1 0x22 PUSH1 0x4 MSTORE PUSH1 0x24 PUSH1 0x0 REVERT JUMPDEST PUSH1 0x0 PUSH1 0x2 DUP3 DIV SWAP1 POP PUSH1 0x1 DUP3 AND DUP1 PUSH2 0x1CDC JUMPI PUSH1 0x7F DUP3 AND SWAP2 POP JUMPDEST PUSH1 0x20 DUP3 LT DUP2 EQ ISZERO PUSH2 0x1CF0 JUMPI PUSH2 0x1CEF PUSH2 0x1C95 JUMP JUMPDEST JUMPDEST POP SWAP2 SWAP1 POP JUMP JUMPDEST PUSH32 0x4E487B7100000000000000000000000000000000000000000000000000000000 PUSH1 0x0 MSTORE PUSH1 0x32 PUSH1 0x4 MSTORE PUSH1 0x24 PUSH1 0x0 REVERT JUMPDEST PUSH1 0x0 PUSH2 0x1D30 DUP3 PUSH2 0x1992 JUMP JUMPDEST SWAP2 POP PUSH2 0x1D3B DUP4 PUSH2 0x1992 JUMP JUMPDEST SWAP3 POP DUP3 DUP3 LT ISZERO PUSH2 0x1D4E JUMPI PUSH2 0x1D4D PUSH2 0x1C10 JUMP JUMPDEST JUMPDEST DUP3 DUP3 SUB SWAP1 POP SWAP3 SWAP2 POP POP JUMP INVALID LOG2 PUSH5 0x6970667358 0x22 SLT KECCAK256 PUSH19 0x3CEC951A075B3B47F6865CD8DE2870C72BE594 0xB3 0xB8 0x22 SWAP16 PUSH12 0x192F6187E9E6A764736F6C63 NUMBER STOP ADDMOD MULMOD STOP CALLER "},"gasEstimates":{"creation":{"codeDepositCost":"1513400","executionCost":"infinite","totalCost":"infinite"},"external":{"allotedCredit()":"infinite","approveTransaction(uint256,string)":"infinite","approvedTransactions(uint256)":"infinite","createTransaction(string,string,string,string,string,string,string,string,address,string)":"infinite","creditUsed()":"infinite","getApprovedTransactionCount()":"2533","getBalance()":"infinite","getTransactionsCount()":"2534","manager()":"2581","transactions(uint256)":"infinite"}},"methodIdentifiers":{"allotedCredit()":"27b77d46","approveTransaction(uint256,string)":"97c85a61","approvedTransactions(uint256)":"e5fe34af","createTransaction(string,string,string,string,string,string,string,string,address,string)":"077c34a4","creditUsed()":"84bd5104","getApprovedTransactionCount()":"fbe96385","getBalance()":"12065fe0","getTransactionsCount()":"578cb8f9","manager()":"481c6a75","transactions(uint256)":"9ace38c2"}},"storageLayout":{"storage":[{"astId":75,"contract":"Organization.sol:Organization","label":"transactions","offset":0,"slot":"0","type":"t_array(t_struct(Transaction)71_storage)dyn_storage"},{"astId":79,"contract":"Organization.sol:Organization","label":"approvedTransactions","offset":0,"slot":"1","type":"t_array(t_struct(Transaction)71_storage)dyn_storage"},{"astId":81,"contract":"Organization.sol:Organization","label":"manager","offset":0,"slot":"2","type":"t_address"},{"astId":83,"contract":"Organization.sol:Organization","label":"allotedCredit","offset":0,"slot":"3","type":"t_string_storage"},{"astId":85,"contract":"Organization.sol:Organization","label":"creditUsed","offset":0,"slot":"4","type":"t_string_storage"},{"astId":87,"contract":"Organization.sol:Organization","label":"pendingApprovals","offset":0,"slot":"5","type":"t_uint256"}],"types":{"t_address":{"encoding":"inplace","label":"address","numberOfBytes":"20"},"t_array(t_struct(Transaction)71_storage)dyn_storage":{"base":"t_struct(Transaction)71_storage","encoding":"dynamic_array","label":"struct Organization.Transaction[]","numberOfBytes":"32"},"t_bool":{"encoding":"inplace","label":"bool","numberOfBytes":"1"},"t_string_storage":{"encoding":"bytes","label":"string","numberOfBytes":"32"},"t_struct(Transaction)71_storage":{"encoding":"inplace","label":"struct Organization.Transaction","members":[{"astId":50,"contract":"Organization.sol:Organization","label":"date","offset":0,"slot":"0","type":"t_string_storage"},{"astId":52,"contract":"Organization.sol:Organization","label":"co2","offset":0,"slot":"1","type":"t_string_storage"},{"astId":54,"contract":"Organization.sol:Organization","label":"ch4","offset":0,"slot":"2","type":"t_string_storage"},{"astId":56,"contract":"Organization.sol:Organization","label":"n2o","offset":0,"slot":"3","type":"t_string_storage"},{"astId":58,"contract":"Organization.sol:Organization","label":"hfc","offset":0,"slot":"4","type":"t_string_storage"},{"astId":60,"contract":"Organization.sol:Organization","label":"pfc","offset":0,"slot":"5","type":"t_string_storage"},{"astId":62,"contract":"Organization.sol:Organization","label":"sf6","offset":0,"slot":"6","type":"t_string_storage"},{"astId":64,"contract":"Organization.sol:Organization","label":"creditUsedd","offset":0,"slot":"7","type":"t_string_storage"},{"astId":66,"contract":"Organization.sol:Organization","label":"availableCredit","offset":0,"slot":"8","type":"t_string_storage"},{"astId":68,"contract":"Organization.sol:Organization","label":"org","offset":0,"slot":"9","type":"t_address"},{"astId":70,"contract":"Organization.sol:Organization","label":"complete","offset":20,"slot":"9","type":"t_bool"}],"numberOfBytes":"320"},"t_uint256":{"encoding":"inplace","label":"uint256","numberOfBytes":"32"}}},"userdoc":{"kind":"user","methods":{},"version":1}}